:020000040800F2
:1000000028040020450100087D0A00087F0A000836
:10001000830A0008870A00088B0A00080000000015
:100020000000000000000000000000008F0A00082F
:10003000910A000800000000930A0008950A0008D1
:100040005F0100085F0100085F0100085F01000810
:100050005F0100085F0100085F0100085F01000800
:100060005F0100085F0100085F0100085F010008F0
:100070005F0100085F0100085F0100085F010008E0
:100080005F0100085F0100085F0100085F010008D0
:100090005F0100085F0100085F0100085F010008C0
:1000A0005F0100085F0100085F0100085F010008B0
:1000B0005F0100085F0100085F0100085F010008A0
:1000C0005F0100085F0100085F0100085F01000890
:1000D0005F0100085F0100085F0100085F01000880
:1000E0005F0100085F0100085F0100085F01000870
:1000F0005F0100085F0100085F0100085F01000860
:100100005F0100085F0100085F0100085F0100084F
:100110005F0100085F0100085F0100085F0100083F
:100120005F0100085F0100085F0100085F0100082F
:10013000DFF80CD000F0E0FC00480047130A00088C
:10014000280400200648804706480047FEE7FEE7EF
:10015000FEE7FEE7FEE7FEE7FEE7FEE7FEE7FEE777
:10016000310200083101000800200021674A1268AE
:1001700042F48032654B1A6000BF644A126802F490
:100180000031401C11B9B0F5A06FF6D15F4A12687A
:1001900012F4003F01D0012100E00021012942D1E9
:1001A0005B4A126842F01002594B1A601A461268F4
:1001B00022F003021A601A46126842F002021A6024
:1001C000524A5268514B5A601A4652685A601A464F
:1001D000526842F480625A601A46526822F47C12D5
:1001E0005A601A46526842F4E8125A601A46126877
:1001F00042F080721A6000BF444A126812F0007F19
:10020000FAD0424A526822F00302404B5A601A4622
:10021000526842F002025A6000BF3C4A526802F043
:100220000C02082AF9D1704710B5FFF79DFF10BDE9
:1002300010B53648006840F00100344908600846AF
:1002400040683449084031494860084600683249EE
:1002500008402E4908600846006820F480200860A5
:100260000846406820F4FE0048604FF41F00886094
:10027000FFF7DAFF4FF000602849086010BD10B5A5
:10028000002000210022214B5B6803F00C0020B10C
:10029000042806D0082828D107E0214B214C2360F0
:1002A00027E01F4B1F4C236023E0184B5B6803F4CF
:1002B0007011164B5B6803F48032022303EB91410B
:1002C00022B9194B4B43174C23600DE00F4B5B6871
:1002D00013F4003F04D0144B4B43124C236003E053
:1002E0000F4B4B430F4C236003E00D4B0D4C236031
:1002F00000BF00BF054B5B68C3F303130B4CE05C0E
:10030000084B1B68C340074C236010BD001002401F
:10031000002002400000FFF8FFFFF6FE08ED00E0BD
:1003200000127A000000002000093D0004000020B7
:1003300010B50446C748844208D10121042000F0CA
:100340001BFB0021042000F017FB46E0C24884425A
:1003500008D10121082000F00FFB0021082000F047
:100360000BFB3AE0BD48844208D10121102000F087
:1003700003FB0021102000F0FFFA2EE0B848844271
:1003800008D10121202000F0F7FA0021202000F000
:10039000F3FA22E0B348844208D10121402000F062
:1003A000EBFA0021402000F0E7FA16E0AE48844264
:1003B00008D10121802000F0DFFA0021802000F028
:1003C000DBFA0AE0A948844207D10121801500F038
:1003D000D3FA0021A01500F0CFFA10BD10B501210D
:1003E000084600F0C9FA0021012000F0C5FA10BD4E
:1003F000F0B500220023002400250026002791F8F4
:1004000003C00CF00F0291F803C01CF0100F03D0D2
:1004100091F802C04CEA0202B1F800C01CF0FF0FD4
:1004200031D0066800242BE04FF0010C0CFA04F5E3
:10043000B1F800C00CEA0503AB4220D1A5004FF093
:100440000F0C0CFA05F7BE4302FA05FC4CEA06064F
:1004500091F803C0BCF1280F06D14FF0010C0CFA43
:1004600004FCC0F814C00AE091F803C0BCF1480FC6
:1004700005D14FF0010C0CFA04FCC0F810C0641C4C
:10048000082CD1D30660B1F800C0BCF1FF0F34DDF9
:10049000466800242EE004F1080C4FF0010E0EFA1D
:1004A0000CF5B1F800C00CEA0503AB4221D1A50060
:1004B0004FF00F0C0CFA05F7BE4302FA05FC4CEAAC
:1004C000060691F803C0BCF1280F05D104F1080C11
:1004D0000EFA0CFEC0F814E091F803C0BCF1480F0E
:1004E00007D104F1080C4FF0010E0EFA0CFEC0F813
:1004F00010E0641C082CCED34660F0BD4FF6FF71AF
:100500000180022181700421C170704702460020E1
:1005100093680B4201D0012000E0002070470146A3
:10052000886880B2704702460020D3680B4201D031
:10053000012000E0002070470146C86880B2704783
:1005400001617047416170470AB1016100E041619A
:100550007047C16070474FF480320A438261816105
:1005600082618269826970470022414B1A684FF6A6
:1005700080731A4042EA00120A433D4B1A607047EA
:100580003C49C8617047F0B50022002300240025D3
:1005900000F00046B6F1004F02D1354EF46901E09B
:1005A000334E7468C0F3034582B200F44016B6F5CA
:1005B000401F08D124F070642D4E766826F07066D6
:1005C0002B4F7E6012E000F48016B6F5801F06D136
:1005D000032606FA05F39C4344F0706406E0460DDA
:1005E000360102FA06F6B44344F0706421B1460DB8
:1005F000360102FA06F6344300F00046B6F1004F29
:1006000002D11B4EF46101E0194E7460F0BD30B5AB
:1006100000228B071C0F0F2303FA04F2144B08333C
:100620008C1053F8244094438D1043F825408C10CF
:1006300053F824308C07240F00FA04F423430C4CA5
:1006400008348D1044F8253030BD0A49DC3108608B
:100650007047000000080140000C014000100140FC
:100660000014014000180140001C0140002001401E
:100670000000014000002042DB48006840F001001B
:10068000D949086008464068D8490840D6494860BA
:1006900008460068D6490840D34908600846006803
:1006A00020F4802008600846406820F4FE0048607E
:1006B0004FF41F0088607047CB49096821F48031EE
:1006C000C94A11601146096821F480211160B0F512
:1006D000803F03D0B0F5802F0ED106E0C2490968F3
:1006E00041F48031C04A116007E0BF49096841F414
:1006F000A021BD4A116000E000BF00BF704710B5E7
:1007000001460022002300204A11012A02D1B64CE2
:10071000236806E0022A02D1B34C236A01E0B24CFE
:10072000636A01F01F02012494401C4201D00120A1
:1007300000E0002010BD70B500240025002600BF99
:100740003120FFF7DCFF0646641CB4F5A06F01D032
:10075000002EF5D03120FFF7D2FF08B1012500E0CF
:100760000025284670BD00219F4A116821F0F8013C
:1007700041EAC001116070479E490860704700223D
:10078000994B5A6822F47C1240EA01031A43964BB3
:100790005A6070479749086670470021924A51682D
:1007A00021F003010143516070478F48406800F019
:1007B0000C00704700218C4A516821F0F001014380
:1007C000516070470021884A516821F4E06101437B
:1007D000516070470021844A516821F4605141EA18
:1007E000C0015160704729B17F4A527A02437E4B63
:1007F0005A7206E07C4A527AC343DBB21A407A4B03
:100800005A7270477B49D831086070470021764A98
:10081000516821F440410143516070470021724A00
:1008200020321170704A82F82010012802D004286A
:100830000AD104E001216C4A2032117005E0052143
:10084000694A2032117000E000BF00BF70476A495A
:10085000086070476449096A0143634A116270473E
:10086000654944390860704730B5002100220023F3
:1008700000245D4D6D6805F00C0121B1042905D0FF
:10088000082923D105E05D4D056022E05B4D056040
:100890001FE0554D6D6805F47012534D6D6805F4F9
:1008A0008033022505EB92421BB9554D5543056037
:1008B0000BE04D4D6D6815F4003F03D0504D55438E
:1008C000056002E04D4D5543056002E04B4D05606B
:1008D00000BF00BF444D6D6805F0F0010909494DA6
:1008E0006C5C0568E54045603F4D6D6805F4E0616E
:1008F000090A444D6C5C4568E54085603A4D6D6879
:1009000005F46051C90A3F4D6C5C4568E540C5601F
:10091000354D6D6805F44041890B3A4D10356C5CDE
:10092000C568B5FBF4F5056130BD29B12E4A5269A1
:1009300002432D4B5A6104E02B4A526982432A4BF1
:100940005A61704729B1284A92690243264B9A613D
:1009500004E0254A92698243234B9A61704729B18A
:10096000214AD2690243204BDA6104E01E4AD2696F
:1009700082431D4BDA61704729B11B4AD26802439A
:10098000194BDA6004E0184AD2688243164BDA60E9
:10099000704729B1144A12690243134B1A6104E0EB
:1009A000114A12698243104B1A617047124940394B
:1009B000086070470F49C86470470B49C871704799
:1009C0000948406A40F08070074948627047014614
:1009D0000020054A92680A4201D0012000E0002070
:1009E0007047014988727047001002400000FFF80C
:1009F000FFFFF6FE000042428004424200127A00ED
:100A000000093D001400002000E0401E0028FCD139
:100A1000704710B500F040F828E000BF01211448ED
:100A2000FFF790FD1348FFF7EFFF00BF01211048CB
:100A3000FFF786FD00BF80210F48FFF783FD0D48BB
:100A4000FFF7E2FF00BF80210B48FFF779FD00BFF1
:100A50004FF480710848FFF775FD0648FFF7D4FF93
:100A600000BF4FF480710448FFF76AFDD5E700002E
:100A7000000C0140FFFF0F00001C0140704700BF49
:100A8000FEE700BFFEE700BFFEE700BFFEE77047DE
:100A9000704770477047000008B501218820FFF7B4
:100AA00051FF0120ADF8000010208DF80300032055
:100AB0008DF8020069460E48FFF79AFC8020ADF8D9
:100AC000000069460B48FFF793FC4FF48070ADF8C7
:100AD000000069460748FFF78BFC01210448FFF737
:100AE0002FFD4FF4C0710348FFF72AFD08BD000039
:100AF000000C0140001C0140064C074D06E0E06878
:100B000040F0010394E8070098471034AC42F6D354
:100B1000FFF712FB3C0B00085C0B000802E008C862
:100B2000121F08C1002AFAD170477047002001E067
:100B300001C1121F002AFBD1704700005C0B0008A6
:100B400000000020280000001C0B0008840B000897
:100B500028000020000400002C0B000800A24A041A
:100B6000000000000000000001020304060708095D
:100B70000000000001020304010203040607080943
:040B8000020406085D
:0400000508000131BD
:00000001FF
