:020000040800F2
:10000000B004002045010008591300085B130008E4
:100010005F13000863130008671300080000000066
:100020000000000000000000000000006B1300084A
:100030006D130008000000006F1300087113000822
:100040005F0100085F0100085F0100085F01000810
:100050005F0100085F0100085F0100085F01000800
:100060005F0100085F0100085F0100085F010008F0
:100070005F0100085F0100085F0100085F010008E0
:100080005F0100085F0100085F0100085F010008D0
:100090005F0100085F0100085F0100085F010008C0
:1000A0005F0100085F0100085F0100085F010008B0
:1000B0005F0100085F0100085F0100085F010008A0
:1000C0005F0100085F0100085F0100085F01000890
:1000D0005F0100085F0100085F0100085F01000880
:1000E0005F0100085F0100085F0100085F01000870
:1000F0005F0100085F0100085F0100085F01000860
:100100005F0100085F0100085F0100085F0100084F
:100110005F0100085F0100085F0100085F0100083F
:100120005F0100085F0100085F0100085F0100082F
:10013000DFF80CD001F03EFE0048004767110008D0
:10014000B00400200648804706480047FEE7FEE767
:10015000FEE7FEE7FEE7FEE7FEE7FEE7FEE7FEE777
:1001600045020008310100080CB500200190009004
:100170006B48006840F480306949086000BF6848F7
:10018000006800F4003000900198401C0190009835
:1001900018B90198B0F5A06FF1D16148006810F46A
:1001A000003F02D00120009001E000200090009864
:1001B000012842D15B48006840F0100059490860AE
:1001C0000846006820F0030008600846006840F018
:1001D000020008605248406851494860084640683B
:1001E00048600846406840F48060486008464068BF
:1001F00020F47C1048600846406840F4E8104860ED
:100200000846006840F08070086000BF44480068FD
:1002100010F0007FFAD04248406820F003004049C7
:1002200048600846406840F00200486000BF3C4813
:10023000406800F00C000828F9D10CBD10B5FFF79C
:1002400093FF10BD10B53648006840F001003449F6
:10025000086008464068344908403149486008460B
:100260000068324908402E4908600846006820F4BA
:10027000802008600846406820F4FE0048604FF483
:100280001F008860FFF7DAFF4FF000602849086020
:1002900010BD10B5002100200022214B5B6803F047
:1002A0000C0121B1042906D0082928D107E0214BEF
:1002B000214C236027E01F4B1F4C236023E0184B89
:1002C0005B6803F47010164B5B6803F48032022302
:1002D00003EB904022B9194B4343174C23600DE0C8
:1002E0000F4B5B6813F4003F04D0144B4343124C94
:1002F000236003E00F4B43430F4C236003E00D4B9F
:100300000D4C236000BF00BF054B5B68C3F30313B4
:100310000B4CE15C084B1B68CB40074C236010BDC5
:1003200000100240002002400000FFF8FFFFF6FE30
:1003300008ED00E000127A000000002000093D00F6
:100340000400002010B50446CA48844208D10121A7
:10035000042000F027FB0021042000F023FB46E0EE
:10036000C548844208D10121082000F01BFB002170
:10037000082000F017FB3AE0C048844208D1012170
:10038000102000F00FFB0021102000F00BFB2EE0EE
:10039000BB48844208D10121202000F003FB00214A
:1003A000202000F0FFFA22E0B648844208D1012163
:1003B000402000F0F7FA0021402000F0F3FA16E0A8
:1003C000B148844208D10121802000F0EBFA0021DD
:1003D000802000F0E7FA0AE0AC48844207D101210E
:1003E000801500F0DFFA0021A01500F0DBFA10BD47
:1003F00010B50121084600F0D5FA0021012000F0D7
:10040000D1FA10BD2DE9F04102460025002600205A
:1004100000230024002791F803C00CF00F0591F889
:1004200003C01CF0100F03D091F802C04CEA050580
:1004300091F800C0BCF1000F31D0146800202BE00F
:100440004FF0010C0CFA00F3B1F800C00CEA0306FF
:100450009E4220D183004FF00F0C0CFA03F7BC43EF
:1004600005FA03FC4CEA040491F803C0BCF1280F20
:1004700006D14FF0010C0CFA00FCC2F814C00AE0DF
:1004800091F803C0BCF1480F05D14FF0010C0CFAF4
:1004900000FCC2F810C0401C0828D1D31460B1F889
:1004A00000C0BCF1FF0F34DD546800202EE000F1E5
:1004B000080C4FF0010808FA0CF3B1F800C00CEA80
:1004C00003069E4221D183004FF00F0C0CFA03F774
:1004D000BC4305FA03FC4CEA040491F803C0BCF1E8
:1004E000280F05D100F1080C08FA0CF8C2F81480A6
:1004F00091F803C0BCF1480F07D100F1080C4FF090
:10050000010808FA0CF8C2F81080401C0828CED365
:100510005460BDE8F0814FF6FF71018002218170C7
:100520000421C17070470246002093680B4201D03D
:10053000012000E0002070470146886880B27047C3
:1005400002460020D3680B4201D0012000E00020C9
:1005500070470146C86880B27047016170474161C9
:1005600070470AB1016100E041617047C1607047A6
:100570004FF480320A4382618161826182698269BB
:10058000704702460020424B18684FF680731840AF
:1005900040EA021008433E4B186070473D49C8616D
:1005A0007047F0B50A46002300240021002500F022
:1005B0000046B6F1004F02D1354EF16901E0344EEC
:1005C0007168C0F3034583B200F44016B6F5401FCE
:1005D00008D121F070612E4E766826F070662C4F9F
:1005E0007E6012E000F48016B6F5801F06D1032667
:1005F00006FA05F4A14341F0706106E0460D3601AC
:1006000003FA06F6B14341F0706122B1460D36019E
:1006100003FA06F6314300F00046B6F1004F02D16E
:100620001B4EF16101E01A4E7160F0BD30B5002241
:100630008B071C0F0F2303FA04F2154B08338C10A1
:1006400053F824309343124C08348D1044F825306D
:1006500023468C1053F824308C07240F00FA04F43E
:1006600023430B4C08348D1044F8253030BD0A4923
:100670000860704700080140000C01400010014074
:100680000014014000180140001C014000200140FE
:100690000000014000002042DC002042DD480068EC
:1006A00040F00100DB49086008464068DA4908402C
:1006B000D849486008460068D8490840D5490860CC
:1006C0000846006820F4802008600846406820F44E
:1006D000FE0048604FF41F0088607047CD490968EC
:1006E00021F48031CB4A11601146096821F4802140
:1006F0001160B0F5803F03D0B0F5802F0ED106E039
:10070000C449096841F48031C24A116007E0C14917
:10071000096841F4A021BF4A116000E000BF00BF9A
:10072000704710B501460022002300204A11012A1B
:1007300002D1B84C236806E0022A02D1B54C236AE4
:1007400001E0B44C636A01F01F02012494401C4292
:1007500001D0012000E0002010BD38B5002000903D
:100760000024002500BF3120FFF7DBFF054600987D
:10077000401C00900098B0F5A06F01D0002DF2D081
:100780003120FFF7CEFF08B1012400E0002420460D
:1007900038BD014600209F4A106820F0F80040EA6A
:1007A000C100106070479E490860704702460020F3
:1007B000984B586820F47C1042EA01031843954B8B
:1007C0005860704796490866704701460020914A74
:1007D000506820F003000843506070478D4840681F
:1007E00000F00C007047014600208A4A506820F053
:1007F000F00008435060704701460020854A506869
:1008000020F4E06008435060704701460020814AB0
:10081000506820F4605040EAC1005060704729B130
:100820007C4A527A02437B4B5A7204E0794A527AEC
:100830008243784B5A7270477A4908607047014684
:100840000020744A506820F44040084350607047CC
:100850000021754A11706F4A82F82010012802D0D9
:10086000042808D103E001216F4A117004E005213A
:100870006D4A117000E000BF00BF70476B4908600F
:1008800070476449096A0143624A116270476749C7
:1008900044390860704730B500210022002400234D
:1008A0005C4D6D6805F00C0121B1042905D00829C3
:1008B00023D105E05E4D056022E05D4D05601FE03F
:1008C000544D6D6805F47012524D6D6805F4803416
:1008D000022505EB92421CB9564D554305600BE0CD
:1008E0004C4D6D6815F4003F03D0524D55430560E3
:1008F00002E04F4D5543056002E04D4D056000BFDD
:1009000000BF444D6D6805F0F00109094A4D6B5C6C
:100910000568DD4045603F4D6D6805F4E061090AFA
:10092000454D6B5C4568DD4085603A4D6D6805F46A
:100930006051C90A404D6B5C4568DD40C560354D6E
:100940006D6805F44041890B3C4D6B5CC568B5FB97
:10095000F3F5056130BD29B12E4A526902432D4B92
:100960005A6104E02B4A526982432A4B5A6170470C
:1009700029B1284A92690243264B9A6104E0254A2C
:1009800092698243234B9A61704729B1214AD26907
:100990000243204BDA6104E01E4AD26982431D4BB8
:1009A000DA61704729B11B4AD2680243194BDA60F9
:1009B00004E0184AD2688243164BDA60704729B1C6
:1009C000144A12690243134B1A6104E0114A126976
:1009D0008243104B1A6170471449403908607047D0
:1009E0000F49C86470470B49C87170470948406A8D
:1009F00040F0807007494862704701460020054A70
:100A000092680A4201D0012000E0002070470149AD
:100A100088727047001002400000FFF8FFFFF6FEEA
:100A200000004242D800424220100240800442426C
:100A300000127A0000093D0014000020240000206C
:100A400010B50446BE48844208D101218014FFF746
:100A5000A9FF0021A014FFF7A5FF16E0B9488442C2
:100A600008D101210014FFF7AAFF00212014FFF78D
:100A7000A6FF0AE0B448844207D10121C013FFF762
:100A80009EFF0021E013FFF79AFF10BD10B5002272
:100A9000028802F441520B884C8823438C882343FC
:100AA000CC8823430C8923434C8923438C892343DB
:100AB000CC8923431A430280838B4FF2FF74234077
:100AC00083830B8A038210BD2DE9F04F85B0054664
:100AD0000C464FF0000902274FF000084FF0010BC1
:100AE0000026B246A88B4FF240010840A88302209E
:100AF0002884B5F81C90A068022801D100BF38E016
:100B0000A08810B94FF0010B01E04FF0020B8D48A7
:100B1000854200D100E000BF6846FFF7BCFEDDF86B
:100B200000A0E088B0F5007F0AD14FEA1A2000EB60
:100B300080004000A168B0FBF1F0401D86B20BE0E0
:100B40004FEA4B10BAFBF0F000EB80004000A168C8
:100B5000B0FBF1F0401D86B20A20B6FBF0F606F0BD
:100B60000108A6EB0800C0F34F074FF6FF7000EA3C
:100B70000828022F01DBFF2F02DD02274FF00008BB
:100B8000E08840EA080038432884A088A189084307
:100B9000618808432188084340F4006040EA09095D
:100BA000A5F81C9005B0BDE8F08F002101804180C0
:100BB0008180C180018141818181C18107210182C0
:100BC00070470021018041808180C18002218160C5
:100BD00000218181704721B1028842F040020280E9
:100BE00004E002884FF6BF731A400280704721B1BB
:100BF000828B42F48062828304E0828B4FF6FF3363
:100C00001A408283704730B5002400230C1101255F
:100C1000A540ABB21AB185881D43858002E0858866
:100C20009D43858030BD1AB183880B43838002E0E9
:100C300083888B4383807047818170470146888910
:100C40007047A1F57E42FF3A04D0028842F48072D8
:100C5000028004E002884FF6FF631A40028070476A
:100C600021B1828842F00402828004E082884FF63B
:100C7000FB731A408280704702884FF2FF731A405C
:100C8000028002880A4302807047018841F4805143
:100C90000180704721B1028842F40052028004E0D2
:100CA00002884DF6FF731A4002807047024600200A
:100CB000012901D0108B00E0908A70470146088A14
:100CC0007047B1F5804F04D1028842F4804202801F
:100CD00004E002884BF6FF731A4002807047024618
:100CE000002013890B4201D0012000E00020704752
:100CF000CA4302817047F0B5024600200024002359
:100D0000002501F00F070126BE40B4B20B110126E9
:100D10009E40B3B2968806EA03051689264202D0A1
:100D20000DB1012000E00020F0BD10B5002201F05F
:100D30000F040123A3409AB2D343038110BD0000E6
:100D40000030014000380040003C004010B504462F
:100D5000FB48844209D101218803FFF723FE0021CB
:100D60004FF48040FFF71EFE32E0F648844209D17E
:100D700001214804FFF723FE00214FF40030FFF764
:100D80001EFE25E0F048844209D101218804FFF7C6
:100D900016FE00214FF48020FFF711FE18E0EB480B
:100DA000844209D10121C804FFF709FE00214FF454
:100DB0000020FFF704FE0BE0E548844208D1012142
:100DC0000805FFF7FCFD00214FF48010FFF7F7FD49
:100DD00010BD2DE9F04786B005460E460024A24618
:100DE00000BFA1460027B08900B100BF2F462C8A62
:100DF0004CF6FF700440F08804432C82AC894EF618
:100E0000F3100440B08831890843718908430443D2
:100E1000AC81AC8A4FF6FF400440B0890443AC82F9
:100E200001A8FFF738FDC648874202D1DDF810A0BF
:100E300001E0DDF80CA0A88910F4004F08D00AEBFF
:100E4000CA0000EB0A1031684900B0FBF1F807E076
:100E50000AEBCA0000EB0A1031688900B0FBF1F818
:100E60006420B8FBF0F004012009642101FB108923
:100E7000A88910F4004F08D0322000EBC900B0FB65
:100E8000F1F000F00700044308E0322000EB091005
:100E90006421B0FBF1F000F00F0004432C8106B098
:100EA000BDE8F0874FF41651016000218180C180B8
:100EB00001810C21418100218181704710B50246DA
:100EC0000020108A4FF2FF0318400B884C88234300
:100ED0008C882343CC8823431843108210BD002103
:100EE000018041808180C180704721B1828942F4B4
:100EF0000052828104E082894DF6FF731A4082819C
:100F00007047F0B503460024002600250020A1F517
:100F100010676A3F00D100BF1846C1F3421401F0C8
:100F20001F06012707FA06F5012C01D10C3004E059
:100F3000022C01D1103000E014301AB107682F43A1
:100F4000076002E00768AF430760F0BD1AB1838A0B
:100F50000B43838202E0838A8B4383827047028A39
:100F60004FF6F0731A400282028A0A4302827047E7
:100F700082894FF2FF731A40828182890A438281FB
:100F8000704721B1828942F00202828104E08289A5
:100F90004FF6FD731A4082817047028A4FF6DF7365
:100FA0001A400282028A0A430282704721B1028AF1
:100FB00042F48042028204E0028A4BF6FF731A4038
:100FC00002827047C1F30802828070470146888818
:100FD000C0F308007047818941F0010181817047A9
:100FE000028BD2B20283028B42EA01220283704753
:100FF000028B02F47F420283028B0A430283704712
:1010000021B1828A42F02002828204E0828A4FF675
:10101000DF731A408282704721B1828A42F0100247
:10102000828204E0828A4FF6EF731A408282704710
:1010300021B1828A42F00802828204E0828A4FF65D
:10104000F7731A408282704721B1828942F40042CC
:10105000828103E08289C2F30E028281704721B14E
:10106000828A42F40062828204E0828A4FF2FF7335
:101070001A4082827047828A4FF6FB731A4082823E
:10108000828A0A438282704721B1828A42F0020238
:10109000828204E0828A4FF6FD731A408282704792
:1010A00002460020B1F5007F00D100BF13880B423B
:1010B00001D0012000E00020704701F40072B2F579
:1010C000007F00D100BFCA430280704770B502465E
:1010D0000024002300250020A1F510666A3E00D1FF
:1010E00000BFC1F3421501F01F03012606FA03F306
:1010F000012D02D19689334006E0022D02D1168AD5
:10110000334001E0968A33400C12012606FA04F4BB
:101110001688344013B10CB1012000E0002070BDEE
:1011200010B500220023A1F510646A3C00D100BF75
:101130000A1201249440A3B2DC43048010BD0000D5
:10114000003801400044004000480040004C00408E
:101150000050004001B502E00098401E0090009849
:101160000028F9D108BD00F005F944A000F044FEC4
:1011700000F05AF900F026FB4A490860C820FFF742
:10118000E9FF00F0FAFA4849086046480268084654
:10119000016846A000F030FE43480068514988428B
:1011A00052D151A000F028FE01220021574800F042
:1011B000BEFA56480078CC2814D138220121544870
:1011C00000F0B5FA00240AE0514800EBC400D0E971
:1011D00000532A464FA000F00FFE601CC4B2072C3B
:1011E000F2DB34E0CC2049490870002000F0B0F96F
:1011F00001220021454800F009FA00240DE02046B4
:1012000000F0F7FB0546474A474B00F04BFB404ACE
:1012100002EBC40203C2601CC4B2072CEFDB38220D
:1012200001213B4800F0F2F900240AE0384800EBC5
:10123000C400D0E900532A463CA000F0DDFD601C4C
:10124000C4B2072CF2DB02E03CA000F0D5FD00F0B8
:101250000BFB00BFFEE710B5034607E018780C78DB
:10126000A04201D0002010BD5B1C491C1000A2F15F
:101270000104A2B2F2D10120F5E700000D0A20D549
:10128000E2CAC7D2BBB8F6384DB4AED0D0666C61F6
:1012900073682857323551363429CAB5D1E9200D43
:1012A0000A0000009C000020A00000200D0A20463B
:1012B0006C617368494420697320307825582C206C
:1012C000204D616E75666163747572657220446548
:1012D0007669636520494420697320307825580D6C
:1012E0000A0000001740EF000D0A20BCECB2E2B586
:1012F000BDBBAAB0EEB4AED0D0666C6173682057A7
:10130000323551363420210D0A00000098000020AB
:10131000280000200D0A207278203D20254C462010
:101320000D0A00009A9999999999B93F0D0A20746C
:1013300078203D20254C46200D0A00000D0A20BBD8
:10134000F1C8A1B2BBB5BD2057323558363420495B
:1013500044210A0D00000000704700BFFEE700BFF7
:10136000FEE700BFFEE700BFFEE77047704770472B
:101370007047000000B585B0012144F20400FFF77A
:10138000F7FA4FF40070ADF8100018208DF8130034
:1013900003208DF8120004A92148FFF733F84FF419
:1013A0008060ADF8100004208DF8130004A91C48DB
:1013B000FFF728F84FF4E13000900020ADF804006A
:1013C000ADF80600ADF80800ADF80C000C20ADF843
:1013D0000A0069461348FFF7FCFC01211148FFF79A
:1013E00084FD05B000BD70B504460D46E1B20D4860
:1013F000FFF7E8FD00BF80210A48FFF751FE0028F3
:10140000F9D0204670BD10B5044600BF2021054824
:10141000FFF746FE0028F9D00248FFF7D7FD10BDC0
:10142000000801400038014000B587B001212420A8
:10143000FFF79EFA01210803FFF79AFA2020ADF882
:10144000040003208DF8060018208DF8070001A97C
:10145000F748FEF7D7FF4020ADF8040001A9F44893
:10146000FEF7D0FF8020ADF8040001A9F048FEF798
:10147000C9FF1020ADF804008DF8070001A9EC4861
:10148000FEF7C0FF1021EA48FFF767F80020ADF82B
:1014900008004FF48270ADF80A000020ADF80C008F
:1014A0000220ADF80E000120ADF810004002ADF8AA
:1014B00012000820ADF814000020ADF81600072037
:1014C000ADF8180002A9DB48FFF7E0FA0121D9487E
:1014D000FFF781FB07B000BD10B5044600BF022135
:1014E000D448FFF7FCFB0028F9D02146D148FFF78C
:1014F000A3FB00BF0121CF48FFF7F1FB0028F9D083
:10150000CC48FFF79BFBC0B210BD10B500241021E2
:10151000C748FFF724F80520FFF7DEFF00BFFF20D4
:10152000FFF7DAFF044614F0010FF8D11021C0488C
:10153000FFF713F810BD10B51021BD48FFF70FF8E5
:101540000620FFF7C9FF1021B948FFF706F810BDC4
:1015500010B50446FFF7EFFFFFF7D7FF1021B4489F
:10156000FEF7FDFF2020FFF7B7FFC4F30740FFF7AA
:10157000B3FFC4F30720FFF7AFFFE0B2FFF7ACFF04
:101580001021AB48FEF7E9FFFFF7BFFF10BD10B514
:10159000FFF7D1FF1021A648FEF7E1FFC720FFF7B4
:1015A0009BFF1021A248FEF7D8FFFFF7AEFF10BD4A
:1015B00070B505460C461646FFF7BDFF10219C4846
:1015C000FEF7CDFF0220FFF787FFC4F30740FFF7C8
:1015D00083FFC4F30720FFF77FFFE0B2FFF77CFF34
:1015E000B6F5807F01DD4FF4807603E02878FFF7C1
:1015F00073FF6D1C3000A6F101018EB2F6D11021EF
:101600008B48FEF7AAFFFFF780FF70BD2DE9F05F62
:1016100007460E4614464FF00008C146C246002554
:10162000AB4606F0FF0ACAF10000C5B22046E1173A
:1016300004EB1161C1F30728E11704EB11610912F2
:10164000A4EB012101F0FF09BAF1000F20D1B8F19C
:10165000000F05D1224631463846FFF7A9FF64E066
:1016600009E04FF4807231463846FFF7A1FF06F5D6
:10167000807607F580775FEA0800A8F1010101F0A4
:10168000FF08EED14A4631463846FFF791FF4CE05D
:10169000B8F1000F18D1A94510DDA9EB050000F045
:1016A000FF0B2A4631463846FFF782FF2E442F446F
:1016B0005A4631463846FFF77BFF36E02246314630
:1016C0003846FFF775FF30E0601B84B22046E11713
:1016D00004EB1161C1F30728E11704EB1161091252
:1016E000A4EB012101F0FF092A4631463846FFF7F5
:1016F0005FFF2E442F4409E04FF480723146384694
:10170000FFF756FF06F5807607F580775FEA080059
:10171000A8F1010101F0FF08EED1B9F1000F04D0EA
:101720004A4631463846FFF743FFBDE8F09F70B5A3
:1017300005460C46164610213D48FEF710FF0320D3
:10174000FFF7CAFEC4F30740FFF7C6FEC4F3072045
:10175000FFF7C2FEE0B2FFF7BFFE04E0FF20FFF795
:10176000BBFE28706D1C3000A6F101018EB2F5D1D0
:1017700010212F48FEF7F1FE70BD2DE9F041002445
:1017800000250026002710212948FEF7E8FE9F20AB
:10179000FFF7A2FEFF20FFF79FFE0546FF20FFF7A1
:1017A0009BFE0646FF20FFF797FE074610212048C4
:1017B000FEF7D3FE280440EA062040EA070420464C
:1017C000BDE8F08110B5002410211948FEF7C7FECE
:1017D000AB20FFF781FEFF20FFF77EFEFF20FFF723
:1017E0007BFEFF20FFF778FEFF20FFF775FE044623
:1017F00010210F48FEF7B1FE204610BD10B504467B
:1018000010210B48FEF7ABFE0320FFF765FEC4F383
:101810000740FFF761FEC4F30720FFF75DFEE0B26B
:10182000FFF75AFE10BD10B5FF20FFF755FE10BDA3
:10183000000801400030014010B5044600BF0221FD
:101840001648FFF74CFA0028F9D021461348FFF755
:10185000F3F900BF01211148FFF741FA0028F9D040
:101860000E48FFF7EBF910BD10B510210C48FEF73C
:1018700076FEB920FFF730FE10210948FEF76DFE15
:1018800010BD10B510210648FEF769FEAB20FFF72A
:1018900023FE10210248FEF760FE10BD003001401B
:1018A000000801402DE9FE4F804681EA0300C00F89
:1018B0000C46009021F0004123F00045B8EB0200F7
:1018C000A94105D24046214690461C460B46024699
:1018D00023F00040104304D14046214603B0BDE848
:1018E000F08F270DC7F30A00C3F30A510290401A84
:1018F0000190402866DAC3F3130040F4801B00987F
:10190000924620B10023D2EB030A63EB0B0B019844
:101910005946C0F14002504600F0BFF806460D4659
:1019200050465946019A00F0C7F810EB0800614193
:10193000002487EA115284EAE7731A433BD0009AE5
:101940003AB3019A012A4FEA075210DC001B61EBFF
:1019500002014FF0004202EA0752CDE90042001CAA
:1019600041F5801132462B4600F0C5F8B6E7001B62
:1019700061EB0201001C41F5801300185B41201847
:10198000A2F5001747EB030140EAD570B6196D4187
:1019900011E06D084FEA360645EAC0754FEA075276
:1019A000001B61EB0201001C41F5801149084FEA60
:1019B00030000019514132462B4603B0BDE8F04FCC
:1019C00000F08CB80098012240000023D0EB020206
:1019D00063EBE073009821464FEAE074B8EB000037
:1019E00061EB0401E9E783F000435BE781F000412C
:1019F00058E70EB540F2334102910021CDE90011C4
:101A00000A460B4600F077F803B000BD30B50B4630
:101A1000014600202022012409E021FA02F59D421E
:101A200005D303FA02F5491B04FA02F52844151EF2
:101A3000A2F10102F1DC30BD2DE9F05F0546002086
:101A400092469B4688460646814640241BE028462F
:101A500041464746224600F0BFF953465A46C01A4F
:101A6000914110D311461846224600F016F82D1A5F
:101A700067EB01084F4622460120002100F00DF8D7
:101A800017EB00094E41201EA4F10104DFDC48469B
:101A900031462A464346BDE8F09F202A04DB203A1F
:101AA00000FA02F1002070479140C2F1200320FAB1
:101AB00003F3194390407047202A06DBCB17203AE6
:101AC00041FA02F043EAE07306E041FA02F3D04043
:101AD000C2F12002914008431946704710B5002B0F
:101AE00008DA401C41F1000192185B411A4301D110
:101AF00020F0010010BD2DE9F04D92469B4611B13A
:101B0000B1FA81F202E0B0FA80F220329046FFF79B
:101B1000C4FF04460F4640EA0A0041EA0B0153465F
:101B20005A46084303D120463946BDE8F08D114698
:101B300053EA010015D0C8F14002504600F04CF9BC
:101B400005460E46504659464246FFF7A6FF084353
:101B500001D0012000E00020054346EAE0762C4356
:101B600037430A984FEA4453A0EB08004FEAD424C5
:101B70000A304FF0000244EA47544FEAD72502D515
:101B800000200146D1E7010510196941DDE908454A
:101B900000196941BDE8F04DA0E72DE9FE4F81EA4B
:101BA000030404F0004421F0004100944FF0000BC6
:101BB00023F0004350EA010402D052EA030404D1A6
:101BC0000020014603B0BDE8F08FC3F30A54C1F30F
:101BD0000A552C44A4F2F3340194A0FB0254C1F33F
:101BE000130141F48011C3F3130343F4801301FB89
:101BF000024400FB034E840A970A44EA815447EAF0
:101C00008357A4FB076802958D0A05FB07854FEAF9
:101C1000932C04FB0C542705029D4FEA065847EA13
:101C20001637B5EB08056EEB070C870E920E47EAE8
:101C3000811742EA8312A7FB0201B6EB0B0164EBAA
:101C400000042B0D43EA0C335E1844EB1C50DA46BB
:101C50005146E7FB0201C5F313044FEA0B3343EA95
:101C600014534FEA0432019C43EA0603A4F10C0426
:101C70000294009CCDE900B4FFF73DFFA2E72DE9F7
:101C8000F04D81EA030404F0004B21F000451446B6
:101C90004FF0000A23F0004150EA050220D054EA38
:101CA00001021DD0C5F30A570246C5F31303C1F361
:101CB0001300C1F30A5640F4801543F48013A7EBD8
:101CC0000608101BD64608F2FD3873EB050002D358
:101CD00008F1010801E092185B41B8F1000F03DA46
:101CE00000200146BDE8F08D00204FF4801106462B
:101CF00084460EE0171B73EB050705D3121B63EB3D
:101D0000050306434CEA010C49084FEA30009218DB
:101D10005B4150EA0107EDD152EA030012D082EA9A
:101D2000040083EA0501084303D100224FF0004379
:101D300008E0101BAB4102D20122002302E06FF049
:101D4000010253101AEB06004CEB085110EB0A008D
:101D500041EB0B01BDE8F04DFFF7C0BEC1F30A52E5
:101D6000C1F3130140F2FF3341F480119A4202DAC9
:101D700000200146704740F233439A42A2F23342B8
:101D800002DC524200F028B8FFF787BE30B50029C8
:101D900004DB4FF00044404264EB0101002B04DB04
:101DA0004FF00044524264EB0303994208BF904253
:101DB00030BD0000064C074D06E0E06840F001032E
:101DC00094E8070098471034AC42F6D3FEF7B4F914
:101DD000DC260008FC260008202A04DB203A21FA31
:101DE00002F00021704721FA02F3D040C2F1200234
:101DF00091400843194670470FB4054B10B503A92D
:101E0000044A029800F0C6F810BC5DF814FB00000C
:101E1000E7130008A800002002E008C8121F08C14C
:101E2000002AFAD170477047002001E001C1121F5B
:101E3000002AFBD1704700002DE9FF5FDDE9022099
:101E4000010DDDF838B0024310D10F9801244CA2E7
:101E5000012808D0002100980F9BC0E90021C0E9AB
:101E60000243BDE8FF9F6FEA0B01F4E7A1F2FF31E7
:101E700044F6105041430D140F9801280ED0A5EBE5
:101E80000B00401C4FF000043E4EDFF8FC90B0F118
:101E9000000AA04605DACAF1000717E0CBF10000FE
:101EA000F0E7074612E0F80707D0224633464046DF
:101EB0004946FFF772FE8046894622463346104661
:101EC0001946FFF76AFE04460E467F10002FEAD13E
:101ED000DDE90201BAF1000F42464B4602DAFFF794
:101EE0005CFE01E0FFF7CBFE04460E460022274BC6
:101EF000FFF74CFF03D84FF0FF30014607E0002208
:101F0000234B20463146FFF7CDFCFFF727FF102477
:101F100009E0002C0ADB0A220023FFF78DFD019B5C
:101F200030321A55641E50EA0102F2D1641C019A43
:101F3000C4F1110314440F9A012A09D00122084365
:101F400001D15B450FDD4FF0000205F101050DE009
:101F5000084303D1A3EB0B056D1E09E000204FF0F1
:101F6000110B0F9088E701DA00226D1E002A83D042
:101F700000980F99C0E90231C0E9004571E70000FF
:101F800030000000000024400000F03F0000F0435B
:101F90000000E03F2DE9FF4F95B09B46894606467D
:101FA000002512E2252878D10024761CF94A27461C
:101FB000012105943378203B01FA03F0104202D04E
:101FC0000443761CF6E730782A2811D06FF02F03EF
:101FD0003078A0F13002092A16D8059A44F002049C
:101FE00002EB820203EB42021044761C0590EFE7FD
:101FF00059F8042B0592002A03DA504244F40054A5
:10200000059044F00204761C30782E2816D116F87C
:10201000010F44F004042A280DD06FF02F0230780D
:10202000A0F13003092B09D807EB870302EB430328
:10203000C718761CF3E759F8047B761C30786C28B7
:102040000FD006DC4C2817D068280DD06A2814D190
:1020500004E0742810D07A280FD10DE044F4001465
:102060000AE044F4801401E044F44014727882429F
:1020700002D1761C04F58014761C307866280BD0CB
:1020800013DC582877D009DC002875D04528F6D015
:102090004628F4D047281AD19FE118E0632835D0AC
:1020A000642879D0652812D197E1702873D008DCB4
:1020B0006728F1D069286FD06E280DD06F2806D11F
:1020C000B5E073282CD0752875D0782874D05A467E
:1020D000179990476D1C76E1C4F30250022809D08D
:1020E00003280DD0D9F8001004280DD00D6009F197
:1020F000040968E1D9F80010EA17C1E90052F6E7CF
:10210000D9F800100D80F2E70D70F0E719F8041B04
:102110008DF8001000208DF80100EA46012003E050
:1021200059F804AB4FF0FF3061074FF0000102D4C3
:102130000DE008F101018846B9420FDA8045F8DB6D
:102140001AF808100029F4D108E008F101018846C6
:102150008142FADB1AF808100029F6D105985B468F
:10216000A0EB080721463846179A00F09EFA28444B
:1021700000EB080507E04DE02BE10DE01AF8010B3C
:102180005A4617999047B8F10108F7D25B462146A5
:102190003846179A14E142E00A220092C4F3025230
:1021A0004FF0000A022A08D059F804CB032A4FEA5C
:1021B000EC710AD00DE029E02AE009F1070121F0D5
:1021C0000702F2E802C1914609E00FFA8CFC4FEADF
:1021D000EC71042A03D14FFA8CFC4FEAEC71002910
:1021E00007DA0A460021DCF1000C61EB02012D2226
:1021F00002E0220504D52B228DF80420012203E001
:10220000E20701D02022F7E7904653E00A2102E0DE
:1022100010220DE010214FF0000A00910BE0102277
:102220004FF0000A44F004040827009203E008225B
:102230004FF0000A0092C4F30252022A05D059F866
:1022400004CB0021032A08D009E009F1070121F09D
:102250000702F2E802C1914605E01FFA8CFC042A4D
:1022600001D10CF0FF0C4FF00008220722D5702896
:1022700027D0009B83F0100353EA0A0309D15CEADC
:10228000010206D030228DF804208DF805000222CC
:102290009046009B83F0080353EA0A030AD15CEAE4
:1022A000010201D1620705D530228DF804204FF0DC
:1022B00001087F1E582809D037A003900EA802906D
:1022C00013E040228DF804200122E1E737A0F4E773
:1022D00053466046009AFFF7AFFB84460398825C42
:1022E0000298A0F10100029002705CEA0100EFD1B7
:1022F000029806A9A1EB000000F1200A600702D5B0
:1023000024F4803400E00127574502DDA7EB0A00E2
:1023100000E0002000EB0A01009005984144A0EB8A
:1023200001000590E00306D45B462146179A059804
:1023300000F0BBF90544002706E001A85A46C05D3D
:10234000179990476D1C7F1C4745F6DBE0030CD5C1
:102350005B462146179A059800F0A7F9054404E06A
:1023600030205A46179990476D1C0099481E0090DE
:102370000029F5DC08E0029802995A460078491CC9
:102380000291179990476D1CBAF10001AAF1010A58
:10239000F1DC6BE109280100303132333435363756
:1023A00038396162636465660000000030313233A1
:1023B0003435363738394142434445460000000041
:1023C00000F060F9054406F10106307800287FF43A
:1023D000E9AD19B02846BDE8F08F620700D40627A2
:1023E00009F1070222F0070CFCE80223E14603F0A2
:1023F00000485FEA080C02D00FF27C2C0DE05FEA87
:10240000045C02D50FF2742C07E05FEAC47C02D0B2
:102410000FF26C2C01E0AFF2700C4FF0FF3823F09C
:102420000043CDF850C065280CD006DC452809D003
:1024300046281DD047283ED13EE0662818D06728A0
:1024400039D139E00021112F01DB112000E0781C87
:10245000CDE9000106A90EA8FFF7EEFCDDE90F01AA
:102460000E9A03910021009207F1010A04914EE0B7
:102470004FF000400097CDE9011006A90EA8FFF724
:10248000DBFCDDE90F0203920E9B11990022DDF8BF
:102490000CA00093049219B907F1010100EB010AA5
:1024A000B7EB0A0004D4C0F1FF3007F1010A049031
:1024B000AAEB0700019046E0012F00DA0127002176
:1024C000112F01DD112000E03846CDE9000106A9F9
:1024D0000EA8FFF7B1FCDDE90F010E9A0391002170
:1024E00004910092BA4621070CD40399514500DAB1
:1024F0008A46BAF1010F05DD009AAAF10101515C8B
:10250000302908D0B84202DA10F1040F06DA0121AE
:10251000CDE9011017E0AAF10101E9E7002805DC87
:10252000049901440491AAEB000102E0411C5145C9
:1025300000DD8A460499A0EB010000F10100019042
:102540004FF000400290200704D40198504501DB71
:10255000CDF8048000208DF84F0002980DF14F0750
:10256000B0F1004F25D02B200E9002984FF00208BA
:1025700000280CDA404202902D200E9007E00A213C
:102580000298FFF743FA3031029007F8011DB8F1C5
:102590000001A8F10108F2DC02980028EFD1791EB1
:1025A0000E980870307800F0200040F0450007F8E1
:1025B000020D12A8A0EB070000F10708149800789C
:1025C00000B1012000EB0A01019801EBE0710598D0
:1025D0004144A0EB0100A0F101000590E00306D406
:1025E0005B462146179A059800F05FF80544149859
:1025F000007820B15A461799904705F10105E0038C
:1026000023D55B462146179A059800F04EF80544FD
:102610001BE00498002807DBDDE90301884203DDA5
:102620000098405C179901E0179930205A4690476E
:1026300004986D1C401C04900198401E019004D128
:102640002E205A46179990476D1CBAF10001AAF145
:10265000010ADEDC05E017F8010B5A46179990478E
:102660006D1CB8F10001A8F10108F4DC5B462146BD
:10267000179A0598A4E600002D0000002B0000002A
:10268000200000002DE9F041044600251E461746B3
:10269000880405D406E039462020B04705F101053D
:1026A000641EF8D52846BDE8F0812DE9F0410446C6
:1026B00000251E469046C80301D5302700E020279C
:1026C000880405D506E041463846B04705F10105C6
:1026D000641EF8D52846BDE8F0810000FC260008FD
:1026E00000000020AC000000181E0008A827000809
:1026F000AC00002004040000281E000800A24A04C8
:1027000000000000000000000102030406070809A1
:102710000000000001020304010203040607080987
:102720000204060800000000000000000000000095
:102730000000000000000000000000000000000099
:102740000000000000000000000000000000000089
:102750000000000000000000000000000000000079
:102760000000000000000000000000000000000069
:102770000000000000000000000000000000000059
:102780000000000000000000000000000000000049
:102790000000000000000000000000000000000039
:0827A000000000000000000031
:0400000508000131BD
:00000001FF
