:020000040800F2
:1000000098A70020450100084D0100084F01000895
:1000100051010008530100085501000800000000CC
:100020000000000000000000000000005701000870
:100030005901000800000000AB01000875AB000882
:1000400059E400082BB800088DBF000845B9000826
:100050008522000841B90008C9210008F1210008E3
:10006000F3210008F5210008F7210008D911000844
:10007000DB110008DD110008DF110008E1110008A4
:10008000E3110008E5110008A10B0008E7C0000813
:10009000E9C00008CB100008CD100008F9210008C5
:1000A000BFC00008C5C00008C3C00008C1C0000828
:1000B000C7C00008C9C00008CBC0000829860008D6
:1000C000278600082D8600082B86000841BE000800
:1000D00043BE0008DFC00008E1C00008E3C000081C
:1000E000CD21000843B90008E5C00008D3C00008CE
:1000F000D9C00008D7C00008D5C00008A30B00086D
:10010000712B00084DBC0008CDC0000845BE00089A
:10011000DBC00008DDC00008CFC00008D1C0000867
:10012000E7110008E9110008EB110008ED110008C3
:10013000DFF80CD000F0F4FC0048004745590108F6
:1001400098A700200648804706480047FEE7FEE7DC
:10015000FEE7FEE7FEE7FEE7FEE7FEE7FEE7FEE777
:100160002DBF000831010008EFF3108072B6704710
:1001700080F3108870471D484FF0FF010170002088
:1001800080F309881A48012101701A484FF0805104
:10019000016062B6FEE717484FF08051016070477A
:1001A00014484FF080510160704772B6EFF3098038
:1001B00028B1203880E8F00F0F490968086000B5C1
:1001C0000E4880475DF804EB0D480E490A7802702E
:1001D00009480D490A680260106890E8F00F203065
:1001E00080F309884EF0040E62B6704722ED00E0FD
:1001F0004E00002004ED00E054000020B9A60008E5
:1002000047000020480000205C0000200649074A03
:100210000868504343F239021044086040087047B0
:100220000149086070470000B80300206D4EC641C8
:1002300010B5431A934209D28318881803E010F8C6
:10024000011D03F8011D521EF9D210BD40EA010341
:100250009B0703D009E008C9121F08C0042AFAD27C
:1002600003E011F8013B00F8013B521EF9D210BD2A
:10027000D2B201E000F8012B491EFBD270470022E8
:10028000F6E710B513460A4604461946FFF7F0FF95
:10029000204610BD421E12F8013F002BFBD111F881
:1002A000013B02F8013B002BF9D17047421C10F8CA
:1002B000011B0029FBD1801A704730B5044600208D
:1002C000034600E05B1C934203D2E05CCD5C401B24
:1002D000F8D030BD034611F8012B00F8012B002A9D
:1002E000F9D118467047F0B480EA0102D40F4200F9
:1002F000B2EB410F02D20246084611464A0042D0F4
:10030000C30DDDB2C1F3C752AD1A202D35DAC1F3EA
:10031000160141F4000204B15242C5F1200602FA6E
:1003200006F12A411044B3EBD05F23D0C4B1012DB4
:10033000A0EBC35009DCF0BC4FF0004202EAC3520C
:1003400000F50000DBB200F0F7BA400000F1807069
:1003500000EBC350A0F1807040EAD170490009E081
:10036000490841EAC071A0EBC35000F50000400805
:1003700000EBC350F0BC00F0D6BA6142012202EBA0
:100380004101001BF6E7F0BC704781F00041AAE78D
:1003900080F00040A7E780EA010210B502F00043B8
:1003A000400026D04A0023D04FEA106101EB1261D1
:1003B000C0F35600C2F3560240F4000042F40002BB
:1003C000A0FB0220A1F17F014FEA0040140401D0FC
:1003D00000F1010050EA124001D44000491EC2B2AF
:1003E0000C0604EBD010401C4008802A02D003E029
:1003F000002010BD20F00100002900DA0020184381
:1004000010BD30B480EA010202F0004530F0004235
:1004100021F0004015D0A0B1C0F3C753C2F3C754B8
:10042000C2F31601C0F31600E41A41F4000140F4CF
:1004300000027D34914201D3641C00E04900002C8D
:1004400002DA30BC002070474FF4000000239142D4
:1004500001D3891A034340084FEA4101F7D151B152
:10046000914202D14FF0004105E002D24FF001016C
:1004700001E06FF0010103EBC450284430BC00F0F0
:1004800052BA2DE9FE4F804681EA0300C00F0C46A8
:10049000009021F0004123F00045B8EB0200A94193
:1004A00005D24046214690461C460B46024623F0A4
:1004B0000040104304D14046214603B0BDE8F08F10
:1004C000270DC7F30A00C3F30A510290401A0190A6
:1004D000402866DAC3F3130040F4801B009892466C
:1004E00020B10023D2EB030A63EB0B0B01985946B2
:1004F000C0F14002504600F0E5F906460D46504670
:100500005946019A00F0FDF910EB08006141002402
:1005100087EA115284EAE7731A433BD0009A3AB350
:10052000019A012A4FEA075210DC001B61EB02011D
:100530004FF0004202EA0752CDE90042001C41F5AB
:10054000801132462B4600F031FAB6E7001B61EB12
:100550000201001C41F5801300185B412018A2F530
:10056000001747EB030140EAD570B6196D4111E061
:100570006D084FEA360645EAC0754FEA0752001B80
:1005800061EB0201001C41F5801149084FEA30007F
:100590000019514132462B4603B0BDE8F04F00F040
:1005A000F8B90098012240000023D0EB020263EB6F
:1005B000E073009821464FEAE074B8EB000061EB6D
:1005C0000401E9E783F000435BE781F0004158E76D
:1005D0002DE9FE4F81EA030404F0004421F00041BC
:1005E00000944FF0000B23F0004350EA010402D0C6
:1005F00052EA030404D10020014603B0BDE8F08FA5
:10060000C3F30A54C1F30A552C44A4F2F334019401
:10061000A0FB0254C1F3130141F48011C3F313038F
:1006200043F4801301FB024400FB034E840A970A43
:1006300044EA815447EA8357A4FB076802958D0A70
:1006400005FB07854FEA932C04FB0C542705029DFC
:100650004FEA065847EA1637B5EB08056EEB070C6C
:10066000870E920E47EA811742EA8312A7FB020126
:10067000B6EB0B0164EB00042B0D43EA0C335E1860
:1006800044EB1C50DA465146E7FB0201C5F3130464
:100690004FEA0B3343EA14534FEA0432019C43EA16
:1006A0000603A4F10C040294009CCDE900B400F010
:1006B0007DF9A2E72DE9F04D81EA030404F0004B37
:1006C00021F0004514464FF0000A23F0004150EAA3
:1006D000050220D054EA01021DD0C5F30A57024694
:1006E000C5F31303C1F31300C1F30A5640F4801598
:1006F00043F48013A7EB0608101BD64608F2FD381A
:1007000073EB050002D308F1010801E092185B4188
:10071000B8F1000F03DA00200146BDE8F08D00209B
:100720004FF48011064684460EE0171B73EB050755
:1007300005D3121B63EB050306434CEA010C490881
:100740004FEA300092185B4150EA0107EDD152EABE
:10075000030012D082EA040083EA0501084303D1B2
:1007600000224FF0004308E0101BAB4102D20122EF
:10077000002302E06FF0010253101AEB06004CEB6D
:10078000085110EB0A0041EB0B01BDE8F04D00F001
:1007900000B9C10F80EAE0700844CA07962300211F
:1007A00000F0CAB80EB5C10F80EAE0700844CA076D
:1007B000002140F233438DE80E000A460B4600F05C
:1007C000F5F803B000BD0EB540F2334102910021AF
:1007D000CDE900110A460B4600F0E8F803B000BD71
:1007E00000F0004220F00040C10DC0F3160040F4BC
:1007F00000007F2901DA00207047962903DCC1F14F
:100800009601C84001E096398840002AF4D0404261
:10081000704770B5C1F30A5201F000450024C1F3DE
:10082000130140F2FF3341F480119A4201DA0020B3
:1008300070BD40F233439A42A2F2334203DC52428B
:1008400000F04FF800E090402C43F1D0404270BDE2
:1008500000F0004230F000400AD0C10D01F5607197
:10086000C0F3160042EA0151C20840071143704725
:1008700000200146704701F0004330B421F00041F0
:1008800050EA010206D00A0DA2F56072C1F313010D
:10089000002A02DC30BC00207047440F44EAC10447
:1008A000C100E01830BC00EBC25000F03CB80000C2
:1008B000002801DBC0F10040002901DBC1F100414B
:1008C00081427047202A04DB203A00FA02F100201E
:1008D00070479140C2F1200320FA03F3194390407E
:1008E0007047202A04DB203A21FA02F000217047E9
:1008F00021FA02F3D040C2F1200291400843194688
:100900007047202A06DBCB17203A41FA02F043EA6F
:10091000E07306E041FA02F3D040C2F120029140B8
:100920000843194670470029A8BF7047401C49007A
:1009300008BF20F00100704710B4B0FA80FC00FA44
:100940000CF050EA010404BF10BC704749B1CCF16F
:10095000200421FA04F411FA0CF118BF01212143FB
:100960000843A3EB0C01CB1D0106000A002BBEBF00
:10097000002010BC704700EBC35010440029A4BFF6
:1009800010BC7047401C490008BF20F0010010BC9B
:10099000704710B5002B08DA401C41F10001921895
:1009A0005B411A4301D120F0010010BD2DE9F04D4B
:1009B00092469B4611B1B1FA81F202E0B0FA80F2A0
:1009C00020329046FFF77EFF04460F4640EA0A00B9
:1009D00041EA0B0153465A46084303D120463946A3
:1009E000BDE8F08D114653EA010015D0C8F1400270
:1009F0005046FFF776FF05460E465046594642469A
:100A0000FFF760FF084301D0012000E0002005430C
:100A100046EAE0762C4337430A984FEA4453A0EB6A
:100A200008004FEAD4240A304FF0000244EA475449
:100A30004FEAD72502D500200146D1E7010510195C
:100A40006941DDE9084500196941BDE8F04DA0E7BD
:100A500070B521F0004303430CD0C1F30A550024C4
:100A6000D5EB040564EB0403D617AD1AB34102DBE2
:100A70000020014670BD201841EB025170BD2DE9E8
:100A8000F04D00231A461B1A8A4103DB0020014661
:100A9000BDE8F08DC1F30A52C1F3130141F4801592
:100AA0004FF0000BD10702D100186D41521E0027F4
:100AB000044640F2FF11384601EB620A3E4680468A
:100AC000024600204FF48011FFF70BFFC21971415D
:100AD000BB1846EB0100B4EB030C75EB000C04D320
:100AE000E41A65EB000517460E46241908F10100CB
:100AF0006D4180463428E3DDF91946EB0600091BF9
:100B0000A84103D24FF0FF32134601E00022134602
:100B10001BEB070046EB0A51BDE8F04DFFF739BF6C
:100B2000064C074D06E0E06840F0010394E807003A
:100B300098471034AC42F6D3FFF7FEFAFC0E0408D7
:100B40001C0F040870B501EB020410F8015B15F0EE
:100B5000070301D110F8013B2A1106D110F8012B2F
:100B600003E010F8016B01F8016B5B1EF9D12B0754
:100B700005D40023521E0FD401F8013BFAE710F808
:100B8000013B02F10202A1EB030303E013F8015B56
:100B900001F8015B521EF9D5A142D6D3002070BDE9
:100BA0007047704707E006F0AFFC1423002211469F
:100BB000104609F0C1FDF6E700B587B0002009F046
:100BC0009FF932490860002009F09AF9304908601D
:100BD000012009F00FFA2F490860002009F00AFAF5
:100BE0002D4908600320002180222C4BCDE90132E1
:100BF000CDE9031004200346294A0090294809F052
:100C000017FB06AA28A1042009F02EFC03200021CE
:100C10004FF48062284BCDE90132CDE903101C204E
:100C20000346264A0090264809F002FB06AA25A1A1
:100C30001C2009F019FC032000218022234BCDE960
:100C40000310CDE9013200900346214A214809F002
:100C5000EFFA06AA20A1032009F006FC03200021D8
:100C60004FF400721D4BCDE90132CDE90310022093
:100C700003461B4A00901B4809F0DAFA06AA1AA19B
:100C8000022009F0F1FB07B000BD000004000020C5
:100C9000080000200C00002010000020C0070020E9
:100CA000BC090020350D0008546F7563682E4A6F2B
:100CB00079537469636B0000C0090020BC190020DF
:100CC000F90C00087563475549000000C019002061
:100CD000BC1B0020A50B00084C454400C01B002095
:100CE000BC230020010D000875634755492055704D
:100CF000646174650000000001E008F0A3FFFCE7F8
:100D000009E0002014F060FD4FF4FA730022114650
:100D1000104609F011FDF4E700F026F809F05CFA3E
:100D2000FFF74AFF05E0002301221946184609F0A3
:100D300003FDF8E705E0052301220021084609F03C
:100D4000FBFCF8E770477047704770477047704783
:100D50007047704710B503480AF088FD01484068A5
:100D600010BD0000C023002070B514F0D3FC14F0B7
:100D70006FFB14F0E9FCFFF7EDFF4FF47A71B0FB65
:100D8000F1F4B4F1807F00D31DE024F07F40401ED9
:100D90004FF0E021486148170F21002807DA0A07C1
:100DA000150E094A00F00F031B1FD55403E00A0774
:100DB000130E064A135400BF00204FF0E021886153
:100DC0000720086100BF70BD18ED00E000E400E0FE
:100DD0002DE9F0410446B4F90470384604F08AFA6B
:100DE0008046214638460BF0A2F908B9BDE8F081EB
:100DF00020680B2811D00C2804D00E2811D00F2801
:100E000034D105E022464146384612F045F8EDE778
:100E10003946404612F09CF9E8E740460EF074F976
:100E200024E0A0684568A06806680D2E02D0202E38
:100E30001AD10CE0002D09DD4146384611F001FFC2
:100E400002224146384611F00DFFCFE70CE0002D9D
:100E500004DD4146384611F0F4FE04E0022241462A
:100E6000384611F0FFFEC1E700BF00BF00BF2046BB
:100E70000BF0FCFC00BFB9E72DE9FF4704460D4627
:100E800016461F46DDE90C980020CDE900083B46D8
:100E900032462946CDE90209204600F01BF804B08D
:100EA000BDE8F0872DE9FF4704460D4616461F466C
:100EB000DDE90DA9DDF8308000203B4632462946A9
:100EC000CDE9020ACDE90089204600F003F804B01C
:100ED000BDE8F0872DE9FF4F85B006460F469046E6
:100EE000DDE913ABDDF8489000BF05F06FFC34215D
:100EF000124A1FFA8AF0CDE90090CDE9022142465C
:100F000039463046089B0BF00DFC04467CB1204668
:100F100004F0F0F905461022284615990BF064FB01
:100F20002422074905F12800FFF782F900BF06F0E7
:100F300035FE204609B0BDE8F08F0000D10D000855
:100F40008C0200202DE9FF4704460D4616461F4639
:100F5000DDF8308000BFB4F90800618A0022CDE9D5
:100F60000052CDE90210B4F91030B4F90E20B4F9F2
:100F70000CC00CEB0701B4F90AC00CEB0600FFF73C
:100F8000A9FF81464846616800F068F8484604B009
:100F9000BDE8F0872DE9F04105460C4616468DB1B7
:100FA000022C0FD805F012FC284604F0A3F90746DE
:100FB00007F1280040F8246028460CF079F806F084
:100FC000EDFD00BFBDE8F08170B505460C4624B1CB
:100FD000102128460BF02AF903E0102128460BF0D7
:100FE00084F870BD70B504460D4664B105F0EEFBA3
:100FF000204604F07FF90646756420460CF058F848
:1010000006F0CCFD00BF70BDF8B504460D4616468F
:1010100000200346324629460090204600F001F8A1
:10102000F8BD2DE9F04706460F4614461D46DDF88B
:10103000208042462946204604F002FD81464A4669
:101040003946304600F021F8BDE8F08770B5044617
:101050000D46294620460BF010F970BD70B50446C8
:101060000D468CB105F0B2FB204604F043F906466C
:10107000294606F14C0007F0C2F910B120460CF0E9
:1010800017F806F08BFD00BF70BD2DE9F041054655
:101090000C461646BDB105F099FB284604F02AF926
:1010A0000746032C0CD807F14E0101EB440004F075
:1010B0007EF807F14E0020F8146028460BF0F8FF88
:1010C00006F06CFD00BFBDE8F0817047704700007E
:1010D0001CB504462648C08C2549B1F84410084484
:1010E00000B22349C8840846008DB1F8481008446E
:1010F00000B21F490885204605F046FA1C49C98CF4
:10110000ADF800100844401E00B2ADF8040005F030
:101110007BFA1749098DADF802100844401E00B251
:10112000ADF8060068460CF0EBFC38B100BF204675
:1011300001F00EFE0CF05EFC0028F8D10A2C05D060
:10114000BDF80400401C00B20949C8840848C08C9E
:101150000749B1F84410401A00B20549C88408464E
:10116000008DB1F84810401A00B2014908851CBD35
:10117000509B002014480089134991F8601048439F
:1011800000B212490880104840890F4991F8601058
:10119000484300B20D4948800B488089401C0A49E9
:1011A00091F860104843401E00B208498880064804
:1011B000C089401C044991F860104843401E00B2A9
:1011C0000249C88070470000509B0020AC010020FD
:1011D000024641EA022070477047704770477047E7
:1011E000704770477047704770477047704701B548
:1011F00002E00098401E009000980028F9D108BD38
:101200002DE9F04105460E4617461C463119E819EE
:10121000184BDB6D5A6890473119E81B154BDB6D95
:101220005A689047F1192819124BDB6D5A6890479C
:10123000F11B28190F4BDB6D5A689047BCB1311B6D
:10124000E8190C4BDB6D5A689047311BE81B094BC2
:10125000DB6D5A689047F119281B064BDB6D5A6805
:101260009047F11B281B034BDB6D5A689047BDE884
:10127000F0810000509B00202DE9F04104460F460C
:1012800016461D461548007C10F0020F14D1BBB263
:1012900004EB050CACF1010C1FFA8CF2B9B2A0B250
:1012A00007F04FFA05E030884FF0DA4108806D1EF4
:1012B000B61C002DF7DC0FE00CE0B6F80080B8F1AA
:1012C000000F04D0B9B2A0B2424607F060FA6D1E1A
:1012D000641CB61C002DF0DCBDE8F081509B0020A2
:1012E0002DE9F84F04460F4690469946DDE90A5A23
:1012F000BAF800000090BAF802B098F80060D5483B
:10130000007C10F0030004D0012828D0022839D135
:1013100012E009F0070008280DD2DFE800F004050C
:10132000060708090A0BA4E0B3E0C3E0D3E0E3E05A
:10133000F3E003E113E125E009F0070008280DD2EE
:10134000DFE800F00405060708090A0B1CE029E0A5
:1013500036E043E050E05DE06AE077E012E009F05B
:10136000070008280DD2DFE800F004050607080989
:101370000A0B0AE115E120E12BE136E141E14CE104
:1013800057E100BF00BF00BF16F0800F04D0B9B214
:10139000A0B25A4607F0FBF9681E050001D1BDE86E
:1013A000F88F00BF16F0400F05D0B9B2621C90B2A2
:1013B0005A4607F0ECF9681E050000D1EFE700BFC0
:1013C00016F0200F05D0B9B2A21C90B25A4607F011
:1013D000DEF9681E050000D1E1E700BF16F0100F2E
:1013E00005D0B9B2E21C90B25A4607F0D0F9681E97
:1013F000050000D1D3E700BF16F0080F05D0B9B241
:10140000221D90B25A4607F0C2F9681E050000D1AD
:10141000C5E700BF16F0040F05D0B9B2621D90B247
:101420005A4607F0B4F9681E050000D1B7E700BFBF
:1014300016F0020F05D0B9B2A21D90B25A4607F0BD
:10144000A6F9681E050000D1A9E700BF16F0010F3C
:1014500005D0B9B2E21D90B25A4607F098F9681E5D
:10146000050000D19BE7083408F1010080460678AA
:101470008AE716F0800F01D05B4600E0009B1A4619
:10148000B9B2A0B207F083F9681E050000D186E763
:1014900000BF16F0400F01D05B4600E0009B1A46EB
:1014A000B9B2631C98B207F072F9681E050000D14A
:1014B00075E700BF16F0200F01D05B4600E0009BEF
:1014C0001A46B9B2A31C98B207F061F9681E05006C
:1014D00000D164E700BF16F0100F01D05B4600E0BA
:1014E000009B1A46B9B2E31C98B207F050F9681E87
:1014F000050000D153E700BF16F0080F01D05B468E
:1015000000E0009B1A46B9B2231D98B207F03FF9DC
:10151000681E050000D142E700BF16F0040F01D09D
:101520005B4600E0009B1A46B9B2631D98B207F013
:101530002EF9681E050000D131E700BF16F0020F3A
:1015400001D05B4600E0009B1A46B9B2A31D98B2D9
:1015500007F01DF9681E050000D120E700BF16F056
:10156000010F01D05B4600E0009B1A46B9B2E31DB3
:1015700098B207F00CF9681E050000D10FE7083497
:1015800008F101008046067873E716F0800F03D05B
:101590003946204607F0A2FD681E050000D1FEE690
:1015A00000BF16F0400F03D03946601C07F096FDCF
:1015B000681E050000D1F2E600BF16F0200F03D030
:1015C0003946A01C07F08AFD681E050000D1E6E63A
:1015D00000BF16F0100F03D03946E01C07F07EFD67
:1015E000681E050000D1DAE600BF16F0080F03D030
:1015F0003946201D07F072FD681E050000D1CEE6B9
:1016000000BF16F0040F03D03946601D07F066FDD9
:10161000681E050000D1C2E600BF16F0020F03D01D
:101620003946A01D07F05AFD681E050000D1B6E638
:1016300000BF16F0010F03D03946E01D07F04EFD44
:10164000681E050000D1AAE6083408F101008046B2
:1016500006789AE7509B00202DE9F04704460E4695
:1016600091469A46DDE9087899F80050B8F1000FE4
:101670007AD09C48007C10F0020F0BD01AF00300C7
:1016800004D0012803D0022803D101E04CE05AE045
:101690006CE07DE01AF0030004D0012803D002289A
:1016A00003D101E002E00EE01CE02AE0AB1138F8C3
:1016B0001320B1B2A0B207F06AF8781E070001D17A
:1016C000BDE8F08700BF032303EA251338F8132091
:1016D000B1B2631C98B207F05AF8781E070000D127
:1016E000EEE700BF032303EAA50338F81320B1B2E5
:1016F000A31C98B207F04BF8781E070000D1DFE773
:1017000000BF05F0030338F81320B1B2E31C98B210
:1017100007F03DF8781E070000D1D1E709F101007C
:1017200081460578241DC1E715F0C00F06D0AB1126
:1017300038F81320B1B2A0B207F029F8781E0700DC
:1017400000D1BDE700BF15F0300F09D0032303EA35
:10175000251338F81320B1B2631C98B207F017F8BC
:10176000781E070001D1ABE728E000BF15F00C0F91
:1017700009D0032303EAA50338F81320B1B2A31C50
:1017800098B207F004F8781E070000D198E700BF70
:1017900015F0030F08D005F0030338F81320B1B299
:1017A000E31C98B206F0F3FF781E070000D187E72C
:1017B00009F1010081460578241DB5E74948007C00
:1017C00010F0020F0BD01AF0030004D0012803D050
:1017D000022803D101E043E04FE05EE06DE01AF043
:1017E000030004D0012803D0022803D101E002E065
:1017F0000BE017E023E0AA11B1B2A0B206F0C7FFD8
:10180000781E070000D15BE700BF032303EA25121F
:10181000B1B2631C98B206F0BAFF781E070000D17F
:101820004EE700BF032303EAA502B1B2A31C98B29E
:1018300006F0ADFF781E070000D141E700BF05F0BC
:101840000302B1B2E31C98B206F0A1FF781E0700B4
:1018500000D135E709F1010081460578241DCAE76A
:1018600015F0C00F04D0AA11B1B2A0B206F08FFFDC
:10187000781E070000D123E700BF15F0300F07D016
:10188000032303EA2512B1B2631C98B206F07FFF6E
:10189000781E070000D113E700BF15F00C0F07D02A
:1018A000032303EAA502B1B2A31C98B206F06FFFAE
:1018B000781E070000D103E700BF15F0030F06D024
:1018C00005F00302B1B2E31C98B206F060FF781E87
:1018D000070000D1F4E609F1010081460578241DD6
:1018E000BEE70000509B00202DE9F04704460E465D
:1018F00090469946DDE9087A98F80050BAF1000F51
:1019000052D04E48007C10F0020F04D019F0010FA5
:1019100000D125E032E019F0010F00D100E00CE029
:101920002B113AF81320B1B2A0B206F030FF781EA6
:10193000070001D1BDE8F08700BF05F00F033AF8BA
:101940001320B1B2631C98B206F021FF781E070085
:1019500000D1EFE7A41C08F1010080460578DFE71D
:10196000281106D02B113AF81320B1B2A0B206F01C
:101970000EFF781E070000D1DCE700BF15F00F0F47
:1019800008D005F00F033AF81320B1B2631C98B2E7
:1019900006F0FDFE781E070000D1CBE7A41C08F17D
:1019A000010080460578DBE72448007C10F0020F38
:1019B00004D019F0010F00D120E02BE019F0010F45
:1019C00000D100E009E02A11B1B2A0B206F0DFFEBA
:1019D000781E070000D1ADE700BF05F00F02B1B2DD
:1019E000631C98B206F0D3FE781E070000D1A1E771
:1019F000A41C08F1010080460578E4E7281104D012
:101A00002A11B1B2A0B206F0C2FE781E070000D1C2
:101A100090E700BF15F00F0F06D005F00F02B1B22E
:101A2000631C98B206F0B3FE781E070000D181E770
:101A3000A41C08F1010080460578DFE7509B0020D8
:101A40002DE9F0470446884615461E46DDF82090ED
:101A50002348007C10F0020F1ED1B9F1000F0ED008
:101A60000AE02F7839F817201FFA88F1A0B206F0A3
:101A70008EFE761E641C6D1C002EF2DC2DE008E04C
:101A80002A781FFA88F1A0B206F081FE761E641C47
:101A90006D1C002EF4DC20E0B9F1000F0FD00BE03C
:101AA0002F7837B139F817201FFA88F1A0B206F065
:101AB0006EFE761E641C6D1C002EF1DC0DE00AE04B
:101AC0002F782FB11FFA88F1A0B23A4606F05FFED8
:101AD000761E641C6D1C002EF2DCBDE8F087000051
:101AE000509B00202DE9F04107460D46002F72D093
:101AF00004F06CFE384603F0FDFB0446002C6BD06E
:101B0000E06C20B129463846E26C90478BE0122DFC
:101B100046D006DC082D4FD0102D47D0112D6CD1AA
:101B200006E0132D20D01D2D57D01E2D65D14DE080
:101B3000208DC0B1B4F9280003F0DCFB0646304626
:101B4000216C05F0D5FE0644304605F07BFE80464C
:101B5000B8F17F0F06DA08F1010030700521384630
:101B60000BF057FB00BF5DE0208DC0B1B4F9280039
:101B700003F0C0FB06463046216C05F0B9FE064472
:101B8000304605F05FFE8046B8F1200F06DDA8F173
:101B900001003070052138460BF03BFB00BF41E0EF
:101BA000206C411C204600F0D9FA3BE0206C411E1D
:101BB000204600F0D3FA35E0206C411E204600F0AC
:101BC000CDFA214638460DF0C9FA2BE021463846B9
:101BD0000DF0C4FA26E02CE028E094F84800012833
:101BE00003D1002084F8480006E0012084F8480072
:101BF0002046216C00F0B2FA14E0202D11DB94F89D
:101C0000480018B1214638460DF0A8FAAAB221467C
:101C1000384610F079FB20B1206C411C204600F0C2
:101C20009DFA00BF00BF38460BF042FA05F0B6FF40
:101C300000BFBDE8F0812DE9F0410446B4F904503D
:101C4000284603F057FB804628460CF0E2F807468A
:101C5000214628460AF06BFA08B9BDE8F0812068F1
:101C60000B2811D00C2804D00E2811D00F282BD10E
:101C700005E022464146284611F032F924E0294683
:101C8000404611F0F2FAE8E740460DF049FA1BE051
:101C9000CFB1A0684068002815DDA0680668092E4D
:101CA00008D00A2E07D00D2E02D01B2E04D100E042
:101CB00000BF00BF00BF04E031462846FFF712FF17
:101CC000CBE700BF00BF00BF00BF20460AF0CEFD3B
:101CD00000BFC2E72DE9F04786B004460D46164620
:101CE0001F46DDE90FA9DDF838800020CDE901901D
:101CF0003B4632462946CDE9038A0090204600F053
:101D000003F806B0BDE8F0872DE9FF4F85B0074620
:101D100088469146DDF858B0DDE9135A00BF04F05B
:101D200055FD45F4805550221F4BA8B240F00200EB
:101D30001299CDE90232CDE900104A4641463846B3
:101D4000089B0AF0EFFC064646B3304603F0D2FA91
:101D500004461022204615990AF046FC1C2213491D
:101D600004F15400FEF764FA012084F84900BBF145
:101D7000000F01D1082000E0584600B26085002025
:101D8000A0852085B4F92A00411C204610F058FA9D
:101D900018B930460AF09EFD002600BF05F0FEFE91
:101DA000304609B0BDE8F08F371C0008B0020020B3
:101DB0002DE9F04385B004460D4616461F46DDF872
:101DC000309000BFB4F90810628A00236069CDE941
:101DD0000053CDE902210490B4F91030B4F90E207B
:101DE000B4F90CC00CEB0701B4F90AC00CEB060007
:101DF000FFF78AFF8046B8F1000F03D0618A4046A2
:101E000000F08FF9404605B0BDE8F0832DE9F047BA
:101E10000746884691461E4604F0D8FC57B338461C
:101E200003F068FA04461548E06415482065C4F8D4
:101E30003C8000202064B4F92A50002D03DC304699
:101E40000FF0DEFF0546202D00DD2025B4F92A0025
:101E5000A84203D02946384600F0CEF8C4F83090A6
:101E60006663012084F84800384612F0AFFB38461C
:101E70000BF01EF905F092FEBDE8F0876FE6000852
:101E8000CD4501082DE9F84F07460D46002F5ED0DD
:101E900004F09CFC384603F02DFA0446208D0028FF
:101EA00052D0B4F9280003F025FA0090E06D05F057
:101EB0007FFA824638460AF033FF8046009804F0E5
:101EC000B5FB064694F8540000F00300012809D041
:101ED00002280ED1A8EB0601481C00EBD071A5EB3F
:101EE00061050DE0A8EB0601A06D401C081A2D1A33
:101EF00006E0A06D401C216A496908442D1A00BF04
:101F000000BF009806F0ECF98146002D04DA0021AC
:101F1000204600F023F910E0B54204DD4946204692
:101F200000F01CF909E04A462946009806F04FF9EE
:101F300083465946204600F011F9504605F038FA1C
:101F400038460BF0B5F800BF05F028FE00BFBDE82D
:101F5000F88F70B505460E4605B970BD04F036FC25
:101F6000284603F0C7F904461CB1E66528460BF085
:101F70009FF805F013FE00BFEFE700002DE9F047E2
:101F80000746884691461E4604F020FC5FB338465B
:101F900003F0B0F904461648E06416482065C4F81A
:101FA0003C8000202064B4F92A50002D03DC304628
:101FB0000FF02EFF0546082D00DD0825B4F92A0094
:101FC000A84203D02946384600F016F8C4F83090ED
:101FD0006663012084F84800384612F009FB384651
:101FE0000BF066F800BF05F0D9FDBDE8F0870000F2
:101FF0000FE70008F14501082DE9F04706460D46B8
:1020000096B304F0E3FB304603F074F90446B4F9E8
:102010002A00A84225D0B4F92A00A84216DD208D56
:10202000A0B1B4F9280003F065F90746384606F078
:1020300057F98046A84508DD2946384605F058FC82
:102040008146002007F8090000BF00BFA08D281AB4
:10205000411C204610F0F4F828B2608530460BF0A1
:1020600027F805F09BFD00BFBDE8F0872DE9F0479C
:1020700080460E46B8F1000F51D004F0A7FB404651
:1020800003F038F90446002E3CD04FF00009208DB3
:1020900050B1B4F9280003F02DF982465046FEF7FE
:1020A00005F900F1010900BF304606F019F90546AF
:1020B000B4F92A10A94201DAB4F92A502946304667
:1020C00005F016FC471CA7EB0901204610F0DBF9D0
:1020D000B8B1B4F9280003F00DF982463A4631460A
:1020E0005046FEF7A5F82564B4F92A10206C884202
:1020F00006D194F84800012802D1206C401E2064CB
:1021000000BF06E004F1280003F051F80020A0858C
:10211000206440460AF0CCFF05F040FD00BFBDE85A
:10212000F08770B505460E4605B970BD04F04EFB4C
:10213000284603F0DFF804461CB1666528460AF01D
:10214000B7FF05F02BFD00BFEFE770B504460D4665
:1021500000222946204611F0F6FE70BD2DE9F0411F
:1021600004460D46208D20B3B4F9280003F0C2F8D0
:102170008046404606F0B4F8064694F8480008B198
:10218000012000E000200746002D00DA0025B542BE
:1021900000DD3546B4F92A00C01BA84202DAB4F9C2
:1021A0002A00C51B206CA84200D025640020606472
:1021B00000BFBDE8F08170B504460D4601222946F6
:1021C000204611F0C0FE70BD7047000010B5FDF74D
:1021D000CBFF044605480078401C0449087020469F
:1021E000FDF7C6FF07F044FE10BD000045000020CB
:1021F000704770477047704710B5FDF7B5FF04464C
:102200000F480078401C0E4908702046FDF7B0FFCB
:10221000402000F023F878B10A48006820F0400020
:1022200008490860402000F013F8012006490870B2
:102230000648006807F080FF07F01AFE10BD000096
:102240004500002000040140000000201000002094
:102250000149086070470000140401400146002055
:102260000022074B1B6803EA0102054B14331B686D
:102270000B4202D00AB1012000E0002070470000AC
:102280000004014070472DE9F04F8BB004468946A9
:1022900015469A464FF0000B94B3204600F0E4F93F
:1022A0000646204600F0CFF9049004F08FFA20464D
:1022B00003F020F80A9005A90A9800F085FA19F0B1
:1022C000010F07D0BDF92410701E081AA0EB0508F5
:1022D000822704E0BDF9200000EB05080227334601
:1022E0003246CDE901A7009440460499FEF7DAFD95
:1022F000834600215846FEF767FE05F04FFC00BFFD
:1023000058460BB0BDE8F08F2DE9F04104460D466C
:1023100016460723324629462046FFF7B4FF0746F4
:10232000054A00213846FEF76FFE044938460BF097
:1023300092F83846BDE8F081E9F60008E15201085C
:102340002DE9F04104460D4616460823324629463B
:102350002046FFF798FF0746054A00213846FEF75A
:1023600053FE044938460BF076F83846BDE8F08154
:1023700017F700081B5301082DE9F04788B0044601
:10238000B4F90470384602F0B5FF0546D4F8089059
:102390006E6E0AE02046716888478046B8F1000FEB
:1023A00002D008B0BDE8F0873668002EF2D1206870
:1023B000172832D00CDC0D2862D004DC0B287BD02F
:1023C0000C287ED118E00F2812D0142879D119E0FA
:1023D0001E2836D0202869D0262822D02A2870D15D
:1023E000A06810B1A068286601E0286EA060D8E758
:1023F000284611F001F864E022462946384610F0DC
:102400008FFDCEE703A9284600F0DEF90498C9F84D
:1024100000000598C9F80400C3E7B5F94C00A060B6
:10242000BFE7A06802280BD1ADF80670A068029043
:1024300027200090B4F9060069460BF0ADFE00BFFE
:10244000AFE7A068012816D1B5F95C000AF08DFE4F
:1024500020B1B5F95C000BF0B5F805E0B5F94C001A
:102460000BF00AF9A5F85C000121384600F04DF99F
:102470000020A06003E00021384600F046F990E714
:1024800095F85A0010F0080F0DD1D4F808A0DAF82A
:102490000880B8F1000F05D098F8080010B1384650
:1024A0000BF090F800BF0CE006E0FFE7224629465B
:1024B000384610F0EFFB04E005F1500002F077FE23
:1024C00000BF00BF2146384609F031FE00B968E779
:1024D00020460AF0CBF900BF63E72DE9F04786B04C
:1024E00004460D4616461F46DDE90F9ADDF8388092
:1024F0000020029003A931C153464A464146CDE926
:102500000006384600F004F806B0BDE8F087000089
:102510002DE9F04F89B00746884691469B46DDE994
:10252000135A04F053F945F4805548222F4BA8B2B2
:102530001299CDE90232CDE900105B464A46414688
:1025400038460AF0EFF80646002E48D0304602F032
:10255000D1FE04463022204615990AF045F8202283
:10256000234904F12800FDF763FE179844F8480F4B
:10257000A4F812A00020A082E080E061A4F1480449
:1025800004A9204600F020F900201A4941F2827285
:10259000CDE90062CDE90210BDF91AE0BDF916C01F
:1025A000AEEB0C0C0CF10103BDF918C0BDF914E041
:1025B000ACEB0E0C0CF10102BDF9161070460AF0DE
:1025C000B1F8A4F84C0042F20400054202D13046B2
:1025D0000AF0E4F93046169900F0DFF800BF05F084
:1025E000DDFA304609B0BDE8F08F0000792300081D
:1025F000CC020020692A00082DE9F04387B0044688
:102600000D4616461F46DDF83880B4F90810628A78
:102610006068CDE90408CDE902210020CDE9005031
:10262000B4F91030B4F90E20B4F90CC00CEB07016A
:10263000B4F90AC00CEB0600FFF76AFF8146484672
:1026400007B0BDE8F08370B50446002554B104F02E
:10265000BDF8204602F04EFE0646B6F9425005F09F
:102660009DFA00BF284670BD70B586B004460025AF
:102670008CB104F0ABF8204602F03CFE064601A9FE
:10268000304600F0A1F8B6F940500DB9BDF904503C
:1026900005F084FA00BF284606B070BD70B5044648
:1026A00064B104F093F8204602F024FE0546294662
:1026B000204610F0A1F805F071FA00BF70BD70B5AA
:1026C000044664B104F082F8204602F013FE054689
:1026D0002946204610F0E6F805F060FA00BF70BD0C
:1026E00070B5044684B104F071F8204602F002FE91
:1026F00005462946204611F04FFA2946204611F09A
:1027000018FA05F04BFA00BF70BD70B504460D46CF
:102710003CB104F05BF82946204611F00BFB05F0B4
:102720003DFA70BD2DE9F04104460D4604F04EF827
:102730009CB1204602F0DEFD0646304600F0CBF8A4
:102740000746B562304600F056F93946304600F08B
:10275000D3F820460AF0ACFC00BF05F01FFABDE834
:10276000F08170B505460E46B5B104F02FF8284645
:1027700002F0C0FD044636B1B4F85A0040F0100033
:10278000A4F85A0005E0B4F85A0020F01000A4F8AC
:102790005A0005F003FA00BF70BD70B504460D463F
:1027A0008CB104F013F8204602F0A4FD0646294639
:1027B00006F1500005F023FE10B120460AF078FC27
:1027C00005F0ECF900BF70BD2DE9F04F85B005466E
:1027D0000C46002004900390B5F9426028460BF0A7
:1027E0007EF9029028460BF082F9019095F82600B8
:1027F00010F0200F02D0B5F944000390284600F0F5
:102800006AF88046B5F84E0020B1B5F94E000AF0DE
:102810009BFA04900FFA88F02080049800B2608040
:1028200030B2A0800298801B401E01B22181039823
:10283000304400EB08010498084401B2E18001989B
:10284000801B401E01B2618130B2A0810298801BC2
:10285000401E01B2218231B2E18106EB0800401E28
:1028600001B26182B5F918902FE0484602F042FDAE
:102870000746B7F90000B5F90010A0EB010AB7F957
:102880000400B5F90010A0EB010BB7F90200B5F98F
:102890000210401A00900098B04214D1387F10F016
:1028A000800F08D0B4F9100050450CDBAAF10100EC
:1028B00001B2218207E0B4F90C00584503DC0BF1AA
:1028C000010000B2A081B7F91A90B9F1000FCCD184
:1028D00005B0BDE8F08F70B50446002594F82600D9
:1028E00010F0200F06D0B4F940501DB9A06A03F0D3
:1028F000E8FE851C284670BD2DE9F04F85B00446E2
:1029000088462046FFF7E7FF04900498A0EB0805EF
:10291000002D6DD04FF0000B00BF00208246814695
:1029200040F6FF70019040420090B4F9186037E023
:10293000304602F0DFFC0746D7E90001CDE902018D
:10294000B4F902004242B4F90000414202A804F086
:10295000E9FBBDF90A10B4F9420081421ED1BDF96C
:102960000E00BDF90A10401A401C404516D1387FB0
:1029700010F0800F09D0BDF90C10009881420DDDD8
:10298000B246BDF90800009008E0BDF908100198B2
:10299000814203DAB146BDF908000190B7F91A6027
:1029A000002EC5D1B9F1000F0AD02A462946484663
:1029B0000AF06AFC0BFB05F1002248460AF01BFCFA
:1029C000BAF1000F0BD02A46294650460AF05CFCAB
:1029D0000BFB05F04142002250460AF00CFC0BF1C3
:1029E000010BB9F1000F98D1BAF1000F95D100BFDA
:1029F00005B0BDE8F08F30B585B00446B4F84C00A2
:102A000010B9B4F84E0068B369462046FFF7DCFE03
:102A1000B4F84C00B8B1BDF90620BDF90410B4F902
:102A20004C000AF0AEFBBDF90A50BDF90630EB1AB6
:102A30005A1CBDF90830BDF904505B1B591CB4F990
:102A40004C000AF06AFEB4F84E0050B1BDF90630F1
:102A5000BDF902505A1BBDF90410B4F94E000AF03A
:102A600090FB00BF05B030BD2DE9FE430446B4F92C
:102A70000470B4F904000AF003F98046404602F0FD
:102A800039FC0546AE6C2068172861D008DC0E289A
:102A90003ED00F280BD0142858D015285CD156E012
:102AA0001E281AD01F282ED0222855D14BE06FF0B7
:102AB0007041E86B884204D0E86B06F059FB02F0E5
:102AC000F7FE46B194E807008DE80700ADF8047002
:102AD0006846B04700BFBDE8FE83A06890B1B5F876
:102AE0005C0040B1B5F95C00B84204D0B5F95C00B7
:102AF0000AF068FD04E038460AF0BEFDA5F85C0067
:102B00000020A060E7E72146404609F010FBE2E71D
:102B1000A0684068002815DDA068D0F80090B9F1E1
:102B2000090F08D0B9F10A0F0BD138460AF0B2FDEF
:102B3000A5F85C00CFE738460AF09EFDA5F85C00DA
:102B4000C9E700BF08E0E86BA060C4E700BF00BFB2
:102B5000204609F08BFEBEE700BF26B1A4F8048032
:102B60002046B04702E0204609F080FE00BFB2E7F1
:102B70007047000051B14FF0204252F8202042F03F
:102B800001024FF0204343F8202009E04FF020429B
:102B900052F82020034B1A404FF0204343F82020E6
:102BA00070470000FEFF0F00D0E901121143C26818
:102BB0001143026911434269114382691143C26999
:102BC0001143026A1143426A1143826A1143C26A85
:102BD0001143026B11434FF02043026843F8221067
:102BE0008168082908D11A46016852F8211041F07D
:102BF0004001026843F82210416B0968426B526839
:102C000041EA0211426B926841EA0221426B9289C9
:102C100041EA0241426B128A41EA0251426B127D43
:102C200041EA0261426B926911430268521C4FF003
:102C3000204343F82210C16AB1F5804F1AD1816B4D
:102C40000968826B526841EA0211826B926841EA1C
:102C50000221826B128A41EA0251826B127D41EAA3
:102C60000261826B92691143026803EB8202C2F82F
:102C7000041108E06FF070414FF02043026803EB4D
:102C80008202C2F8041170472DE9F84F07468846C2
:102C90001446204604EBD071491004FB0411009146
:102CA000A8EB040908EB040A2848406998B12748B2
:102CB0004069B0F90600504503DA24484069B0F98C
:102CC00006A022484069B0F90200484503DD1F48CC
:102CD0004069B0F902900026254616E0A8EB060BE5
:102CE000CB4511DBD3450FDC00E06D1E06FB06F083
:102CF00005FB050100988142F7DC7A19781B13491E
:102D0000C96D0B6859469847761CA642E6DB00263B
:102D1000254616E008EB060BCB4511DBD3450FDC4F
:102D200000E06D1E06FB06F005FB050100988142E0
:102D3000F7DC7A19781B0549C96D0B685946984725
:102D4000761CA642E6DBBDE8F88F0000509B002011
:102D500010B504460A2C02D102F03EFF11E00D2C02
:102D60000FD003F033FD0748C0690168204688474B
:102D70000548006818B1204603490968884704F0EF
:102D80000DFF10BD509B0020340200202DE9F043C0
:102D900087B004460E461746D4F80C80002004F095
:102DA000FBFA0546B8F1000F05D098F8041011B1F0
:102DB00045F0020101E025F00201084604F0ECFABA
:102DC000206970B10122D4E902018DE80700039265
:102DD0006388228820693946D0F800C03046E04731
:102DE0001EE0E06806F013F88146B9F1000F06D145
:102DF000E088012801D0002000E00C488146A1882D
:102E0000E288A068CDE90409CDE902210120009003
:102E10000190638822883946304605F06BFD00BF7B
:102E2000284604F0B9FA07B0BDE8F083509B0020B3
:102E30002DE9F04707468846144640F2C320604318
:102E40004FF47A7190FBF1F000F1010904EBD471B9
:102E5000491004FB041A2646002322464146384600
:102E6000FEF7CEF9012513E005FB05F006FB060091
:102E7000504506DD33462A4641463846FEF7C0F93E
:102E8000761E33462A4641463846FEF7B9F96D1C90
:102E90004D45E9DDBDE8F0872DE9F0470546884658
:102EA000164640F2C32070434FF47A7190FBF1F064
:102EB00000F1010906EBD671491006FB061A3446EB
:102EC000AA19A81B2649C96D0B68414698470127D6
:102ED00041E007FB07F004FB0400504524DD4C45AE
:102EE00021DD05EB070CACF1010208EB0401A5EBB9
:102EF000070C0CF10100DFF868C0DCF85CC0DCF8FE
:102F00000030984705EB070CACF10102A8EB040177
:102F1000A5EB070C0CF10100DFF844C0DCF85CC045
:102F2000DCF800309847641E2A1908EB0701281BBB
:102F3000DFF82CC0DCF85CC0DCF8003098472A19B8
:102F4000A8EB0701281BDFF818C0DCF85CC0DCF830
:102F5000003098477F1C4F45BBDDBDE8F08700007F
:102F6000509B002070B504460E4615466119601B43
:102F700002F0AAF82A4631462046FFF785FE01F006
:102F8000CBFF70BD2DE9F04F87B0064689469246CB
:102F90001F4640F6FF7006904042059000250CE069
:102FA00006EB8500B0F902400698844200DA0694E8
:102FB0000598844200DD05946D1C4D45F0DB4148C9
:102FC0004069D8B13F484069B0F90600C11B059877
:102FD000814205DA3B484069B0F90600C01B059004
:102FE00038484069B0F90200C11B0698814205DDEE
:102FF00034484069B0F90200C01B0690069C5BE0B3
:103000000FF04AF9002550E0A9F10100A84201DDC6
:10301000681C00E00020049006EB8500B0F902B0C7
:10302000049806EB8000B0F90280A34524D1A045A6
:103030000CD1049B36F9233003EB0A02E11936F96F
:10304000253003EB0A000DF0A7FA2DE023464A468F
:10305000294630460EF064FF03900398A0420AD040
:10306000A8EB0403CDE900A703990A1B36F9250054
:1030700021460BF08FFB17E0A04515D0A04501DBE2
:10308000A34503DDA3450FDBA0450DDC049806EB4B
:10309000800306EB850203A920460BF049FF10B11F
:1030A00003980BF067FA00BF6D1C4D45ACDBE119CE
:1030B00050460EF099FB641C05988442A0DD07B0D1
:1030C000BDE8F08F509B002010B5002004F02BF9D4
:1030D0006FF07F4004F03DF9012004F097F90020E3
:1030E00004F0A2F9002004F0AFF9002004F054F934
:1030F000034804F05DF9002004F07AF910BD0000E7
:103100000C0E03082DE9F0410246002500260020A0
:1031100000230024002791F803C00CF00F0591F85C
:1031200003C01CF0100F03D091F802C04CEA050553
:1031300091F800C0BCF1000F31D0146800202BE0E2
:103140004FF0010C0CFA00F3B1F800C00CEA0306D2
:103150009E4220D183004FF00F0C0CFA03F7BC43C2
:1031600005FA03FC4CEA040491F803C0BCF1280FF3
:1031700006D14FF0010C0CFA00FCC2F814C00AE0B2
:1031800091F803C0BCF1480F05D14FF0010C0CFAC7
:1031900000FCC2F810C0401C0828D1D31460B1F85C
:1031A00000C0BCF1FF0F34DD546800202EE000F1B8
:1031B000080C4FF0010808FA0CF3B1F800C00CEA53
:1031C00003069E4221D183004FF00F0C0CFA03F747
:1031D000BC4305FA03FC4CEA040491F803C0BCF1BB
:1031E000280F05D100F1080C08FA0CF8C2F8148079
:1031F00091F803C0BCF1480F07D100F1080C4FF063
:10320000010808FA0CF8C2F81080401C0828CED338
:103210005460BDE8F0810246002093680B4201D063
:10322000012000E000207047416170470161704754
:1032300010B509A112A001F01BF900F071FE0020E9
:1032400004F071F802F034FB01F05EFE032001F09F
:103250004FFF0BF069FB10BD0A4578616D706C651E
:103260007320666F72207468650A6175746F6D6F84
:103270007469766520696E6475737472696500009F
:103280004175746F6D6F746976652073616D706CD4
:103290006573000010B507A114A001F0E9F84FF420
:1032A0007F0000F04DFE02F003FB0BF013FC01F079
:1032B0000FFB10BD53686F77696E670A64696666B5
:1032C0006572656E74206269746D617073207769D0
:1032D00074680A616E6420776974686F757420631E
:1032E0006F6D7072657373696F6E00004269746D03
:1032F0006170730010B503F091F9044609F073FB97
:103300006E2C01D04E2C02D101200C490870682C83
:1033100001D0482C0ED14FF4FA7002F0C6FB00BF6A
:103320000A2002F0C2FB09F05EFB03F077F90446C5
:10333000002CF5D00148007810BD000010010020DD
:1033400070B520A127A001F093F802F0B1FA274848
:1033500004F02EF86FF07F4003F0FBFF7825A026E5
:1033600032240022114622A002F012FD22463146EC
:10337000284603F01FF801F0ABFA012004F00CF826
:1033800004F10A023146284603F014F8002004F044
:1033900003F801F09DFA18A000F0A0FF02F088FAEF
:1033A0006FF07F4003F0D5FF0022114619A002F014
:1033B000EFFCA21E3146284601F0BEFD01F088FA5E
:1033C00070BD00000A417262697472617279206393
:1033D0006972636C65730A616E6420617263732E37
:1033E00000000000436972636C657300B43E03081B
:1033F000436972636C650000436972636C65732096
:10340000776974680A416E7469616C696173696E89
:1034100067000000416E7469616C69617365640ADC
:10342000636972636C65000010B5002414A11CA0D0
:1034300001F01EF84FF47F0000F082FD02F038FA30
:103440000BF0FAFF40F2DC5000F032F800F068FDBB
:1034500002F0FCF900BF05E0134951F824000FF019
:103460005FFA641C042C03D2FFF744FF0028F3D05A
:103470000021084602F0C6F80C4802F06DF810BDB5
:103480000A656D57696E20737570706F7274730A78
:10349000736F66747761726520637572736F720003
:1034A000437572736F72000018010020BCFF0208A0
:1034B0002DE9FE43044600271E49B1F9000009F03A
:1034C00001F9642C0EDD0E2100221B48B0F9020028
:1034D0000723CDE9012100903C220A21084607F08C
:1034E0007DFF00E00020804622460021404607F094
:1034F000FBFF03F0A6F8064600BF03F0A2F8851B09
:103500002946404608F066F809F06DFA0A2002F0F4
:10351000CCFAA54203D2FFF7EDFE0028EDD04046DD
:1035200009F0D8F911F08AF809F05DFA3846BDE8DB
:10353000FE830000EC000020000100202DE9F04F88
:1035400087B005F05FFC834605F05EFC06904548B9
:103550000590002144A000F08BFFFF2000F0F0FC5C
:10356000049004980AF010F804900A274FF04B08D2
:10357000ABEB0700A0F10A090698A0EB0800A0F148
:103580000A0AB9F18C0F01DD4FF08C09BAF1780FFE
:1035900001DD4FF0780A3B460222002138A08DE879
:1035A0000007FEF79AFF054601212846FFF7ADF810
:1035B00001212846FFF7D5F8002201212846FEF711
:1035C000A3FE012211462846FEF7BAFE30492846DE
:1035D000FFF7A8F8284609F081FA039040F28270BC
:1035E000002100910B460A46CDE9011029480399B4
:1035F00005F0BEFF0646304609F0E4FF3046059967
:1036000006F0C2F901F064F9002406E0304606F045
:103610004DF8FA20FFF74CFF641C0A2C03DAFFF781
:1036200069FE0028F2D0002406E0304606F020F8BB
:10363000FA20FFF73DFF641C0A2C03DAFFF75AFE5D
:103640000028F2D04FF4FA70FFF732FF304609F04D
:1036500041F9284609F03EF9049809F095FF07B0B2
:10366000BDE8F08F00E303084672616D652057697D
:103670006E646F772026204C697374626F78000047
:1036800053656C656374206C616E67756167650076
:10369000E8560308C0B10108704700002DE9F04F5B
:1036A00089B07824A0254CA152A000F0E1FE6FF073
:1036B0007F4003F04EFE544803F07AFE002211468C
:1036C00052A002F065FB0A354FF07D5633460722C3
:1036D000534901A80EF0CCFF31465248FCF75BFE7F
:1036E00082462046FDF755F883465146FCF74DFECD
:1036F0008146FDF775F880462B464246072101A812
:1037000002F078FE31464748FCF745FE82462046E7
:10371000FDF73FF883465146FCF7E5FD8146FDF78E
:103720005FF880462B464246072101A802F062FE60
:10373000334603223C4901A80EF09AFF4FF47F4024
:1037400000F00CFC0746B7F57F4F03D04FF6FF7033
:1037500003F0FFFD31463548FCF71DFE8246284642
:10376000FDF717F883465146FCF7BDFD8046FDF78F
:1037700037F881464B462246032101A802F03AFE63
:103780006FF07F4003F0E5FD01F0BEFB33460422FD
:10379000274901A80EF06CFF31462448FCF7FBFDD9
:1037A00083462846FCF7F5FF59460090FCF7EDFDEF
:1037B00082462049FCF7EFFD8146FDF711F880466F
:1037C00004EB44024346042101A801F0F9FB01F097
:1037D0007FF809B0BDE8F08F0A5374616E646172BE
:1037E0006420616E6420616E7469616C69617365E7
:1037F0006400000041726269747261727920506FD6
:103800006C79676F6E730000F8F0030841726269AB
:1038100074726172790A506F6C79676F6E73000011
:103820009402020800004842B00202080000204151
:10383000BC020208000040402DE9F04F87B005F0BF
:10384000E1FA824600EBDA70471005F0DDFA8246B5
:1038500000EBDA7045104FF00208894903C9CDE941
:1038600004018749083103C9CDE90201A5F1280BFC
:103870004FF00A09282D05DA0E2002904FF0010BB7
:103880004FF004097FA187A000F0F2FD02F010F8CC
:103890006FF07F4003F05DFD844803F089FD5A46D8
:1038A000394683A002F088FA02200090DDF810A0CB
:1038B0000AEBDA7CA7EB6C005246029BE91A07F090
:1038C00077FDADF8180002200090DDF814A00AEB97
:1038D000DA7CA7EB6C00524605EB0901039B07F06D
:1038E00067FDADF81A00BDF9180009F06AF8BDF9D6
:1038F0001A0009F066F84FF44870FFF7D9FDBDF9DA
:103900001A004FF4FA72002107F0EEFD00269DE048
:10391000BDF91800654907F0D6FDBDF918004FF450
:103920007F42002107F0B6FDBDF91800FF220121FA
:1039300007F0B0FD00240DE0BDF91800214607F0A6
:1039400049FEBDF91A00214607F044FE052002F0A9
:10395000ACF8641C642C03DCFFF7CCFC0028EBD033
:10396000BDF9180056A107F0DCFD0EE0BDF9180006
:10397000214607F02FFEC4F1C801BDF91A0007F077
:1039800029FE052002F091F8641E002C03DBFFF7EE
:10399000B1FC0028EAD0BDF918004CA107F0C1FD28
:1039A000BDF91800002107F003FE0EE0BDF9180074
:1039B000214607F00FFE04F1C801BDF91A0007F017
:1039C00009FE052002F071F8641C642C03DCFFF78B
:1039D00091FC0028EAD00EE0BDF91800214607F05E
:1039E000F9FDC4F5C871BDF91A0007F0F3FD052013
:1039F00002F05BF8641E002C03DBFFF77BFC002861
:103A0000EAD0BDF91800354907F05DFDBDF9180091
:103A100033A107F086FD0EE0BDF91800214607F03E
:103A2000D9FD04F5C871BDF91A0007F0D3FD0520D2
:103A300002F03BF8641C642C03DCFFF75BFC0028FD
:103A4000EAD04FF47A70FFF733FD761C4645FFF657
:103A50005FAF4FF47A70FFF72BFDBDF9180008F047
:103A600039FFBDF91A0008F035FF4FF47A70FFF7FF
:103A70001FFD1F4803F09CFC07B0BDE8F08F00005D
:103A8000CC0202080A50726F6772657373626172CA
:103A90007320696E0A616C6C207661726961746969
:103AA0006F6E73005769646765747300B43E0308F2
:103AB00050726F677265737320626172000000005C
:103AC00054616E6B20656D7074790000416E7920D1
:103AD00074657874202E2E2E0000000000E3030889
:103AE000416E7920666F6E74202E2E2E000000002D
:103AF000604603082DE9FC4136A13FA000F0B8FC68
:103B000000F0C6F8FF2000F01BFA0646304609F028
:103B10003BFD06460020009003463B4A0E210190E3
:103B20003A4801F043FF054600240CE0384901EB18
:103B3000C4014868FFF7BCFC354911F83400012185
:103B400003F0E4FB641C0C2CF0D34FF47A70FFF705
:103B5000AFFC002410E0284609F007FB40B14FF409
:103B60009871284608F0CEFF0746214608F048F92C
:103B70006420FFF79DFC0A34642CECDD4FF44870A0
:103B8000FFF796FC284609F0F0FA40B114221146DE
:103B9000284609F022FB4FF4FA70FFF789FC28460B
:103BA00009F0E3FA40B114223C21284609F015FB44
:103BB0004FF44870FFF77CFC284609F0D6FA10B1A4
:103BC000284608F087FE00F0ABF9304609F0DCFC2F
:103BD000BDE8FC810A4469616C6F6720626F78659B
:103BE000730A63616E20656173696C792062652078
:103BF00063726561746564004469616C6F6720621B
:103C00006F78657300000000FD5001082CAA0108C0
:103C10007CAB010810B5DC200A4908600AA117A096
:103C200000F026FC01F044FE0EF064FC0BF014FBE7
:103C300000F076F90BF07CFB00F072F90BF0B6FAAD
:103C400010BD00006C0100200A4F7074696D697A24
:103C500065642064726177696E6720726F7574693C
:103C60006E650A666F722064726177696E6720679D
:103C70007261706820646174610000004472617751
:103C8000696E67206120677261706800704700008C
:103C900010B50349B1F9000009F066F910BD000044
:103CA000F0000020F0B58DB005F0ACF8064600EB52
:103CB000D670451034224C496846FCF7B9FA02F038
:103CC000C5FC064631466846FCF7E4FA4FF47F002F
:103CD00003F029FB454803F03CFB01F0E9FD4448B3
:103CE00003F066FB0F2004460246294641A002F07D
:103CF00063F86FF07F4003F02CFB404803F058FB63
:103D000004F11E000446024629463DA002F054F884
:103D1000364803F01EFB484803F04AFB04F1280034
:103D200004460246294645A002F046F84C4803F0F6
:103D30003FFB04F1190004460246294649A002F05F
:103D40003BF8504803F034FB6FF07F4003F001FB79
:103D500004F11500044602462946684602F02CF894
:103D6000494803F025FBFF2003F0F3FA05F04CF877
:103D7000A0F1280705F046F8064600EBD670411082
:103D80003A4642A002F018F86FF07F4003F0E1FAE3
:103D9000334803F00DFB05F037F8A0F11E0632465C
:103DA00000213EA001F0F4FF012001F0D3FE05F058
:103DB0002BF8A0F11406324600213BA001F0E8FFE9
:103DC00044F6206001F0C6FE05F01EF8A0F10A06D8
:103DD0003246002139A001F0DBFF41F28830FFF7C5
:103DE00067FB0DB0F0BD0000D8B10108FF80800076
:103DF00014BF0308B5432F47554900005468030812
:103E0000556E6976657273616C206772617068695E
:103E10006320736F6674776172650A666F722065DE
:103E20006D626564646564206170706C696361745F
:103E3000696F6E7300000000D4900308416E792012
:103E4000435055202D20416E79204C4344202D2095
:103E5000416E79204170706C69636174696F6E00A6
:103E600060460308436F6D70696C65642044656348
:103E700020323220323031332032303A32363A3149
:103E800030000000D871030800E3030877696C6410
:103E900066697265207465616D0000004755495F71
:103EA0004F533A20000000004755495F414C4C4FAA
:103EB000435F53495A453A2000000000436F6D703C
:103EC000696C65723A5265616C566965774D444B11
:103ED00020342E323300000010B503A10BA000F0F7
:103EE000C7FA10F099F910BD0A53616D706C6573D3
:103EF000207573656420696E0A4E61766967617426
:103F0000696F6E2073797374656D73004E617669A5
:103F1000676174696F6E2073797374656D0000005A
:103F200010B500200449087010F088FB03480068B1
:103F3000401C0249086010BD100100200C01002047
:103F400070B50546FF2001F026FD08B12C4600E0C3
:103F50000024204603F0E7F9204670BD70B5054601
:103F6000FF2001F018FD08B12C4601E06FF07F44FE
:103F7000204603F0EEF9204670BD00002DE9F84F11
:103F80004FF00D0A002004F0D7FE00904FF0F0082B
:103F900046244FF03C09A849A8A000F069FAA8EB14
:103FA0000908C4F5827090FBFAF56FF07F4003F0CA
:103FB000D0F9002003F0B7F901F07AFCA24803F031
:103FC000F7F9A2A001F03EFEA34803F0F1F9A3A087
:103FD00001F038FE42F29B0001F0BCFDA4A001F00C
:103FE00031FE102001F0B6FDA2A001F02BFEA3A02F
:103FF00001F028FE009801F0ADFDA1A001F022FE25
:10400000A2A001F01FFE40F2352001F0A3FDA3485D
:1040100003F0CEF96FF07F4003F09BF962190021A5
:104020009FA001F0B5FE032000FB054200219DA0EA
:1040300001F0AEFE052000FB054200219BA001F02F
:10404000A7FE062000FB054200219AA001F0A0FE79
:10405000082000FB0542002198A001F099FE0A20EB
:1040600000FB0542002197A001F092FE0C2000FB0E
:104070000542002195A001F08BFE0027D0E0C7EBA0
:104080000720B0FBF8F086B209EB07001FFA80FBAF
:10409000304603F05EF96019421E2146584602F090
:1040A0002FF9C6F1FF0101EB0121FF2202EB0120F4
:1040B00003F04FF9022000FB0540421E61195846EB
:1040C00002F01EF9300203F044F9032000FB054022
:1040D000421E022000FB0541584602F011F9C6F1CC
:1040E000FF0101EB014101F57F4003F032F90420AB
:1040F00000FB0540421E032000FB0541584602F02C
:10410000FFF8300403F025F9052000FB0540421EAE
:10411000042000FB0541584602F0F2F8C6F1FF0109
:1041200001EB012101F57F0003F013F9062000FBEC
:104130000540421E052000FB0541584602F0E0F80C
:1041400006EB062101EB064003F003F9072000FB14
:104150000540421E062000FB0541584602F0D0F8FB
:1041600006EB062003F0F5F8082000FB0540421E90
:10417000072000FB0541584602F0C2F8C6F1FF01D6
:104180004FF6FF7202EB014003F0E3F8092000FB59
:104190000540421E082000FB0541584602F0B0F8D9
:1041A00006EB0621080203F0D4F80A2000FB0540C4
:1041B000421E092000FB0541584602F0A1F8C6F155
:1041C000FF01444A881803F0C4F80B2000FB0540A7
:1041D000421E0A2000FB0541584602F091F806EB0A
:1041E000064003F0B6F80C2000FB0540421E0B20F1
:1041F00000FB0541584602F083F8C6F1FF014FF07D
:10420000FF1202EB012003F0A4F80D2000FB054093
:10421000421E0C2000FB0541584602F071F87F1C3D
:10422000474504DAFFF766F800283FF428AF00F0AE
:104230004FFBBDE8F88F00004CA90108436F6C6F7D
:104240007220626172000000B43E0308436F6C6F1D
:104250007220626172730A007C1A03080A4C43449C
:104260005F434F4E54524F4C4C45523A2000000091
:104270000A00000020627070000000002C20000086
:1042800020636F6C6F72730A0000000046697865E6
:10429000642070616C657474653A20009021030895
:1042A00052656400477265656E000000426C75657A
:1042B00000000000477265790000000059656C6CD1
:1042C0006F7700004379616E000000004D61676503
:1042D0006E74610000FFFF007047000010B50446D7
:1042E0000248046010F0B4F910BD00001401002071
:1042F00010B511A120A000F0BBF80FF023FF0D2294
:10430000224923A00FF066FE10222B492BA00FF0AC
:1043100061FE2F4A2FA13CA00FF0EEFE3F4A40A1C4
:1043200048A00FF0E9FE4C4A4CA14FA00FF0E4FE6C
:10433000FFF7F6FD10BD0000656D57696E207375BF
:1043400070706F7274730A554E49434F444520286C
:10435000616C6C2063686172616374657273290AB1
:10436000616E64205368696674204A495320284A64
:104370006170616E29000000496E7465726E61742F
:10438000696F6E616C20666F6E747300C84E0308AF
:104390004153434949206368617261637465727374
:1043A0000A26204575726F7065616E0A65787465BE
:1043B0006E73696F6E73000074AB030848697261B5
:1043C00067616E6120260A4B6174616B616E6100EA
:1043D00028010020466F6E74436F6E7665727465B7
:1043E0007220617661696C61626C6520746F206314
:1043F000726561746520796F7572206F776E2066C3
:104400006F6E74732E2E2E0050726F706F727469FF
:104410006F6E616C0A466F6E747300004401002079
:10442000466F6E7473207769746820666978656476
:10443000206368617261637465722077696474686F
:104440002E2E2E004D6F6E6F7370616365640A4689
:104450006F6E747300000000600100200A2B2D2095
:10446000302E3132333400004469676974730000C0
:104470002DE9F0419AB004460D4601A802F030FF44
:104480002E4804602E48056002F07EFFFFF700FC16
:104490004FF47F00FFF754FD6FF07F4002F059FFAB
:1044A00001F006FA274802F083FF04F0ADFC032177
:1044B00090FBF1F0A0F10A0704F0A4FC064600EB23
:1044C000D67041103A46204601F076FC1C48006840
:1044D000A8B11D4802F06CFF04F096FC064600EB04
:1044E000D6704010A0F10A0804F08CFC074600EBDF
:1044F000D770411042461248006801F05DFC104937
:10450000096811B14FF4FA6101E04FF47A6108468D
:10451000FEF7CEFF10F09CF810F090F801A802F022
:1045200075FE08F060FAFFF7FBFCFF20FFF708FDBF
:1045300001F0BEF91AB0BDE8F081000004010020CE
:1045400014010020F8F003087C1A0308F0B587B0C6
:1045500000265DA168A0FFF78BFF002508E06949F0
:1045600051F8250001F0FBF903A921F815006D1C95
:10457000082DF4DB02F065F8044600256FE005F035
:10458000070103AA32F8110002F0EEFEFBF73EFE2F
:10459000F02190FBF1F201FB1200783800B2ADF887
:1045A0000400FBF733FE4FF4A07190FBF1F201FB26
:1045B0001200A03800B2ADF80600FBF727FEF0218C
:1045C00090FBF1F201FB1201BDF804001430084425
:1045D00000B2ADF80800FBF719FE4FF4A07190FB94
:1045E000F1F201FB1201BDF806001430084400B2DC
:1045F000ADF80A00BDF90A30BDF90820BDF9061072
:10460000BDF9040001F01AFFBDF90800F02802DB33
:10461000EF20ADF80800BDF90A00B0F5A07F03DB7C
:1046200040F23F10ADF80A00BDF90400002802DA9C
:104630000020ADF80400BDF90A00002802DA0020CD
:10464000ADF80A00BDF90800BDF90410401ABDF923
:104650000A10BDF90620891A00FB01666D1C01F0E5
:10466000F0FF001BB0F5FA5F03DAFEF743FE002807
:1046700085D001F0E6FF001B642190FBF1F401F00E
:1046800017F9FFF74DFC204802F092FE6FF07F40D3
:1046900002F05FFE01F0B8FFC0F5A07707EBD7701E
:1046A0004210052119A001F073FB04B9641C96FBAC
:1046B000F4F000EB80004700384601F04BFA00F0C0
:1046C00007F907B0F0BD00000A6D756C7469206CC5
:1046D0006179657220636C697070696E670A6869D8
:1046E00067686C79206F7074696D697A656420649D
:1046F0007269766572730000486967682073706537
:1047000065640000DC020208F4050408506978655D
:104710006C732F7365633A20000000002DE9F047A9
:1047200086B004F06FFB054604F06EFB8146284618
:1047300005EBD0714F10484609EBD0714FEA610884
:10474000FFF7EEFBFFF7A4FA00BF0020ADF8100062
:104750005020ADF8120028B2ADF814007820ADF862
:1047600016004FF47F0002F0DEFD01F0A1F8681E94
:1047700044490988A0EB010A0AEBDA7041100F22C4
:10478000404801F013FC404802F012FE0E2204A93A
:104790003EA001F02BFB02200321CDE90010A8F17F
:1047A0001401A7F1320032236422FCF765FBADF857
:1047B000080002200121CDE90010A7F15A001E23B4
:1047C000502208F12801FCF757FBADF80A0002203F
:1047D00000901E23502208F12801019007F10A00E1
:1047E000FCF74AFBADF80C00BDF908002DA1FCF761
:1047F00035FCBDF90800FF220021FCF7CBFBBDF919
:104800000A002BA1FCF72AFCBDF90C002BA1FCF738
:1048100025FCBDF908001C49FCF7E4FB00F060F83A
:1048200004464CB90124BDF90A002102FCF70EFC34
:104830004FF4FA70FEF73CFE002605E002A931F9BC
:10484000160008F047F8761C032EF7D3012C04D08D
:10485000022C09D0032C0AD103E00CF08FFB044694
:1048600005E00CF06BFA02E00FF0DCFD00BF00BFCA
:1048700024B16E2C02D04E2C7FF467AF06B0BDE899
:10488000F087000070FE0208F8F00308656D5769B4
:104890006E20546F7563682073637265656E206463
:1048A000656D6F0043616C69627261746500000040
:1048B0004B6579626F617264000000005465737427
:1048C0002063616C6962726174696F6E0000000040
:1048D00010B54FF47A60FEF7EBFDFFF721FB10BD3A
:1048E0002DE9F843002501F0ACFE00F57A6604F0EE
:1048F0008BFAA0F1280804F085FAA0F146090220FD
:104900000523502241460090484606F051FD0746D7
:1049100004E001F083FE050000D00BE001F091FE01
:10492000341A24B1FEF7E6FC08B9012000E00020AB
:104930000028EED100BF384607F0CCFF08F053F84E
:104940002846BDE8F88300002DE9F0479AB000F052
:104950007DFF00F0ADFF042008F004FE1E205C493E
:10496000086014205B49086004F04EFAA0F13C098D
:1049700004F048FAA0F1500A3C20502153460A2284
:10498000CDE900910290544954A0FDF7A6FD554988
:104990004880B1F9020008F0A1F8534948800E217F
:1049A00048225148B0F90200CDE901210090494860
:1049B00003684748142102680420FCF773FA4B4946
:1049C00008800E214E224848B0F90200CDE90121AD
:1049D0000090404803683E48142102682820FCF7F4
:1049E00061FA42494880B1F9000041A1FCF736FB69
:1049F0003E49B1F9020040A1FCF730FB0FF01EFE6A
:104A000007F0F1FFFFF74EF904F0FCF9814600EBE7
:104A1000D9704510412604F0F5F9471B4FF0000806
:104A20003B460822002136A0CDE900850296FDF71D
:104A300054FD2C490880B1F9000008F073F82A49A8
:104A400008802849B1F9000008F06CF88146002080
:104A50000A22CDE90120034602460146CDF8009026
:104A6000039007F05FFE2049088007F0BCFF00209C
:104A70002649086018E001A802F032FC0020244911
:104A800008600FF0DBFD2349204A126851F822002C
:104A9000804700202049087001A802F0B7FB1B489E
:104AA0000068401C194908601A481849096850F8FC
:104AB00021000028DFD1002405E00A4931F9140063
:104AC00007F008FF641C032CF7D31AB0BDE8F08789
:104AD000F8000020FC00002065520108436F6E744E
:104AE000726F6C00F000002000010020EC0000203C
:104AF00048616C74000000004E657874000000008E
:104B0000656D57696E2044656D6F000008010020D7
:104B10000C010020A4000020100100202DE9F04F1E
:104B20008BB005465C48B0F926000A905A48B0F9A7
:104B300028A0C0698469B4F80C80A84509DCE08924
:104B4000A84206DBD4F80090A5EB08064FF0FF372B
:104B50001DE0A068D4F80490A8B1B0F80080A84582
:104B60000DDC4188A9420ADB0288AA1A95B2416885
:104B700001EB8501B1F90060B1F9027006E04FF078
:104B8000FF36374602E04FF0FF36374600BF701C55
:104B900077D04148C069007DA17C48430990207CC2
:104BA00008903D48C069007D07903B48B0F92EB0A1
:104BB000584604F033FBC0B20690374A099806FB0A
:104BC0000090A17C0123CDE90231CDE90402104619
:104BD000C069C07D1146C969897DCDE90010514683
:104BE000DDE907320A9803F085FE781C1BD04BF0F4
:104BF000020004F013FB284A099807FB0090A17CEF
:104C00000123CDE90231CDE904021046C069C07D1F
:104C10001146C969897DCDE900105146DDE90732A9
:104C20000A9803F067FE1C48C069407D1A49C969AB
:104C3000097D884221DDBBF1020F1ED08BF00400FC
:104C400004F0ECFA1448C069007DDFF84CC0DCF8D1
:104C50001CC09CF815C000FB0CA10F48C069407D2A
:104C600000EB0A030C48C06990F816E0DDF820C09C
:104C70000A980CFB0E0204F019F8069804F0CEFA1C
:104C800000BF0548C08C617C084400B20249C8845A
:104C90000BB0BDE8F08F0000509B00200146034898
:104CA000C069826900BF507C70470000509B0020A3
:104CB00000BF02220A807047F0B50446A3699D89AF
:104CC0008D4204DCD889884201DB0120F0BD9A685E
:104CD00092B1108888420FDC508888420CDB506803
:104CE00000EB81001788A0EB8706B6F900000028CA
:104CF00001DB0120EAE700BF00BF0020E6E700007B
:104D00002DE9F04F87B005464C48B0F92E8001469A
:104D1000C9698869294600F095F80646002E7DD0BD
:104D20003188691A706800EBC104A778404604F026
:104D300075FA06904248007858B14048B0F926000C
:104D400061783E4AD269927D01FB120000B23B4974
:104D5000C8843A4901226068CDE90227CDE90401FF
:104D60000846C069C07DC969897DDFF8D0C0CDE93A
:104D70000010DCF81CC09CF814302278DFF8BCC0AE
:104D8000BCF92810BCF9260003F0B4FD2B48C0691B
:104D9000407D2A49C969097D884237DD2748C069B5
:104DA00090F817902548C069407D00FB09FA234818
:104DB000C069007D00FB09FBB8F1020F25D001F0AE
:104DC000FCFB059001F0D2FB049002F0C2FADFF880
:104DD0006CC0BCF926C094F800E00CEB0E02DFF8C2
:104DE0005CC0BCF928C00CEB0A03DFF850C0BCF96A
:104DF00028C00CEB0B01DFF844C0BCF9260003F01F
:104E000055FF059802F0A5FA00BF00BF069804F010
:104E100005FA0B48007868B9084800E00BE0B0F9E3
:104E200026006178054AD269927D01FB020000B23A
:104E30000249C88400BF07B0BDE8F08F509B002036
:104E40004802002007E002888A4203DC42888A4246
:104E500000DB02E080680028F5D100BF7047000049
:104E600070B504460949C96988692146FFF7EAFF18
:104E700005464DB12988611A686810F83100034968
:104E8000C969897D484370BD0020FCE7509B002024
:104E900000BF01220A80704770B504460D462946BE
:104EA000A069FFF7CFFF06460EB1012070BD0020BC
:104EB000FCE7000010B5002414E004EB840101EBD2
:104EC000C4010A4A02EBC101081D64220849FBF72C
:104ED000AFF9002004EB840101EBC401034A42F85E
:104EE0003100641C042CE8DB10BD0000B49B0020E2
:104EF000509B002010B54FF0FF300249086002F0CF
:104F00007DFE10BD7C0200200120024981F8610075
:104F100070470000509B002010B50CF08BFC04483B
:104F200000680449C86501F10800486110BD00002F
:104F3000BC010020509B00207CB505460E4614465F
:104F400001F044FC08F098FD054408F0A1FD06447A
:104F50001A4890F8610058B9184890F86000454325
:104F6000164890F860004643144890F860004443A7
:104F7000281B00F057F8ADF80000281900F052F88F
:104F8000ADF80400301B00F04DF8ADF80200301908
:104F900000F048F8ADF80600684608F0B1FD48B1E9
:104FA00000BF224631462846FDF7DCFF08F022FD0F
:104FB0000028F6D102F0F2FD7CBD0000509B0020DD
:104FC0002DE9F04106460F4614461D4601F0FEFB52
:104FD00008F052FD044408F05BFD0544002008F091
:104FE0008FFDC0B100BF0E48C06C806B48B10C484B
:104FF000C06C2B4622463946D0F838C03046E047D0
:1050000005E02B462246394630460CF0BFF808F042
:10501000F1FC0028E7D102F0C1FDBDE8F0810000FD
:10502000509B00200146064890F8600028B10448D3
:1050300090F8600091FBF0F000E0084600B2704785
:10504000509B002070B504460D460026002C00DA67
:105050000024281BEF2801DD04F1EF05A54201DA49
:10506000254601260F48C26D0F4806CA06C00D48E6
:10507000C06D0E4908600E480B4908600846094992
:10508000C8650C480C4908600C4804600C48056071
:1050900009F0AAFFFCF76EF80A4802494861304659
:1050A00070BD0000509B0020B4010020BC01002016
:1050B00019040108583800209401002098010020AC
:1050C0009C010020AC01002070B504460D46074845
:1050D00090F8600094FBF0F4044890F8600095FBB1
:1050E000F0F529462046FFF7ADFF70BD509B00202C
:1050F00010B50446024981F86040FCF73BF810BD4A
:10510000509B00202DE9F04105460C4601F05EFB66
:1051100014B90020BDE8F081204600F017F80646DB
:1051200086B1304600F0E6F807462DB12246294602
:105130003846FBF77DF804E022460021384603F0AC
:10514000EDF900BF02F02AFD3046E3E770B50446F2
:105150000CB9002070BD01F039FB204609F06CFB52
:10516000054602F01BFD2846F4E770B5044601F041
:105170002DFB2046FFF7EAFF05463DB1284600F02B
:10518000B9F806462246002103F0C8F902F006FDF0
:10519000284670BD10B5044604B910BD01F016FBD9
:1051A00020460CF0B1FB02F0F9FC00BFF5E710B5AA
:1051B000044601F00BFBB4F90000FFF7EBFF002001
:1051C000208002F0EBFC10BD70B505460E460024B1
:1051D00004E005EB4400FFF7EAFF641CB442F8DB8F
:1051E00070BD00002DE9F041002701F0EFFA09F051
:1051F00095FE002510E0154830F83500134901EB05
:10520000C50149880844114931F83610081A04B21A
:10521000BC4200DD274635460C4800EBC5008688B9
:10522000002EE8D1094830F83500084901EBC501E6
:105230004988084444F62061081A04B2BC4200DDE3
:10524000274602F0ABFC3846BDE8F081A487002079
:1052500070B5044600251CB120460CF01FFF054622
:10526000284670BD40F2722009494860886044F6C3
:105270002060C881088200200860888104200549D8
:10528000488000200880888001200349087070470A
:105290003C9B0020A48700201C0200202DE9F04741
:1052A00005460C4620B2FFF751FF0646FEB1F5B1A8
:1052B0002846FFF7CDFF8046A04501DA404600E0D2
:1052C0002046074601F082FA304600F013F8824685
:1052D000284600F00FF881463A4649465046FAF70C
:1052E000A7FF02F05BFC2846FFF754FF00BF3046E3
:1052F000BDE8F087014609B900207047024830F93F
:105300003100024A1044F8E7A487002084390020C5
:105310002DE9F05F0446884616464FF00009CA465C
:1053200001F054FA46B131B24046FFF7EBFE5FEAB6
:10533000000901D14FF0010ABAF1000F1BD1B4F8F6
:1053400000B00BF101025100B4F90200FFF7A6FF13
:1053500005462DB94846FFF71DFF4FF0010A09E049
:105360002846FFF7C7FF074627F81B90658020886F
:10537000401C208000BF02F011FC5046BDE8F09FA9
:105380002DE9F0410446B4F9027097B13846FFF7B1
:10539000B1FF0646002504E006EB4500FFF707FFD6
:1053A0006D1C2088A842F7DCA01CFFF700FF00203E
:1053B0002080BDE8F0810146088870472DE9F04162
:1053C00004460D464FF000082088A84209D9B4F9D8
:1053D00002702FB13846FFF78DFF064636F915806B
:1053E00000BF4046BDE8F0812DE9F04105460E467C
:1053F000002731462846FFF7E1FF04461CB120464E
:10540000FFF778FF07463846BDE8F08130B51368EE
:1054100014680C441460002415682C7004E000F03B
:10542000010430345C5440080C00A1F10105E9B2DC
:10543000F5D130BD70B505460C46284601F018FA86
:10544000C6B2234600223146284600F001F870BD5E
:105450002DE9FF410D4616461C462146684609F0D7
:10546000B2FD281AC5B20EB1681EC5B2174850F871
:1054700025000099884204D8144850F82500401EA1
:1054800000901CE02846691ECDB2B04205D11048FC
:1054900001782268501C206011700C4850F825805B
:1054A000009890FBF8F0C7B2009807FB1800009036
:1054B00007F13000C1B22268501C20601170002D2D
:1054C000E0D1002021680870BDE8FF8198FE020845
:1054D0002802002030B51368082900DD30BD1468AB
:1054E0000C441460002415682C7005E000F00F04D3
:1054F000054D2C5D5C5400090C00A1F10105E9B2D9
:10550000F4D100BFEAE70000C0FE020810B5002891
:1055100002DA2D22404200E02B220C68631C0B6053
:10552000227000230C68237010BD000010B501F03C
:105530004DF90CF079FE0020044908700449086018
:105540000449086002F02AFB10BD00005702002049
:105550003C020020400200202DE9F047054601F002
:1055600035F92348D0F80080006885423AD02C688D
:10557000E0680068042801DD042001E0E0680068BC
:1055800007460AE0E068806850F82790484603F034
:1055900039F9184921F8170000BF3800A7F10107B1
:1055A000F0D10CF041FE2088618848434600124843
:1055B0000068864207D01148B0F90000FFF7EAFD05
:1055C00000200E49088030B2FFF7CFFD0B4908805C
:1055D00001200B4908700648056009F0F3FB0EF046
:1055E000E5FC00BF02F0DAFA4046BDE8F0870000B3
:1055F0005802002074020020600200204C020020AB
:10560000570200202DE9F34F93B001F0DFF88948ED
:105610000088002877D0884801681398814201D01B
:10562000012000E0002085490A6814998A4201D0CF
:10563000012100E000210843ECD0814800780028D7
:1056400070D080480068006808907A48B0F900007F
:10565000FFF750FE09907B4800680068B0F800B082
:10566000754913980968461A002E0DDD0120119026
:10567000002012907348006800680088109010980D
:10568000A0F1010A0F960DE04FF0FF301190ABF141
:10569000010012904FF0FF30109000200F901298F0
:1056A00000EB060A654914980968471A002F0DDDBA
:1056B00001200D9000200E9062480068006840882C
:1056C0000C900C98401E0A900B9710E04FF0FF30A2
:1056D0000D905C48006800684088401E0E904FF0B6
:1056E000FF300C9000200B900E9838440A900E9CCE
:1056F0008DE004EB07080B98844205DB0A9884428E
:1057000002DC012001E08FE0002007900B9880452B
:1057100004DB0A98804501DC012000E000200690AF
:10572000129D6FE078E0099800EB450104FB0BF057
:1057300001EB4000019005EB060922462946089836
:1057400000F0BFFE03900F98854205DB554503DC52
:10575000079808B1012000E0002005900F988145CE
:1057600005DBD14503DC069808B1012000E00020EC
:105770000490039898B1059828B1E21BA91B0898DA
:1057800000F09FFE58B9019B1A882F4BB3F90230E5
:1057900019192D4BB3F9003058190EF05FFB04981E
:1057A00040B1099800EB490108FB0BF031F81000FB
:1057B00002900DE0244AB2F9022002EB0801224ACD
:1057C000B2F9002002EB09000CF068FB80B20290F5
:1057D000DDE901100880039890B103980CF030FFC8
:1057E00080B20090184AB2F9022002EB0801164A72
:1057F000B2F9002002EB0900009A0EF02FFB00BF67
:1058000011980544109885428DD10D9804440C9848
:1058100084427FF46EAF00BF0749139808600749C0
:105820001498086009F0CEFA02F0B8F915B0BDE896
:10583000F08F00004C02002064020020680200206B
:1058400057020020580200204E02002010B500F040
:10585000BDFF0E48C06C016A0D4888470CF0E4FC9F
:1058600001200C4908700C480C4908600C480D498F
:1058700008600D48006818B90C48FFF76DFE01E09C
:105880000EF094FB02F08AF910BD0000509B00203E
:105890006C02002057020020ED4301083C0200206A
:1058A0001D4401084002002058020020BCFF0208ED
:1058B00010B50021084600F015FF40F6FF731A46A8
:1058C0005942084600F002F810BD00002DE9FC41E5
:1058D00004460D4616461F4600F078FF042003F0EC
:1058E0009DFC80461648406C04441548806C054475
:1058F0001348406C06441248806C074420B2ADF84F
:10590000000030B2ADF8040028B2ADF8020038B2A1
:10591000ADF80600684608F0F3F850B100BF3B460A
:1059200032462946204603F0C1F908F063F8002802
:10593000F5D1404603F072FC02F030F9BDE8FC817D
:10594000509B002070B50446B4F90630B4F9042029
:10595000B4F90210B4F90000FFF7B8FF70BD70B5DC
:10596000044600F033FF204602F04CFF054602F0EB
:1059700015F9284670BD70B5044600F027FF204693
:1059800002F040FF05B2284603F074FA064602F022
:1059900005F9304670BD10B504462046FFF7EBFF11
:1059A000A04201D1012010BD0020FCE72DE9FC5FE1
:1059B00004460D4616461F46DDE90CAB00965B46D5
:1059C000524639462046D4F800C0E0478046B8F138
:1059D000000F02D10020BDE8FC9F404607F07EF892
:1059E0000190618A404606F021FC404607F014FF12
:1059F000019807F011FF16E01834002000900346CC
:105A00000246D4F800C020460199E0478146B9F12A
:105A1000000F04D1404606F05DFF0020DBE748465A
:105A200007F0FAFE00BF681E051EE5DC404607F0E1
:105A300023FE1D21019807F0EEFC4046CBE7000055
:105A40002DE9F04105460E4617460C20FFF78DFB69
:105A50008046B8F1000F0FD000F0B8FE4046FFF7C7
:105A600049FC044606482060656030B2208138B2A7
:105A7000608102F093F800BF4046BDE8F08100006D
:105A8000FC0C04082DE9F04104460E46174654B1BB
:105A90002046FFF72FFC054628683A463146036842
:105AA0002846984700BFBDE8F08170B5054600F074
:105AB000C8FD461909E000F060FC052C01DD052158
:105AC00000E02146084602F075F800F0BAFD341AED
:105AD000002C01DD012000E000200028EBD170BD8A
