:020000040800F2
:100000004804002045010008791300087B1300080C
:100010007F13000883130008871300080000000006
:100020000000000000000000000000008B1300082A
:100030008D130008000000008F13000891130008C2
:100040005F0100085F0100085F0100085F01000810
:100050005F0100085F0100085F0100085F01000800
:100060005F0100085F0100085F0100085F010008F0
:100070005F0100085F0100085F0100085F010008E0
:100080005F0100085F0100085F0100085F010008D0
:100090005F0100085F0100085F0100085F010008C0
:1000A0005F0100085F0100085F0100085F010008B0
:1000B0005F0100085F0100085F0100085F010008A0
:1000C0005F0100085F0100085F0100085F01000890
:1000D0005F0100085F0100085F0100085F01000880
:1000E0005F0100085F0100085F0100085F01000870
:1000F0005F0100085F0100085F0100085F01000860
:100100005F0100085F0100085F0100085F0100084F
:100110005F0100085F0100085F0100085F0100083F
:100120005F0100085F0100085F0100085F0100082F
:10013000DFF80CD001F0F8FB004800478B110008F5
:10014000480400200648804706480047FEE7FEE7CF
:10015000FEE7FEE7FEE7FEE7FEE7FEE7FEE7FEE777
:1001600045020008310100080CB500200190009004
:100170006B48006840F480306949086000BF6848F7
:10018000006800F4003000900198401C0190009835
:1001900018B90198B0F5A06FF1D16148006810F46A
:1001A000003F02D00120009001E000200090009864
:1001B000012842D15B48006840F0100059490860AE
:1001C0000846006820F0030008600846006840F018
:1001D000020008605248406851494860084640683B
:1001E00048600846406840F48060486008464068BF
:1001F00020F47C1048600846406840F4E8104860ED
:100200000846006840F08070086000BF44480068FD
:1002100010F0007FFAD04248406820F003004049C7
:1002200048600846406840F00200486000BF3C4813
:10023000406800F00C000828F9D10CBD10B5FFF79C
:1002400093FF10BD10B53648006840F001003449F6
:10025000086008464068344908403149486008460B
:100260000068324908402E4908600846006820F4BA
:10027000802008600846406820F4FE0048604FF483
:100280001F008860FFF7DAFF4FF000602849086020
:1002900010BD10B5002100200022214B5B6803F047
:1002A0000C0121B1042906D0082928D107E0214BEF
:1002B000214C236027E01F4B1F4C236023E0184B89
:1002C0005B6803F47010164B5B6803F48032022302
:1002D00003EB904022B9194B4343174C23600DE0C8
:1002E0000F4B5B6813F4003F04D0144B4343124C94
:1002F000236003E00F4B43430F4C236003E00D4B9F
:100300000D4C236000BF00BF054B5B68C3F30313B4
:100310000B4CE15C084B1B68CB40074C236010BDC5
:1003200000100240002002400000FFF8FFFFF6FE30
:1003300008ED00E000127A000000002000093D00F6
:100340000400002010B50446CA48844208D10121A7
:10035000042000F027FB0021042000F023FB46E0EE
:10036000C548844208D10121082000F01BFB002170
:10037000082000F017FB3AE0C048844208D1012170
:10038000102000F00FFB0021102000F00BFB2EE0EE
:10039000BB48844208D10121202000F003FB00214A
:1003A000202000F0FFFA22E0B648844208D1012163
:1003B000402000F0F7FA0021402000F0F3FA16E0A8
:1003C000B148844208D10121802000F0EBFA0021DD
:1003D000802000F0E7FA0AE0AC48844207D101210E
:1003E000801500F0DFFA0021A01500F0DBFA10BD47
:1003F00010B50121084600F0D5FA0021012000F0D7
:10040000D1FA10BD2DE9F04102460025002600205A
:1004100000230024002791F803C00CF00F0591F889
:1004200003C01CF0100F03D091F802C04CEA050580
:1004300091F800C0BCF1000F31D0146800202BE00F
:100440004FF0010C0CFA00F3B1F800C00CEA0306FF
:100450009E4220D183004FF00F0C0CFA03F7BC43EF
:1004600005FA03FC4CEA040491F803C0BCF1280F20
:1004700006D14FF0010C0CFA00FCC2F814C00AE0DF
:1004800091F803C0BCF1480F05D14FF0010C0CFAF4
:1004900000FCC2F810C0401C0828D1D31460B1F889
:1004A00000C0BCF1FF0F34DD546800202EE000F1E5
:1004B000080C4FF0010808FA0CF3B1F800C00CEA80
:1004C00003069E4221D183004FF00F0C0CFA03F774
:1004D000BC4305FA03FC4CEA040491F803C0BCF1E8
:1004E000280F05D100F1080C08FA0CF8C2F81480A6
:1004F00091F803C0BCF1480F07D100F1080C4FF090
:10050000010808FA0CF8C2F81080401C0828CED365
:100510005460BDE8F0814FF6FF71018002218170C7
:100520000421C17070470246002093680B4201D03D
:10053000012000E0002070470146886880B27047C3
:1005400002460020D3680B4201D0012000E00020C9
:1005500070470146C86880B27047016170474161C9
:1005600070470AB1016100E041617047C1607047A6
:100570004FF480320A4382618161826182698269BB
:10058000704702460020424B18684FF680731840AF
:1005900040EA021008433E4B186070473D49C8616D
:1005A0007047F0B50A46002300240021002500F022
:1005B0000046B6F1004F02D1354EF16901E0344EEC
:1005C0007168C0F3034583B200F44016B6F5401FCE
:1005D00008D121F070612E4E766826F070662C4F9F
:1005E0007E6012E000F48016B6F5801F06D1032667
:1005F00006FA05F4A14341F0706106E0460D3601AC
:1006000003FA06F6B14341F0706122B1460D36019E
:1006100003FA06F6314300F00046B6F1004F02D16E
:100620001B4EF16101E01A4E7160F0BD30B5002241
:100630008B071C0F0F2303FA04F2154B08338C10A1
:1006400053F824309343124C08348D1044F825306D
:1006500023468C1053F824308C07240F00FA04F43E
:1006600023430B4C08348D1044F8253030BD0A4923
:100670000860704700080140000C01400010014074
:100680000014014000180140001C014000200140FE
:100690000000014000002042DC002042DD480068EC
:1006A00040F00100DB49086008464068DA4908402C
:1006B000D849486008460068D8490840D5490860CC
:1006C0000846006820F4802008600846406820F44E
:1006D000FE0048604FF41F0088607047CD490968EC
:1006E00021F48031CB4A11601146096821F4802140
:1006F0001160B0F5803F03D0B0F5802F0ED106E039
:10070000C449096841F48031C24A116007E0C14917
:10071000096841F4A021BF4A116000E000BF00BF9A
:10072000704710B501460022002300204A11012A1B
:1007300002D1B84C236806E0022A02D1B54C236AE4
:1007400001E0B44C636A01F01F02012494401C4292
:1007500001D0012000E0002010BD38B5002000903D
:100760000024002500BF3120FFF7DBFF054600987D
:10077000401C00900098B0F5A06F01D0002DF2D081
:100780003120FFF7CEFF08B1012400E0002420460D
:1007900038BD014600209F4A106820F0F80040EA6A
:1007A000C100106070479E490860704702460020F3
:1007B000984B586820F47C1042EA01031843954B8B
:1007C0005860704796490866704701460020914A74
:1007D000506820F003000843506070478D4840681F
:1007E00000F00C007047014600208A4A506820F053
:1007F000F00008435060704701460020854A506869
:1008000020F4E06008435060704701460020814AB0
:10081000506820F4605040EAC1005060704729B130
:100820007C4A527A02437B4B5A7204E0794A527AEC
:100830008243784B5A7270477A4908607047014684
:100840000020744A506820F44040084350607047CC
:100850000021754A11706F4A82F82010012802D0D9
:10086000042808D103E001216F4A117004E005213A
:100870006D4A117000E000BF00BF70476B4908600F
:1008800070476449096A0143624A116270476749C7
:1008900044390860704730B500210022002400234D
:1008A0005C4D6D6805F00C0121B1042905D00829C3
:1008B00023D105E05E4D056022E05D4D05601FE03F
:1008C000544D6D6805F47012524D6D6805F4803416
:1008D000022505EB92421CB9564D554305600BE0CD
:1008E0004C4D6D6815F4003F03D0524D55430560E3
:1008F00002E04F4D5543056002E04D4D056000BFDD
:1009000000BF444D6D6805F0F00109094A4D6B5C6C
:100910000568DD4045603F4D6D6805F4E061090AFA
:10092000454D6B5C4568DD4085603A4D6D6805F46A
:100930006051C90A404D6B5C4568DD40C560354D6E
:100940006D6805F44041890B3C4D6B5CC568B5FB97
:10095000F3F5056130BD29B12E4A526902432D4B92
:100960005A6104E02B4A526982432A4B5A6170470C
:1009700029B1284A92690243264B9A6104E0254A2C
:1009800092698243234B9A61704729B1214AD26907
:100990000243204BDA6104E01E4AD26982431D4BB8
:1009A000DA61704729B11B4AD2680243194BDA60F9
:1009B00004E0184AD2688243164BDA60704729B1C6
:1009C000144A12690243134B1A6104E0114A126976
:1009D0008243104B1A6170471449403908607047D0
:1009E0000F49C86470470B49C87170470948406A8D
:1009F00040F0807007494862704701460020054A70
:100A000092680A4201D0012000E0002070470149AD
:100A100088727047001002400000FFF8FFFFF6FEEA
:100A200000004242D800424220100240800442426C
:100A300000127A0000093D0014000020240000206C
:100A400010B50446BE48844208D101218014FFF746
:100A5000A9FF0021A014FFF7A5FF16E0B9488442C2
:100A600008D101210014FFF7AAFF00212014FFF78D
:100A7000A6FF0AE0B448844207D10121C013FFF762
:100A80009EFF0021E013FFF79AFF10BD10B5002272
:100A9000028802F441520B884C8823438C882343FC
:100AA000CC8823430C8923434C8923438C892343DB
:100AB000CC8923431A430280838B4FF2FF74234077
:100AC00083830B8A038210BD2DE9F04F85B0054664
:100AD0000C464FF0000902274FF000084FF0010BC1
:100AE0000026B246A88B4FF240010840A88302209E
:100AF0002884B5F81C90A068022801D100BF38E016
:100B0000A08810B94FF0010B01E04FF0020B8D48A7
:100B1000854200D100E000BF6846FFF7BCFEDDF86B
:100B200000A0E088B0F5007F0AD14FEA1A2000EB60
:100B300080004000A168B0FBF1F0401D86B20BE0E0
:100B40004FEA4B10BAFBF0F000EB80004000A168C8
:100B5000B0FBF1F0401D86B20A20B6FBF0F606F0BD
:100B60000108A6EB0800C0F34F074FF6FF7000EA3C
:100B70000828022F01DBFF2F02DD02274FF00008BB
:100B8000E08840EA080038432884A088A189084307
:100B9000618808432188084340F4006040EA09095D
:100BA000A5F81C9005B0BDE8F08F002101804180C0
:100BB0008180C180018141818181C18107210182C0
:100BC00070470021018041808180C18002218160C5
:100BD00000218181704721B1028842F040020280E9
:100BE00004E002884FF6BF731A400280704721B1BB
:100BF000828B42F48062828304E0828B4FF6FF3363
:100C00001A408283704730B5002400230C1101255F
:100C1000A540ABB21AB185881D43858002E0858866
:100C20009D43858030BD1AB183880B43838002E0E9
:100C300083888B4383807047818170470146888910
:100C40007047A1F57E42FF3A04D0028842F48072D8
:100C5000028004E002884FF6FF631A40028070476A
:100C600021B1828842F00402828004E082884FF63B
:100C7000FB731A408280704702884FF2FF731A405C
:100C8000028002880A4302807047018841F4805143
:100C90000180704721B1028842F40052028004E0D2
:100CA00002884DF6FF731A4002807047024600200A
:100CB000012901D0108B00E0908A70470146088A14
:100CC0007047B1F5804F04D1028842F4804202801F
:100CD00004E002884BF6FF731A4002807047024618
:100CE000002013890B4201D0012000E00020704752
:100CF000CA4302817047F0B5024600200024002359
:100D0000002501F00F070126BE40B4B20B110126E9
:100D10009E40B3B2968806EA03051689264202D0A1
:100D20000DB1012000E00020F0BD10B5002201F05F
:100D30000F040123A3409AB2D343038110BD0000E6
:100D40000030014000380040003C004010B504462F
:100D5000FB48844209D101218803FFF723FE0021CB
:100D60004FF48040FFF71EFE32E0F648844209D17E
:100D700001214804FFF723FE00214FF40030FFF764
:100D80001EFE25E0F048844209D101218804FFF7C6
:100D900016FE00214FF48020FFF711FE18E0EB480B
:100DA000844209D10121C804FFF709FE00214FF454
:100DB0000020FFF704FE0BE0E548844208D1012142
:100DC0000805FFF7FCFD00214FF48010FFF7F7FD49
:100DD00010BD2DE9F04786B005460E460024A24618
:100DE00000BFA1460027B08900B100BF2F462C8A62
:100DF0004CF6FF700440F08804432C82AC894EF618
:100E0000F3100440B08831890843718908430443D2
:100E1000AC81AC8A4FF6FF400440B0890443AC82F9
:100E200001A8FFF738FDC648874202D1DDF810A0BF
:100E300001E0DDF80CA0A88910F4004F08D00AEBFF
:100E4000CA0000EB0A1031684900B0FBF1F807E076
:100E50000AEBCA0000EB0A1031688900B0FBF1F818
:100E60006420B8FBF0F004012009642101FB108923
:100E7000A88910F4004F08D0322000EBC900B0FB65
:100E8000F1F000F00700044308E0322000EB091005
:100E90006421B0FBF1F000F00F0004432C8106B098
:100EA000BDE8F0874FF41651016000218180C180B8
:100EB00001810C21418100218181704710B50246DA
:100EC0000020108A4FF2FF0318400B884C88234300
:100ED0008C882343CC8823431843108210BD002103
:100EE000018041808180C180704721B1828942F4B4
:100EF0000052828104E082894DF6FF731A4082819C
:100F00007047F0B503460024002600250020A1F517
:100F100010676A3F00D100BF1846C1F3421401F0C8
:100F20001F06012707FA06F5012C01D10C3004E059
:100F3000022C01D1103000E014301AB107682F43A1
:100F4000076002E00768AF430760F0BD1AB1838A0B
:100F50000B43838202E0838A8B4383827047028A39
:100F60004FF6F0731A400282028A0A4302827047E7
:100F700082894FF2FF731A40828182890A438281FB
:100F8000704721B1828942F00202828104E08289A5
:100F90004FF6FD731A4082817047028A4FF6DF7365
:100FA0001A400282028A0A430282704721B1028AF1
:100FB00042F48042028204E0028A4BF6FF731A4038
:100FC00002827047C1F30802828070470146888818
:100FD000C0F308007047818941F0010181817047A9
:100FE000028BD2B20283028B42EA01220283704753
:100FF000028B02F47F420283028B0A430283704712
:1010000021B1828A42F02002828204E0828A4FF675
:10101000DF731A408282704721B1828A42F0100247
:10102000828204E0828A4FF6EF731A408282704710
:1010300021B1828A42F00802828204E0828A4FF65D
:10104000F7731A408282704721B1828942F40042CC
:10105000828103E08289C2F30E028281704721B14E
:10106000828A42F40062828204E0828A4FF2FF7335
:101070001A4082827047828A4FF6FB731A4082823E
:10108000828A0A438282704721B1828A42F0020238
:10109000828204E0828A4FF6FD731A408282704792
:1010A00002460020B1F5007F00D100BF13880B423B
:1010B00001D0012000E00020704701F40072B2F579
:1010C000007F00D100BFCA430280704770B502465E
:1010D0000024002300250020A1F510666A3E00D1FF
:1010E00000BFC1F3421501F01F03012606FA03F306
:1010F000012D02D19689334006E0022D02D1168AD5
:10110000334001E0968A33400C12012606FA04F4BB
:101110001688344013B10CB1012000E0002070BDEE
:1011200010B500220023A1F510646A3C00D100BF75
:101130000A1201249440A3B2DC43048010BD0000D5
:10114000003801400044004000480040004C00408E
:101150000050004010B5034607E018780C78A04214
:1011600001D0002010BD5B1C491C1000A2F101043D
:10117000A2B2F2D10120F5E701B502E00098401ECD
:10118000009000980028F9D108BD00F003F92EA0C6
:1011900000F0FCFB00F058F900F024FB3449086033
:1011A000C820FFF7E9FF00F0F8FA3249086030483C
:1011B00002680846016830A000F0E8FB2D4800688E
:1011C0003B49884238D13BA000F0E0FB002000F012
:1011D000CFF905220021404800F028FA002406E05B
:1011E0003D48015D3DA000F0D1FB601CC4B2062C5F
:1011F000F6DB052200213F4800F0A9FA002406E0B2
:101200003548015D3CA000F0C1FB601CC4B2062C57
:10121000F6DB052237493048FFF79CFF3C49087050
:1012200008460078012803D13AA000F0AFFB06E0A1
:1012300041A000F0ABFB02E048A000F0A7FB00F0EB
:1012400023FB00BFFEE700000D0A20D5E2CAC7D28B
:10125000BBB8F6384DB4AED0D0666C617368285711
:10126000323558313629CAB5D1E9200D0A000000BF
:1012700034000020380000200D0A20466C6173689D
:10128000494420697320307825582C20204D616E08
:10129000756661637475726572204465766963650D
:1012A00020494420697320307825580D0A00000039
:1012B0001740EF000D0A20BCECB2E2B5BDBBAAB0EE
:1012C000EEB4AED0D0666C617368205732355831B9
:1012D0003620210D0A000000280000200D0A20D031
:1012E000B4C8EBB5C4CAFDBEDDCEAAA3BA2564203E
:1012F0000D0A00002E0000200D0A20B6C1B3F6B57D
:10130000C4CAFDBEDDCEAAA3BA2564200D0A000022
:101310003C0000200D0A20384DB4AED0D0666C6180
:1013200073682857323558313629B2E2CAD4B3C966
:10133000B9A6210A0D0000000D0A20384DB4AED028
:10134000D0666C6173682857323558313629B2E25D
:10135000CAD4CAA7B0DC210A0D0000000D0A20BBC8
:10136000F1C8A1B2BBB5BD2057323558313620493E
:1013700044210A0D00000000704700BFFEE700BFD7
:10138000FEE700BFFEE700BFFEE77047704770470B
:101390007047000000B585B0012144F20400FFF75A
:1013A000E7FA4FF40070ADF8100018208DF8130024
:1013B00003208DF8120004A92148FFF723F84FF409
:1013C0008060ADF8100004208DF8130004A91C48BB
:1013D000FFF718F84FF4E13000900020ADF804005A
:1013E000ADF80600ADF80800ADF80C000C20ADF823
:1013F0000A0069461348FFF7ECFC01211148FFF78A
:1014000074FD05B000BD70B504460D46E1B20D484F
:10141000FFF7D8FD00BF80210A48FFF741FE0028F2
:10142000F9D0204670BD10B5044600BF2021054804
:10143000FFF736FE0028F9D00248FFF7C7FD10BDC0
:10144000000801400038014000B587B00121242088
:10145000FFF78EFA01210803FFF78AFA2020ADF882
:10146000040003208DF8060018208DF8070001A95C
:10147000F748FEF7C7FF4020ADF8040001A9F44883
:10148000FEF7C0FF8020ADF8040001A9F048FEF788
:10149000B9FF1020ADF804008DF8070001A9EC4851
:1014A000FEF7B0FF1021EA48FFF757F80020ADF82B
:1014B00008004FF48270ADF80A000020ADF80C006F
:1014C0000220ADF80E000120ADF810004002ADF88A
:1014D00012000820ADF814000020ADF81600072017
:1014E000ADF8180002A9DB48FFF7D0FA0121D9486E
:1014F000FFF771FB07B000BD10B5044600BF022125
:10150000D448FFF7ECFB0028F9D02146D148FFF77B
:1015100093FB00BF0121CF48FFF7E1FB0028F9D082
:10152000CC48FFF78BFBC0B210BD10B500241021D2
:10153000C748FFF714F80520FFF7DEFF00BFFF20C4
:10154000FFF7DAFF044614F0010FF8D11021C0486C
:10155000FFF703F810BD10B51021BD48FEF7FFFFDF
:101560000620FFF7C9FF1021B948FEF7F6FF10BDAE
:1015700010B50446FFF7EFFFFFF7D7FF1021B4487F
:10158000FEF7EDFF2020FFF7B7FFC4F30740FFF79A
:10159000B3FFC4F30720FFF7AFFFE0B2FFF7ACFFE4
:1015A0001021AB48FEF7D9FFFFF7BFFF10BD10B504
:1015B000FFF7D1FF1021A648FEF7D1FFC720FFF7A4
:1015C0009BFF1021A248FEF7C8FFFFF7AEFF10BD3A
:1015D00070B505460C461646FFF7BDFF10219C4826
:1015E000FEF7BDFF0220FFF787FFC4F30740FFF7B8
:1015F00083FFC4F30720FFF77FFFE0B2FFF77CFF14
:10160000B6F5807F01DD4FF4807603E02878FFF7A0
:1016100073FF6D1C3000A6F101018EB2F6D11021CE
:101620008B48FEF79AFFFFF780FF70BD2DE9F05F52
:1016300007460E4614464FF00008C146C246002534
:10164000AB4606F0FF0ACAF10000C5B22046E1171A
:1016500004EB1161C1F30728E11704EB11610912D2
:10166000A4EB012101F0FF09BAF1000F20D1B8F17C
:10167000000F05D1224631463846FFF7A9FF64E046
:1016800009E04FF4807231463846FFF7A1FF06F5B6
:10169000807607F580775FEA0800A8F1010101F084
:1016A000FF08EED14A4631463846FFF791FF4CE03D
:1016B000B8F1000F18D1A94510DDA9EB050000F025
:1016C000FF0B2A4631463846FFF782FF2E442F444F
:1016D0005A4631463846FFF77BFF36E02246314610
:1016E0003846FFF775FF30E0601B84B22046E117F3
:1016F00004EB1161C1F30728E11704EB1161091232
:10170000A4EB012101F0FF092A4631463846FFF7D4
:101710005FFF2E442F4409E04FF480723146384673
:10172000FFF756FF06F5807607F580775FEA080039
:10173000A8F1010101F0FF08EED1B9F1000F04D0CA
:101740004A4631463846FFF743FFBDE8F09F70B583
:1017500005460C46164610213D48FEF700FF0320C3
:10176000FFF7CAFEC4F30740FFF7C6FEC4F3072025
:10177000FFF7C2FEE0B2FFF7BFFE04E0FF20FFF775
:10178000BBFE28706D1C3000A6F101018EB2F5D1B0
:1017900010212F48FEF7E1FE70BD2DE9F041002435
:1017A00000250026002710212948FEF7D8FE9F209B
:1017B000FFF7A2FEFF20FFF79FFE0546FF20FFF781
:1017C0009BFE0646FF20FFF797FE074610212048A4
:1017D000FEF7C3FE280440EA062040EA070420463C
:1017E000BDE8F08110B5002410211948FEF7B7FEBE
:1017F000AB20FFF781FEFF20FFF77EFEFF20FFF703
:101800007BFEFF20FFF778FEFF20FFF775FE044602
:1018100010210F48FEF7A1FE204610BD10B504466A
:1018200010210B48FEF79BFE0320FFF765FEC4F373
:101830000740FFF761FEC4F30720FFF75DFEE0B24B
:10184000FFF75AFE10BD10B5FF20FFF755FE10BD83
:10185000000801400030014010B5044600BF0221DD
:101860001648FFF73CFA0028F9D021461348FFF745
:10187000E3F900BF01211148FFF731FA0028F9D040
:101880000E48FFF7DBF910BD10B510210C48FEF72C
:1018900066FEB920FFF730FE10210948FEF75DFE15
:1018A00010BD10B510210648FEF759FEAB20FFF71A
:1018B00023FE10210248FEF750FE10BD003001400B
:1018C000000801402DE9F05F0546002092469B4646
:1018D00088460646814640241BE028464146474646
:1018E000224600F042F853465A46C01A914110D39E
:1018F00011461846224600F029F82D1A67EB010818
:101900004F4622460120002100F020F817EB000985
:101910004E41201EA4F10104DFDC484631462A4630
:101920004346BDE8F09F0000064C074D06E0E06826
:1019300040F0010394E8070098471034AC42F6D316
:10194000FEF7FAFB8C1C0008AC1C0008202A04DB04
:10195000203A00FA02F1002070479140C2F12003C2
:1019600020FA03F3194390407047202A04DB203A01
:1019700021FA02F00021704721FA02F3D040C2F1AF
:101980002002914008431946704700000FB4054BF0
:1019900010B503A9044A029800F018F810BC5DF8CD
:1019A00014FB0000071400084000002002E008C8F3
:1019B000121F08C1002AFAD170477047002001E0C9
:1019C00001C1121F002AFBD1704700002DE9FF4F13
:1019D0008DB09B460F460446002638E1252801D0ED
:1019E0000F9959E00025641C9D49A84601222378DF
:1019F000203B02FA03F0084202D00543641CF6E7DC
:101A000020782E2817D114F8010F45F004052A2854
:101A10000ED06FF02F022078A0F1300109290AD8EA
:101A200008EB880102EB410100EB0108641CF2E7BE
:101A300057F8048B641C20786C280DD004DC4C28EB
:101A400012D06A2811D104E074280DD07A280CD164
:101A50000AE045F4001507E0617845F480158142FD
:101A600002D1641C05F58015641C2278692A46D0D1
:101A700008DC002A70D0582A69D0632A11D0642A61
:101A800008D13CE0702A69D0732A14D0752A5CD042
:101A9000782A5CD00F9910465A46904706F1010605
:101AA000D4E017F8040B8DF8000000208DF8010039
:101AB000E946012003E057F8049B4FF0FF30690727
:101AC0004FF0000501D40AE06D1C45450DDA854252
:101AD000FADB19F805100029F6D106E06D1C8542E5
:101AE000FCDB19F805100029F8D12E4404E019F8A0
:101AF000010B5A460F9990476D1EF8D2A6E00A20B6
:101B00000021CDE90801C5F3025002280BD001CF16
:101B1000C11700290EDA4FF0000CD0EB0C006CEB73
:101B200001012D2309E007F1070727F00707F7E870
:101B30000201EEE72B0504D52B238DF82830012375
:101B400030E0EB072ED02023F7E70A2000E010203A
:101B50000021CDE9080109E07DE0FFE71020002128
:101B600045F00405CDE908014FF00808C5F302501F
:101B700002281BD001CF00214FF0000A2B0712D5FD
:101B8000702A19D0DDE908C38CF0100C5CEA030C54
:101B900009D150EA010306D030238DF828308DF8A2
:101BA000292002239A46582A10D00AE0FF1D27F068
:101BB0000707F7E80201DFE740228DF828204FF001
:101BC000010A28A20DF120090B9209E02AA2F9E7E7
:101BD000DDE90823FFF776FE0B9B9B5C09F8013DCE
:101BE00050EA0102F4D1ADEB090000F120000890A9
:101BF000680701D44FF001080899884502DDA8EB79
:101C0000010000E000208046002506E00AA85A46B0
:101C1000405D0F999047761C6D1C5545F6DB04E03E
:101C200030205A460F999047761CB8F10001A8F170
:101C30000108F5DC05E019F8010B5A460F999047A9
:101C4000761C0899481E08900029F4DC641C207852
:101C500000287FF4C3AE11B03046BDE8F08F00001D
:101C60000928010030313233343536373839616272
:101C70006364656600000000303132333435363736
:101C8000383941424344454600000000AC1C00087E
:101C90000000002044000000AC190008F01C0008FF
:101CA0004400002004040000BC19000800A24A04FB
:101CB00000000000000000000102030406070809FC
:101CC00000000000010203040102030406070809E2
:101CD00002040608010203040506000000000000DB
:101CE00000000000000000000000000000000000F4
:0400000508000131BD
:00000001FF
