:020000040800F2
:1000000018040020450100083503000837030008E4
:100010003B0300083F030008430300080000000002
:10002000000000000000000000000000470300087E
:1000300049030008000000004B0300084D030008BE
:100040005F0100085F0100085F0100085F01000810
:100050005F0100085F0100085F0100085F01000800
:100060005F0100085F0100085F0100085F010008F0
:100070005F0100085F0100085F0100085F010008E0
:100080005F0100085F0100085F0100085F010008D0
:100090005F0100085F0100085F0100085F010008C0
:1000A0005F0100085F0100085F0100085F010008B0
:1000B0005F0100085F0100085F0100085F010008A0
:1000C0005F0100085F0100085F0100085F01000890
:1000D0005F0100085F0100085F0100085F01000880
:1000E0005F0100085F0100085F0100085F01000870
:1000F0005F0100085F0100085F0100085F01000860
:100100005F0100085F0100085F0100085F0100084F
:100110005F0100085F0100085F0100085F0100083F
:100120005F0100085F0100085F0100085F0100082F
:10013000DFF80CD000F00CF900480047310300084C
:10014000180400200648804706480047FEE7FEE7FF
:10015000FEE7FEE7FEE7FEE7FEE7FEE7FEE7FEE777
:10016000310200083101000800200021674A1268AE
:1001700042F48032654B1A6000BF644A126802F490
:100180000031401C11B9B0F5A06FF6D15F4A12687A
:1001900012F4003F01D0012100E00021012942D1E9
:1001A0005B4A126842F01002594B1A601A461268F4
:1001B00022F003021A601A46126842F002021A6024
:1001C000524A5268514B5A601A4652685A601A464F
:1001D000526842F480625A601A46526822F47C12D5
:1001E0005A601A46526842F4E8125A601A46126877
:1001F00042F080721A6000BF444A126812F0007F19
:10020000FAD0424A526822F00302404B5A601A4622
:10021000526842F002025A6000BF3C4A526802F043
:100220000C02082AF9D1704710B5FFF79DFF10BDE9
:1002300010B53648006840F00100344908600846AF
:1002400040683449084031494860084600683249EE
:1002500008402E4908600846006820F480200860A5
:100260000846406820F4FE0048604FF41F00886094
:10027000FFF7DAFF4FF000602849086010BD10B5A5
:10028000002000210022214B5B6803F00C0020B10C
:10029000042806D0082828D107E0214B214C2360F0
:1002A00027E01F4B1F4C236023E0184B5B6803F4CF
:1002B0007011164B5B6803F48032022303EB91410B
:1002C00022B9194B4B43174C23600DE00F4B5B6871
:1002D00013F4003F04D0144B4B43124C236003E053
:1002E0000F4B4B430F4C236003E00D4B0D4C236031
:1002F00000BF00BF054B5B68C3F303130B4CE05C0E
:10030000084B1B68C340074C236010BD001002401F
:10031000002002400000FFF8FFFFF6FE08ED00E0BD
:1003200000127A000000002000093D0004000020B7
:1003300000BFFEE7704700BFFEE700BFFEE700BF5B
:10034000FEE700BFFEE77047704770477047000048
:10035000064C074D06E0E06840F0010394E8070012
:1003600098471034AC42F6D3FFF7E6FE940300083A
:10037000B403000802E008C8121F08C1002AFAD11D
:1003800070477047002001E001C1121F002AFBD115
:1003900070470000B40300080000002014000000B3
:1003A00074030008C80300081400002004040000BF
:1003B0008403000800A24A040000000000000000BE
:0803C00001020304060708090D
:0400000508000131BD
:00000001FF
