:020000040800F2
:10000000C805002045010008191200081B1200084D
:100010001F12000823120008271200080000000029
:100020000000000000000000000000002B1200088B
:100030002D120008000000002F12000831120008E5
:100040005F0100085F0100085F010008331200082B
:100050005F0100085F0100085F0100085F01000800
:100060005F0100085F0100085F0100085F010008F0
:100070005F0100085F0100085F0100085F010008E0
:100080005F0100085F0100085F0100085F010008D0
:100090005F0100085F0100085F0100085F010008C0
:1000A0005F0100085F0100085F0100085F010008B0
:1000B0005F0100085F0100085F0100085F010008A0
:1000C0005F0100085F0100085F0100085F01000890
:1000D0005F0100084F1200085F0100085F0100087F
:1000E0005F0100085F0100085F0100085F01000870
:1000F0005F0100085F0100085F0100085F01000860
:100100005F0100085F0100085F0100085F0100084F
:100110005F0100085F0100085F0100085F0100083F
:100120005F0100085F0100085F0100085F0100082F
:10013000DFF80CD002F098F800480047F9110008E9
:10014000C80500200648804706480047FEE7FEE74E
:10015000FEE7FEE7FEE7FEE7FEE7FEE7FEE7FEE777
:1001600045020008310100080CB500200190009004
:100170006B48006840F480306949086000BF6848F7
:10018000006800F4003000900198401C0190009835
:1001900018B90198B0F5A06FF1D16148006810F46A
:1001A000003F02D00120009001E000200090009864
:1001B000012842D15B48006840F0100059490860AE
:1001C0000846006820F0030008600846006840F018
:1001D000020008605248406851494860084640683B
:1001E00048600846406840F48060486008464068BF
:1001F00020F47C1048600846406840F4E8104860ED
:100200000846006840F08070086000BF44480068FD
:1002100010F0007FFAD04248406820F003004049C7
:1002200048600846406840F00200486000BF3C4813
:10023000406800F00C000828F9D10CBD10B5FFF79C
:1002400093FF10BD10B53648006840F001003449F6
:10025000086008464068344908403149486008460B
:100260000068324908402E4908600846006820F4BA
:10027000802008600846406820F4FE0048604FF483
:100280001F008860FFF7DAFF4FF000602849086020
:1002900010BD10B5002100200022214B5B6803F047
:1002A0000C0121B1042906D0082928D107E0214BEF
:1002B000214C236027E01F4B1F4C236023E0184B89
:1002C0005B6803F47010164B5B6803F48032022302
:1002D00003EB904022B9194B4343174C23600DE0C8
:1002E0000F4B5B6813F4003F04D0144B4343124C94
:1002F000236003E00F4B43430F4C236003E00D4B9F
:100300000D4C236000BF00BF054B5B68C3F30313B4
:100310000B4CE15C084B1B68CB40074C236010BDC5
:1003200000100240002002400000FFF8FFFFF6FE30
:1003300008ED00E000127A000000002000093D00F6
:100340000400002031490143314A1160704770B503
:10035000002100230F22C4780CB32D4C246804F430
:10036000E064C4F5E064210AC1F10403CA404478A2
:1003700004FA03F18478144021430901254C0678DE
:10038000A155047804F01F050124AC4005786D11D7
:100390004FF0E02606EB8505C5F8004109E004783A
:1003A00004F01F050124AC401B4D0678761145F87A
:1003B000264070BD194A0A400243154B1B1F1A60A4
:1003C000704739B1124A121D12680243104B1B1DAF
:1003D0001A6006E00E4A121D126882430C4B1B1D68
:1003E0001A607047042808D14FF0E021096941F0F4
:1003F00004014FF0E022116107E04FF0E0210969AC
:1004000021F004014FF0E022116170470000FA056D
:100410000CED00E000E400E080E100E080FFFF1F61
:1004200010B5012000F00EFC002000F00BFC10BD08
:100430002A49086070472949091F08607047274901
:1004400084310860704701460020254A10884FF625
:100450007F4210400843224A108070470146002026
:100460001F4A10884FF68072104008431C4A1080C3
:10047000704708B500220092194A2C3A0092009A5F
:1004800002440092009A116008BD08B501460020A0
:10049000009013482C380090009808440090009871
:1004A000008808BD0D489C300068C0B270470C48F9
:1004B0000830008840F00100094908310880704781
:1004C0000648A0300068C0B2704705480830008870
:1004D00040F00200024908310880704704860D424E
:1004E0002C6C004010B50446CA48844208D1012152
:1004F000042000F08DFB0021042000F089FB46E081
:10050000C548844208D10121082000F081FB002168
:10051000082000F07DFB3AE0C048844208D1012168
:10052000102000F075FB0021102000F071FB2EE080
:10053000BB48844208D10121202000F069FB002142
:10054000202000F065FB22E0B648844208D101215A
:10055000402000F05DFB0021402000F059FB16E038
:10056000B148844208D10121802000F051FB0021D4
:10057000802000F04DFB0AE0AC48844207D1012105
:10058000801500F045FB0021A01500F041FB10BDD7
:1005900010B50121084600F03BFB0021012000F0CE
:1005A00037FB10BD2DE9F041024600250026002052
:1005B00000230024002791F803C00CF00F0591F8E8
:1005C00003C01CF0100F03D091F802C04CEA0505DF
:1005D00091F800C0BCF1000F31D0146800202BE06E
:1005E0004FF0010C0CFA00F3B1F800C00CEA03065E
:1005F0009E4220D183004FF00F0C0CFA03F7BC434E
:1006000005FA03FC4CEA040491F803C0BCF1280F7E
:1006100006D14FF0010C0CFA00FCC2F814C00AE03D
:1006200091F803C0BCF1480F05D14FF0010C0CFA52
:1006300000FCC2F810C0401C0828D1D31460B1F8E7
:1006400000C0BCF1FF0F34DD546800202EE000F143
:10065000080C4FF0010808FA0CF3B1F800C00CEADE
:1006600003069E4221D183004FF00F0C0CFA03F7D2
:10067000BC4305FA03FC4CEA040491F803C0BCF146
:10068000280F05D100F1080C08FA0CF8C2F8148004
:1006900091F803C0BCF1480F07D100F1080C4FF0EE
:1006A000010808FA0CF8C2F81080401C0828CED3C4
:1006B0005460BDE8F0814FF6FF7101800221817026
:1006C0000421C17070470246002093680B4201D09C
:1006D000012000E0002070470146886880B2704722
:1006E00002460020D3680B4201D0012000E0002028
:1006F00070470146C86880B2704701617047416128
:1007000070470AB1016100E041617047C160704704
:100710004FF480320A438261816182618269826919
:10072000704702460020424B18684FF6807318400D
:1007300040EA021008433E4B186070473D49C861CB
:100740007047F0B50A46002300240021002500F080
:100750000046B6F1004F02D1354EF16901E0344E4A
:100760007168C0F3034583B200F44016B6F5401F2C
:1007700008D121F070612E4E766826F070662C4FFD
:100780007E6012E000F48016B6F5801F06D10326C5
:1007900006FA05F4A14341F0706106E0460D36010A
:1007A00003FA06F6B14341F0706122B1460D3601FD
:1007B00003FA06F6314300F00046B6F1004F02D1CD
:1007C0001B4EF16101E01A4E7160F0BD30B50022A0
:1007D0008B071C0F0F2303FA04F2154B08338C1000
:1007E00053F824309343124C08348D1044F82530CC
:1007F00023468C1053F824308C07240F00FA04F49D
:1008000023430B4C08348D1044F8253030BD0A4981
:100810000860704700080140000C014000100140D2
:100820000014014000180140001C0140002001405C
:100830000000014000002042DC00204210B50121F0
:10084000080700F0F2F900214FF0805000F0EDF9B8
:1008500010BD294908627047274908617047014661
:100860000020264A106820F0E0000843106070471E
:1008700023490860704710B5024600201F4B1868D6
:1008800020F00300104318601E4B1B6843F0040364
:100890001C4C2360012901D130BF00E020BF194B5F
:1008A0001B6823F00403174C236010BD1348006835
:1008B00040F00400114908600846006840F002005A
:1008C00008601048006840F004000E49086000BF4E
:1008D00000BF30BF704701460020084A52680A42F4
:1008E00001D0012000E0002070470449096841EA76
:1008F0008001024A1160704700000E420070004003
:10090000A0000E4210ED00E0DD48006840F001005C
:10091000DB49086008464068DA490840D849486021
:1009200008460068D8490840D5490860084600686C
:1009300020F4802008600846406820F4FE004860EB
:100940004FF41F0088607047CD49096821F4803159
:10095000CB4A11601146096821F480211160B0F57D
:10096000803F03D0B0F5802F0ED106E0C44909685E
:1009700041F48031C24A116007E0C149096841F47D
:10098000A021BF4A116000E000BF00BF704710B552
:1009900001460022002300204A11012A02D1B84C4E
:1009A000236806E0022A02D1B54C236A01E0B44C68
:1009B000636A01F01F02012494401C4201D001200F
:1009C00000E0002010BD38B5002000900024002574
:1009D00000BF3120FFF7DBFF05460098401C009068
:1009E0000098B0F5A06F01D0002DF2D03120FFF7B4
:1009F000CEFF08B1012400E00024204638BD0146A6
:100A000000209F4A106820F0F80040EAC100106002
:100A100070479E490860704702460020984B58680E
:100A200020F47C1042EA01031843954B586070474C
:100A300096490866704701460020914A506820F0A8
:100A400003000843506070478D48406800F00C0078
:100A50007047014600208A4A506820F0F0000843A1
:100A60005060704701460020854A506820F4E060DD
:100A700008435060704701460020814A506820F4C6
:100A8000605040EAC1005060704729B17C4A527AF8
:100A900002437B4B5A7204E0794A527A8243784B84
:100AA0005A7270477A490860704701460020744ABC
:100AB000506820F440400843506070470021754A58
:100AC00011706F4A82F82010012802D0042808D142
:100AD00003E001216F4A117004E005216D4A117095
:100AE00000E000BF00BF70476B4908607047644971
:100AF000096A0143624A11627047674944390860D4
:100B0000704730B500210022002400235C4D6D6841
:100B100005F00C0121B1042905D0082923D105E0F5
:100B20005E4D056022E05D4D05601FE0544D6D682F
:100B300005F47012524D6D6805F48034022505EB02
:100B400092421CB9564D554305600BE04C4D6D6803
:100B500015F4003F03D0524D5543056002E04F4D60
:100B60005543056002E04D4D056000BF00BF444D98
:100B70006D6805F0F00109094A4D6B5C0568DD40C0
:100B800045603F4D6D6805F4E061090A454D6B5CB9
:100B90004568DD4085603A4D6D6805F46051C90ACD
:100BA000404D6B5C4568DD40C560354D6D6805F4B2
:100BB0004041890B3C4D6B5CC568B5FBF3F50561A5
:100BC00030BD29B12E4A526902432D4B5A6104E0CF
:100BD0002B4A526982432A4B5A61704729B1284AED
:100BE00092690243264B9A6104E0254A9269824346
:100BF000234B9A61704729B1214AD2690243204BA5
:100C0000DA6104E01E4AD26982431D4BDA61704703
:100C100029B11B4AD2680243194BDA6004E0184A32
:100C2000D2688243164BDA60704729B1144A1269C0
:100C30000243134B1A6104E0114A12698243104BBC
:100C40001A61704714494039086070470F49C864F9
:100C500070470B49C87170470948406A40F080707E
:100C600007494862704701460020054A92680A42D7
:100C700001D0012000E000207047014988727047D0
:100C8000001002400000FFF8FFFFF6FE00004242A5
:100C9000D8004242201002408004424200127A00F2
:100CA00000093D00140000202400002029B14F4A13
:100CB000128802434D4B1A8004E04C4A128882434A
:100CC0004A4B1A8070474948001D008840F01000C8
:100CD0004649091D088070474448001D00884FF6AA
:100CE000EF7108404149091D0880704700213F48C5
:100CF0001C300188001F008841EA0040704700B5A1
:100D00000246FFF7E0FF100C384918310880091D32
:100D10000A80FFF7E1FF00BD00B50246FFF7D3FFF1
:100D2000C2F30340314908310880091D0A80FFF7EA
:100D3000D3FF00BD00B50246FFF7C5FF100C2B49DD
:100D400020310880091D0A80FFF7C6FF00BD002082
:100D50002649103109880907080B244914310988EC
:100D60000843704700BF2148001D008810F0200F85
:100D7000F9D070471D48001D00884FF6F7710840F4
:100D80001A49091D088000BF1848001D008810F08E
:100D9000080FF9D0704701460020144A121D12882E
:100DA0000A4201D0012000E0002070470F49091DD0
:100DB000098881430D4A121D1180704701460020A9
:100DC0000A4A121D12880A40D0B2084A12880A4202
:100DD00002D008B1012000E0002070470349091D3E
:100DE00009888143014A121D118070470028004084
:100DF00010B50446FB48844209D101218803FFF75E
:100E000007FF00214FF48040FFF702FF32E0F64871
:100E1000844209D101214804FFF707FF00214FF464
:100E20000030FFF702FF25E0F048844209D101219C
:100E30008804FFF7FAFE00214FF48020FFF7F5FE4B
:100E400018E0EB48844209D10121C804FFF7EDFE08
:100E500000214FF40020FFF7E8FE0BE0E548844254
:100E600008D101210805FFF7E0FE00214FF48010B2
:100E7000FFF7DBFE10BD2DE9F04786B005460E46B4
:100E80000024A24600BFA1460027B08900B100BFE0
:100E90002F462C8A4CF6FF700440F08804432C82C5
:100EA000AC894EF6F3100440B0883189084371894B
:100EB00008430443AC81AC8A4FF6FF400440B0893C
:100EC0000443AC8201A8FFF71CFEC648874202D14A
:100ED000DDF810A001E0DDF80CA0A88910F4004FA7
:100EE00008D00AEBCA0000EB0A1031684900B0FBD9
:100EF000F1F807E00AEBCA0000EB0A10316889003C
:100F0000B0FBF1F86420B8FBF0F004012009642183
:100F100001FB1089A88910F4004F08D0322000EBA3
:100F2000C900B0FBF1F000F00700044308E03220F4
:100F300000EB09106421B0FBF1F000F00F00044356
:100F40002C8106B0BDE8F0874FF4165101600021F6
:100F50008180C18001810C21418100218181704704
:100F600010B502460020108A4FF2FF0318400B888C
:100F70004C8823438C882343CC8823431843108216
:100F800010BD0021018041808180C180704721B166
:100F9000828942F40052828104E082894DF6FF7317
:100FA0001A4082817047F0B50346002400260025D0
:100FB0000020A1F510676A3F00D100BF1846C1F3B9
:100FC000421401F01F06012707FA06F5012C01D192
:100FD0000C3004E0022C01D1103000E014301AB1C2
:100FE00007682F43076002E00768AF430760F0BD62
:100FF0001AB1838A0B43838202E0838A8B43838204
:101000007047028A4FF6F0731A400282028A0A433E
:101010000282704782894FF2FF731A40828182896F
:101020000A438281704721B1828942F002028281A3
:1010300004E082894FF6FD731A4082817047028A6C
:101040004FF6DF731A400282028A0A430282704717
:1010500021B1028A42F48042028204E0028A4BF605
:10106000FF731A4002827047C1F308028280704702
:1010700001468888C0F308007047818941F001016A
:1010800081817047028BD2B20283028B42EA012235
:1010900002837047028B02F47F420283028B0A4371
:1010A0000283704721B1828A42F02002828204E0EA
:1010B000828A4FF6DF731A408282704721B1828A9A
:1010C00042F01002828204E0828A4FF6EF731A40E7
:1010D0008282704721B1828A42F00802828204E053
:1010E000828A4FF6F7731A408282704721B1828953
:1010F00042F40042828103E08289C2F30E028281BF
:10110000704721B1828A42F40062828204E0828ABE
:101110004FF2FF731A4082827047828A4FF6FB7348
:101120001A408282828A0A438282704721B1828A6F
:1011300042F00202828204E0828A4FF6FD731A4076
:101140008282704702460020B1F5007F00D100BFC7
:1011500013880B4201D0012000E00020704701F409
:101160000072B2F5007F00D100BFCA430280704711
:1011700070B502460024002300250020A1F510666A
:101180006A3E00D100BFC1F3421501F01F030126E2
:1011900006FA03F3012D02D19689334006E0022DB1
:1011A00002D1168A334001E0968A33400C120126A0
:1011B00006FA04F41688344013B10CB1012000E0A3
:1011C000002070BD10B500220023A1F510646A3C18
:1011D00000D100BF0A1201249440A3B2DC43048072
:1011E00010BD0000003801400044004000480040AD
:1011F000004C00400050004010B500F0D9FC00F059
:101200004BF8044800F0D6FD024800F06CFE0020C8
:1012100010BD0000A8010020704700BFFEE700BF1E
:10122000FEE700BFFEE700BFFEE77047704770476C
:10123000704710B50120FFF7C1FD38B10120FFF75D
:10124000CDFD012008490860FFF78CFD10BD10B5E9
:1012500040F225510548FFF78BFF20B10348FFF707
:1012600007FFC4B200BF10BD50010020003801408C
:1012700008B54FF4E060FFF765F825208DF8000011
:1012800000208DF801008DF8020001208DF8030088
:101290006846FFF75CF808BD00B585B0012144F24F
:1012A0000400FFF79BFC4FF40070ADF8100018200D
:1012B0008DF8130003208DF8120004A92148FFF7D0
:1012C00071F94FF48060ADF8100004208DF8130020
:1012D00004A91C48FFF766F94FF4E13000900020A4
:1012E000ADF80400ADF80600ADF80800ADF80C004C
:1012F0000C20ADF80A0069461348FFF7BCFD012138
:101300001148FFF744FE05B000BD70B504460D4618
:10131000E1B20D48FFF7A8FE00BF80210A48FFF7A1
:1013200011FF0028F9D0204670BD10B5044600BF5B
:1013300020210548FFF706FF0028F9D00248FFF7F3
:1013400097FE10BD000801400038014002460E2AF9
:1013500070D2DFE802F086071019222B353F49537F
:101360005D67727CF748405C10F0080F01D10020E7
:1013700070470120FCE7F348405C10F0040F01D1F6
:101380000020F5E70120F3E7EE48405C10F0020F83
:1013900001D10020ECE70120EAE7EA48405C10F0C8
:1013A000010F01D10020E3E70120E1E7E54B481CF4
:1013B000185C10F0800F01D10020D9E70120D7E799
:1013C000E04B481C185C10F0400F01D10020CFE723
:1013D0000120CDE7DB4B481C185C10F0200F01D139
:1013E0000020C5E70120C3E7D64B481C185C10F06D
:1013F000100F01D10020BBE70120B9E7D14B481CF9
:10140000185C10F0080F01D10020B1E70120AFE710
:10141000CC4B481C185C10F0040F01D10020A7E74A
:101420000120A5E7C74B481C185C10F0020F02D141
:1014300000209DE715E001209AE7C24B481C185C8C
:1014400010F0010F01D1002092E7012090E7BD4B81
:10145000881C185C10F0800F01D1002088E7012063
:1014600086E7002084E72DE9FF4F83B00C461F4636
:101470006421039890FBF1F0C0B20190039890FBB7
:10148000F1F201FB1200C5B20198132806D00198B1
:10149000142803D0002007B0BDE8F08F019814286D
:1014A00006D105F1630000EB40001FFA80F904E06B
:1014B000681E00EB40001FFA80F9A24909F1020002
:1014C000085C00F0600A4FEA6A1A09F10200085C41
:1014D00000F01F0BBAF1010F04D1ABF1010000F0D5
:1014E000FF0803E00BF11E0000F0FF080A2C07DAEA
:1014F000601E9549095C05980844401E86B208E0C4
:10150000A4F10A00914931F8101005980844401ED2
:1015100086B2022C08DDE91705EB91718910B5EB55
:10152000810101D1701C86B246453EDBA6EB080066
:1015300086B20124012002900020009049460298C2
:10154000FFF704FF10B94FF01D0A01E04FF01E0A2B
:101550007C4911F80900C11700EB11714FEA211BFA
:101560001DE0A6EB0A0086B20298401CC0B20290B1
:101570005C4508D10098C043C0B20090009820B9E3
:10158000601CC4B201E0601CC4B249460298FFF777
:10159000DDFE10B94FF01D0A01E04FF01E0A56455E
:1015A000DFDA701CC0B205904FE0A8EB060000F037
:1015B000FF081DB963251320019001E0681EC5B224
:1015C000A9F103001FFA80F90C245E4911F8090003
:1015D000C11700EB11714FEA211BBBF1000F02D1C3
:1015E0000C20029001E00D2002900020009049465E
:1015F0000298FFF7ABFE10B94FF01D0A01E04FF063
:101600001E0A1BE0A8EB0A0000F0FF080298401E2B
:10161000C0B20290009808B9601EC4B25C4503D104
:101620000098C043C0B2009049460298FFF78EFE72
:1016300010B94FF01D0A01E04FF01E0AD045E1DC61
:10164000AAEB0800401CC0B20590019807F8010BF6
:1016500007F8015B07F8014B0598387001201AE77D
:1016600010B50A46B0F5F86F09DBA0F5F86398B23B
:101670003C2390FBF3F403FB1403D9B20AE0C0F55A
:10168000F86398B23C2390FBF3F403FB1403C3F11B
:101690003C03D9B2117010BD10B5002305E011F85C
:1016A000014B00F8014B5C1CA3B29342F7DB10BD69
:1016B0002DE9FC4105460E4617461C460F2224A183
:1016C0002046FFF7E9FF01AB3A4631462846FFF7CF
:1016D000CAFE08B9BDE8FC819DF805209DF80410FC
:1016E00001EBC10303EB011102EB81006946FFF737
:1016F000B7FF9DF800000A2190FBF1F201FB1200F8
:10170000174951F82080022241462046FFF7C4FFC6
:101710009DF800000C2190FBF1F201FB1200114931
:1017200051F8208002224146A01CFFF7B5FF9DF82A
:10173000060001281AD102220BA1A01DFFF7ACFF61
:101740001EE00000E0240008E6270008F02700085B
:10175000BCD7D7D3C4EAD5FDD4C2B3F5D2BB000001
:1017600088000020B0000020D5FD00009DF8060094
:10177000401E8C4A52F820100222A01DFFF78CFF59
:101780009DF807000A280EDD9DF807000A2190FB4E
:10179000F1F0854951F820800222414604F10A0007
:1017A000FFF77AFF05E0022280A104F10A00FFF7AB
:1017B00073FF9DF80700401E0A2190FBF1F201FB28
:1017C0001200784951F820800222414604F10C00B1
:1017D000FFF762FF00BF7DE72DE9F04104460D46AB
:1017E000B4F5FA6F03DB40F60200844202DD00200C
:1017F000BDE8F0810DB10C2D01DD0020F8E7681E79
:101800004006010E0F2A01DB481CC1B208464FEA10
:10181000E17C01EB5C7C4FEAEC08A4F5FA6C0CEB84
:101820004C0CC444DFF8888118F80C604FEAE17C66
:1018300001EB5C7C4FEAEC0CA1EBCC0C06FA0CFC47
:101840000CF080075B48405C187097B1012905D007
:101850000B2903D0122901D0152907D140F2FC70C1
:10186000844203DA1878401C187002E01878401E91
:1018700018700120BCE72DE9F84305468846144658
:101880001E466B46224641462846FFF7A5FF10B983
:101890000020BDE8F883A8F101004006070E0F2CD8
:1018A00001DB781CC7B29DF80000844208D1424891
:1018B00050F8271005223046FFF7EEFE0120E8E73A
:1018C0000F223EA13046FFF7E7FE9DF8000084425C
:1018D0000BDA394850F827100422B01CFFF7DCFE61
:1018E0009DF80000001BC4B24DE0781C172801DDF4
:1018F0000020CEE7304A781C52F820100422B01C99
:10190000FFF7CAFE0F2C0ADA6B460F224146284623
:10191000FFF762FF9DF80000001BC4B233E0A8F19E
:1019200001002A4911F80090B8F1020F17D1E91708
:1019300005EB91718910B5EB810110D1642195FB04
:10194000F1F201FB125131B94FF4C87195FBF1F27C
:1019500001FB125119B909F1010000F0FF0908F16A
:101960000100C0B280460D2801D14FF001086B463E
:10197000012241462846FFF72FFFA9EB04009DF8FE
:1019800000100844C4B20A2094FBF0F03030B0726A
:101990000A2094FBF0F100FB11403030F07201207E
:1019A00077E70000E000002010010020B3F5000000
:1019B00035270008CE27000828000020C0EBC1A270
:1019C000B6ACBBB9D3D03F3FCCEC00000228000836
:1019D000F0B58DB004463022714901A800F01CFC1E
:1019E0006069451E642195FBF1F12846EA1705EB75
:1019F0009272C1EBA2014FF4C87295FBF2F28F18FC
:101A00006069C11700EB91718910B0EB810112D1AF
:101A10006422616991FBF2F302FB131131B9920068
:101A2000616991FBF2F302FB131121B921690229CB
:101A300001DD012600E0002640F26D1005FB00717B
:101A40002069401E01AA52F820000844E1680844B9
:101A50000644072096FBF0F100FB1160A0610DB079
:101A6000F0BD10B501460869801E0861002805DC3C
:101A700008690C3008614869401E48616423486960
:101A800090FBF3F04A69D31702EB9373C0EBA3000A
:101A90004FF4C87492FBF4F3034440F26F140869E6
:101AA00060430C2490FBF4F01844CB68034440F2EC
:101AB0006D1402FB04303B4BC01A00EB40008B68F6
:101AC00003EBC000C0EB00104B6803EB8000C0EBE1
:101AD00000100B6803EB8000A0F5E14010BD2DE97C
:101AE000F04107460C463048B7FBF0F6B7FBF0F183
:101AF00000FB11784FF4616098FBF0F0A0604FF4A8
:101B0000616098FBF0F100FB11803C2190FBF1F04B
:101B100060604FF4616098FBF0F100FB11803C21A4
:101B200090FBF1F201FB1200206040F2B27509E077
:101B300015F0030F02D14FF4B77001E040F26D10C1
:101B4000361A6D1C15F0030F02D14FF4B77001E087
:101B500040F26D10B042EBDD65616069C11700EBCA
:101B600091718910B0EB810102D11D200F494860AD
:101B7000012505E0681E0D4951F82000361A6D1C3C
:101B8000681E0A4951F82000B042F3DD1C2048606D
:101B90002561701CE0602046FFF71AFFBDE8F08168
:101BA000102800088BFA0A00805101002001002053
:101BB00008B54FF4C060FEF7C5FB03208DF80000A8
:101BC00001208DF8010000208DF8020001208DF821
:101BD00003006846FEF7BBFB08BD7CB50546002444
:101BE0000020009001901BE000BF2021C648FFF7B5
:101BF000A9FA0028F9D0C448FFF73AFA2146641C34
:101C00004DF82100601E5DF82000302804D3601ECE
:101C10005DF82000392803D9BCA000F065FB641EE4
:101C2000022CE1D3019830380099303901EB810161
:101C300000EB4104AC4205D92946C1A000F054FB99
:101C4000FF207CBDE0B2FCE72DE9F04704464FF0F1
:101C5000FF0AFF25FF26FF27A846A946C4A000F0DB
:101C600043FBD2A000F040FB03E06320FFF7B5FF89
:101C70008246BAF1FF0FF8D05146D6A000F034FBEF
:101C80000AF5FA606061FF25DAA000F02DFB03E0A1
:101C90000C20FFF7A2FF0546FF2DF9D02946DFA053
:101CA00000F022FB2561FF26E2A000F01DFB03E00F
:101CB0001F20FFF792FF0646FF2EF9D03146E6A01F
:101CC00000F012FBE660FF27E9A000F00DFB03E047
:101CD0001720FFF782FF0746FF2FF9D03946EDA006
:101CE00000F002FBA7604FF0FF08F0A000F0FCFA44
:101CF00003E03B20FFF771FF8046B8F1FF0FF8D0FB
:101D00004146F4A000F0F0FAC4F804804FF0FF0957
:101D1000F6A000F0E9FA03E03B20FFF75EFF814602
:101D2000B9F1FF0FF8D04946FAA000F0DDFAC4F887
:101D30000090BDE8F08770B50446FFF713F8204621
:101D4000FFF782FF2046FFF743FE2046FFF789FE9C
:101D50000546FEF7D4FFFFF705F870BD10B5012169
:101D60004FF0C050FEF747FF0120FEF772FDFEF76F
:101D700057FB0120FEF7A2FE00BF4120FEF707FE41
:101D80000028FAD04FF48070FEF7B1FE0120FEF774
:101D9000B4FEFEF7EFFFFEF7E5FF01210846FEF770
:101DA00085FFFEF7DFFF47F6FF70FEF7B5FFFEF792
:101DB000D9FF10BD10B504460420FEF766FBA0F560
:101DC0002541A53910D0D9A000F08EFAFFF7C6FF43
:101DD000DEA000F089FA2046FFF7ADFF4AF2A551D8
:101DE0000420FEF746FB19E07B20FEF7D0FD18B17A
:101DF000DCA000F079FA06E07A20FEF7C8FD10B109
:101E0000E1A000F071FAE9A000F06EFAFEF7B2FF6F
:101E100001210846FEF74AFFFEF7A4FFFEF71CFF6C
:101E200010BDF0B58BB005460C4605F5E1462146E0
:101E30003046FFF754FEA06818B9606808B92068FA
:101E400018B1E248006800282CD0227B217CA38AAC
:101E500098B207ABFFF707FB9DF81F0000909DF8B5
:101E60001E309DF81D209DF81C10D9A000F03CFAF2
:101E7000227B217CA38A98B207ABFFF719FC07A944
:101E8000DCA000F031FA227B217CA38A98B207AB58
:101E9000FFF7F1FC18B107A9D6A000F025FA002041
:101EA000CA4908606069C01E0C2190FBF1F201FB79
:101EB0001200D54951F82070DFF850C3A3695CF8CF
:101EC000233094E80700CDE90232CDE90410D4E9CB
:101ED0000310CDE900013B462946CD48626900F078
:101EE00003FA0BB0F0BD04460CE0CA4800680128B4
:101EF00008D1FEF7FBFE05462146FFF792FF0020C2
:101F0000C4490860F1E70000003801400A0D506C38
:101F10006561736520656E7465722076616C6964B5
:101F2000206E756D626572206265747765656E20DE
:101F30003020616E642039202D2D3E3A2020000093
:101F40000A0D506C6561736520656E74657220764C
:101F5000616C6964206E756D62657220626574776C
:101F600065656E203020616E6420256400000000ED
:101F70000D0A3D3D3D3D3D3D3D3D3D3D3D3D3D3DF4
:101F80003D3D3D3D3D3D3D3D3D3D3D54696D652003
:101F900053657474696E67733D3D3D3D3D3D3D3D08
:101FA0003D3D3D3D3D3D3D3D3D3D00000D0A202078
:101FB000C7EBCAE4C8EBC4EAB7DD28506C656173AF
:101FC0006520536574205965617273293A20203267
:101FD000300000000A0D2020C4EAB7DDB1BBC9E81B
:101FE000D6C3CEAA3A2020323025302E32640A0DD4
:101FF000000000000D0A2020C7EBCAE4C8EBD4C2E1
:10200000B7DD28506C6561736520536574204D6F92
:102010006E746873293A2020000000000A0D202009
:10202000D4C2B7DDB1BBC9E8D6C3CEAA3A202025B9
:10203000640A0D000D0A2020C7EBCAE4C8EBC8D51E
:10204000C6DA28506C65617365205365742044615D
:10205000746573293A2020000A0D2020C8D5C6DAFD
:10206000B1BBC9E8D6C3CEAA3A202025640A0D0028
:102070000D0A2020C7EBCAE4C8EBCAB1D6D328505A
:102080006C656173652053657420486F75727329A0
:102090003A2020000A0D2020CAB1D6D3B1BBC9E82E
:1020A000D6C3CEAA3A202025640A0D000D0A2020AE
:1020B000C7EBCAE4C8EBB7D6D6D328506C656173BA
:1020C0006520536574204D696E75746573293A20D7
:1020D000200000000A0D2020B7D6D6D3B1BBC9E836
:1020E000D6C3CEAA3A202025640A0D000D0A20206E
:1020F000C7EBCAE4C8EBC3EBD6D328506C65617359
:102100006520536574205365636F6E6473293A20AC
:10211000200000000A0D2020C3EBD6D3B1BBC9E8D4
:10212000D6C3CEAA3A202025640A0D000D0A0D0A56
:1021300020525443206E6F742079657420636F6E53
:10214000666967757265642E2E2E2E000D0A0D0AC3
:102150002052544320636F6E666967757265642E02
:102160002E2E2E000D0A0D0A20506F776572204F1B
:102170006E205265736574206F6363757272656457
:102180002E2E2E2E000000000D0A0D0A2045787418
:1021900065726E616C205265736574206F63637540
:1021A000727265642E2E2E2E000000000D0A204E45
:1021B0006F206E65656420746F20636F6E6669675B
:1021C000757265205254432E2E2E2E00A001002041
:1021D0000D0A20BDF1CCECD0C2C0FAA3BA25302E36
:1021E000326425302E32642C25302E32642C25307A
:1021F0002E3264000D0A20BDF1CCECC5A9C0FAA3B3
:10220000BA25730D0A00000070010020540100205F
:10221000402800085001002040EA01039B0703D03A
:1022200009E008C9121F08C0042AFAD203E011F815
:10223000013B00F8013B521EF9D2704730B50B4606
:10224000014600202022012409E021FA02F59D42E6
:1022500005D303FA02F5491B04FA02F52844151EBA
:10226000A2F10102F1DC30BD064C074D06E0E0684A
:1022700040F0010394E8070098471034AC42F6D3CD
:10228000FDF75AFF98290008B829000870B501EB3E
:10229000020410F8015B15F0070301D110F8013BAF
:1022A0002A1106D110F8012B03E010F8016B01F898
:1022B000016B5B1EF9D12B0705D40023521E0FD4EE
:1022C00001F8013BFAE710F8013B02F10202A1EB31
:1022D000030303E013F8015B01F8015B521EF9D51B
:1022E000A142D6D3002070BD0FB4054B10B503A991
:1022F000044A029800F018F810BC5DF814FB0000C6
:102300000B130008A401002002E008C8121F08C136
:10231000002AFAD170477047002001E001C1121F66
:10232000002AFBD1704700002DE9FF4F8BB09A4681
:102330000F4605460026C9E0252837D100246D1C2C
:102340006649A04601222B78203B02FA03F008429E
:1023500002D004436D1CF6E728782E2817D115F813
:10236000010F44F004042A280ED06FF02F022878C1
:10237000A0F1300109290AD808EB880102EB4101DC
:1023800000EB01086D1CF2E757F8048B6D1C2878F0
:1023900069283FD006DC002871D063280CD064285F
:1023A00004D137E0732811D075284ED052460D99CC
:1023B000904706F1010688E017F8040B8DF800003D
:1023C00000208DF80100E946012003E057F8049B46
:1023D0004FF0FF3061074FF0000401D40AE0641CA5
:1023E00044450DDA8442FADB19F804100029F6D1CD
:1023F00006E0641C8442FCDB19F804100029F8D1C3
:10240000264404E019F8010B52460D999047641ECA
:10241000F8D25AE001CF4FF00A0B002804DAC0F1DD
:1024200000004FF02D0102E0210504D52B218DF88D
:102430002410012103E0E10705D02021F7E70DF189
:10244000200908910CE00021F9E701CF4FF00A0BB9
:10245000F9E75946FFF7F2FE01F1300209F8012DC4
:102460000028F6D1ADEB090000F1200B600701D484
:102470004FF00108D84503DDA8EB0B0001E029E08F
:1024800000208046002406E009A85246005D0D9910
:102490009047761C641C08988442F5DB04E03020E9
:1024A00052460D999047761CB8F10001A8F1010839
:1024B000F5DC05E019F8010B52460D999047761CA2
:1024C000BBF10001ABF1010BF4DC6D1C2878002896
:1024D0007FF432AF0FB03046BDE8F08F092801001D
:1024E00004AE530A57485526BD0D26500D95444657
:1024F000AAB9056A4D09AD4224AEB604AE4A6A4D8A
:10250000BE0A4D520D25465D52BA0B544E0D6A431C
:10251000296D37095B4B749BC10497540A4B485B88
:1025200025BC06A55006D4454ADAB802B64D09576F
:10253000422497B704974A664B3E0D4A510EA54672
:1025400056D4BA05AD4E02B644393738092E4B7C05
:1025500096BF0C95530D4A486DA53B0B554F056A28
:10256000454AADB9025D4D092D422C95B60A954AF2
:102570007B4ABD06CA510B5546555ABB04DA4E0A72
:102580005B43352BB8052B4C8A953F0E955206AA16
:10259000487AD53C0AB54F04B6454A57390A574DD3
:1025A0000526423E93350D954975AABE056A510927
:1025B0006D4654AEBB04AD4F0A4D434D26B70D25B5
:1025C0004B8D52BF0B54520B6A47696D3C095B50EF
:1025D000049B454A4BB90A4B4DAB25C206A5540690
:1025E000D4496ADA3D0AB6510937465497BB049775
:1025F0004F064B4436A5370EA54A86B2BF05AC53ED
:102600000AB6475936BC092E500C96454D4AB80DAE
:102610004A4C0DA54125AAB6056A497AADBD025DB1
:1026200052092D475C95BA0A954E0B4A434B5537D4
:102630000AD54A955ABF04BA530A5B48652BBC05B4
:102640002B500A9345474AB906AA4C0AD54124DAC9
:10265000B604B64A69573D0A4E510D26465E933A76
:102660000D534D05AA4336B537096D4BB4AEBF04C3
:10267000AD530A4D486D25BC0D254F0D52445DAA42
:10268000380B5A4C056D4124ADB6049B4A7A4BBEBB
:102690000A4B510AA5465B52BA06D24E0ADA4235B7
:1026A0005B3709374B8497C1049753064B4866A59F
:1026B0003C0EA54F06B2444AB6380AAE4C092E422B
:1026C0003C97350C96497D4ABD0D4A510DA545559F
:1026D000AABA056A4E0A6D43452EB7052D4B8A9559
:1026E000BF0A95530B4A476B553B0AD54F055A45D0
:1026F0004A5D380A5B4C052B423A93B606934977FC
:1027000029BD06AA510AD54654DABA04B64E0A576C
:10271000434527380D264A8E933E0D52520DAA4747
:1027200066B53B056D4F04AE454A4EB90A4D4C0D9A
:1027300015412D92B54EA6999CA2988000180010C4
:10274000244EA6999CA2988082180010244EA6D9E7
:102750009EA2988082180010044EE6D99EA6A880FA
:1027600082180010000FE6D9BEA698888218800053
:10277000000FEFD9BEA6998C82988000000FEFDB86
:10278000BEA6999CA2988000180FEFDBBEA6999C6C
:10279000A2988000180FEFDBBEA2998CA0988082CF
:1027A000180BEFDBBEA6998CA2988082180FEFDB86
:1027B000BEE6D99EA2988082180FEFFBBFE6D99E95
:1027C000A6988082180FFFFFFCEFD9BEA61806144A
:1027D000041306150514061506150717081708171C
:1027E000081808160716001F3B5A7897B5D4F3004F
:1027F000110130014E010003030601040602050029
:1028000003051F1C1F1E1F1E1F1F1E1F1E1F000053
:10281000000000001F0000003B0000005A00000004
:102820007800000097000000B5000000D400000010
:10283000F300000011010000300100004E01000013
:1028400020554E4958CAB1BCE4B4C1203D2025648E
:1028500020B5B1C7B0CAB1BCE4CEAA3A202564C441
:10286000EA282573C4EA29202564D4C2202564C837
:10287000D52028D0C7C6DA257329202025302E324E
:10288000643A25302E32643A25302E32640D00B67B
:10289000A100BAA500D8A500D0A1D1A900B4F3D158
:1028A000A900C1A2B6AC00D0A1BAAE00B4F3BAAED2
:1028B00000C3AE00CAAE00D3EACBAE00C0B000CEBB
:1028C000B400CBAABDB500BAAEC2B600B0D7C2B68E
:1028D00000C1A2B4BA00BCBA00D2BB00B3BD00D0E4
:1028E000C100B6ACD6C100CFC4D6C100CBC400C1B4
:1028F000A2CFC400BEC500CBC800C8C900B0CB0081
:10290000D3CF00D2D200D7D300B4BAB7D600C7EF26
:10291000B7D600C3A2D6D600BCD700BEAAD5DD006C
:10292000C6DF00CEE500CEE700D0E700C9EA00B977
:10293000C8D3EA00CEEC00D0A1CAEE00B4A6CAEE1D
:1029400000B4F3CAEE00B9EF00C1A2C7EF00B3F3C1
:1029500000B3F500C7E5C3F700C1F900CFC4C2FA60
:1029600000D2FA00B1FB00B8FD00C8FD00B6FE00C1
:10297000BBA200C5A300BCA600B9B700CDC300C868
:10298000D500C9DF00C2ED00D6ED00BAEF00D1F2EC
:1029900000CAF300C1FA0000B829000800000020B6
:1029A000A80100008C220008C42A0008A801002009
:1029B00020040000182300081184A24A04680901B9
:1029C000020304060708090C69101702040608A789
:1029D000281B08AC041AD1041AB704131B291B08BE
:1029E00009041A54041A2F041AEF141A5C081A1353
:1029F000041AE70C1A37081A41041A49041A3C044D
:102A00001ACC141A0E081AC7081AC2041AA2041AF9
:102A100098041A9D041AE2041A181C1A03041A6472
:102A2000041A8F101A34081AD6081A67081ADF0811
:102A30001AFA041A460C1A06041A4E041A61041AE9
:102A4000B1141ADC041AF7041A26101ABF081A2C3B
:102A5000081119041A29041A92101AD9041A6D0CB3
:102A60001A6A041AEC0C1A23081A59041A20041AB8
:102A7000FD101AF4041AB4041AA4041ABC041A515E
:102A80001829101A95042934321F321C2908DA1E1D
:102A900008091214411A7F380916781A88041A9105
:102AA000041A73041A70041A7C041A94041A820417
:102AB0001A85041A8E041A8B041A76041A79047281
:042AC0000100000011
:0400000508000131BD
:00000001FF
