:020000040800F2
:100000003004002045010008591200085B12000866
:100010005F12000863120008671200080000000069
:100020000000000000000000000000006B1200084B
:100030006D120008000000006F1200087112000825
:100040005F0100085F0100085F0100085F01000810
:100050005F0100085F0100085F0100085F01000800
:100060005F0100085F0100085F0100085F010008F0
:100070005F0100085F0100085F0100085F010008E0
:100080005F0100085F0100085F0100085F010008D0
:100090005F0100085F0100085F0100085F010008C0
:1000A0005F0100085F0100085F0100085F010008B0
:1000B0005F0100085F0100085F0100085F010008A0
:1000C0005F0100085F0100085F0100085F01000890
:1000D0005F0100085F0100085F0100085F01000880
:1000E000731200085F0100085F0100085F0100084B
:1000F0005F0100085F0100085F0100085F01000860
:100100005F0100085F0100085F0100085F0100084F
:100110005F0100085F0100085F0100085F0100083F
:100120005F0100085F0100085F0100085F0100082F
:10013000DFF80CD001F0D6F9004800471F11000885
:10014000300400200648804706480047FEE7FEE7E7
:10015000FEE7FEE7FEE7FEE7FEE7FEE7FEE7FEE777
:1001600045020008310100080CB500200190009004
:100170006B48006840F480306949086000BF6848F7
:10018000006800F4003000900198401C0190009835
:1001900018B90198B0F5A06FF1D16148006810F46A
:1001A000003F02D00120009001E000200090009864
:1001B000012842D15B48006840F0100059490860AE
:1001C0000846006820F0030008600846006840F018
:1001D000020008605248406851494860084640683B
:1001E00048600846406840F48060486008464068BF
:1001F00020F47C1048600846406840F4E8104860ED
:100200000846006840F08070086000BF44480068FD
:1002100010F0007FFAD04248406820F003004049C7
:1002200048600846406840F00200486000BF3C4813
:10023000406800F00C000828F9D10CBD10B5FFF79C
:1002400093FF10BD10B53648006840F001003449F6
:10025000086008464068344908403149486008460B
:100260000068324908402E4908600846006820F4BA
:10027000802008600846406820F4FE0048604FF483
:100280001F008860FFF7DAFF4FF000602849086020
:1002900010BD10B5002100200022214B5B6803F047
:1002A0000C0121B1042906D0082928D107E0214BEF
:1002B000214C236027E01F4B1F4C236023E0184B89
:1002C0005B6803F47010164B5B6803F48032022302
:1002D00003EB904022B9194B4343174C23600DE0C8
:1002E0000F4B5B6813F4003F04D0144B4343124C94
:1002F000236003E00F4B43430F4C236003E00D4B9F
:100300000D4C236000BF00BF054B5B68C3F30313B4
:100310000B4CE15C084B1B68CB40074C236010BDC5
:1003200000100240002002400000FFF8FFFFF6FE30
:1003300008ED00E000127A000000002000093D00F6
:100340000400002031490143314A1160704770B503
:10035000002100230F22C4780CB32D4C246804F430
:10036000E064C4F5E064210AC1F10403CA404478A2
:1003700004FA03F18478144021430901254C0678DE
:10038000A155047804F01F050124AC4005786D11D7
:100390004FF0E02606EB8505C5F8004109E004783A
:1003A00004F01F050124AC401B4D0678761145F87A
:1003B000264070BD194A0A400243154B1B1F1A60A4
:1003C000704739B1124A121D12680243104B1B1DAF
:1003D0001A6006E00E4A121D126882430C4B1B1D68
:1003E0001A607047042808D14FF0E021096941F0F4
:1003F00004014FF0E022116107E04FF0E0210969AC
:1004000021F004014FF0E022116170470000FA056D
:100410000CED00E000E400E080E100E080FFFF1F61
:10042000002044490860091D0860091D0860091D75
:10043000086041483F4914310860704700213D4938
:100440008279002A3AD00A46126803689A430B461A
:100450001A600A1D126803689A430B1D1A6002791C
:1004600011440A6803681A430A60324A0832126863
:1004700003689A432F4B08331A601A1D12680368E9
:100480009A432C4B0C331A604279102A0ED11A1F52
:10049000126803681A43274B08331A601A1D126842
:1004A00003681A43234B0C331A600DE0214942794B
:1004B00011440A6803681A430A6005E0027911448E
:1004C0000A6803689A430A6070470021016001715D
:1004D0000C21417100218171704716491031096862
:1004E0000143144A10321160704701460020114A3E
:1004F000143212680A4201D0012000E00020704747
:100500000C49143108607047014600200022094B55
:100510001B6803EA0102074B14331B680B4202D02D
:100520000AB1012000E00020704702491431086040
:100530007047000000040140FFFF0F0010B50446A3
:10054000CA48844208D10121042000F08DFB00211B
:10055000042000F089FB46E0C548844208D101210F
:10056000082000F081FB0021082000F07DFB3AE02C
:10057000C048844208D10121102000F075FB002101
:10058000102000F071FB2EE0BB48844208D101210D
:10059000202000F069FB0021202000F065FB22E014
:1005A000B648844208D10121402000F05DFB0021C3
:1005B000402000F059FB16E0B148844208D10121E7
:1005C000802000F051FB0021802000F04DFB0AE06C
:1005D000AC48844207D10121801500F045FB002181
:1005E000A01500F041FB10BD10B50121084600F038
:1005F0003BFB0021012000F037FB10BD2DE9F0414D
:10060000024600250026002000230024002791F840
:1006100003C00CF00F0591F803C01CF0100F03D0BD
:1006200091F802C04CEA050591F800C0BCF1000F3A
:1006300031D0146800202BE04FF0010C0CFA00F3CD
:10064000B1F800C00CEA03069E4220D183004FF0AF
:100650000F0C0CFA03F7BC4305FA03FC4CEA040444
:1006600091F803C0BCF1280F06D14FF0010C0CFA31
:1006700000FCC2F814C00AE091F803C0BCF1480FB6
:1006800005D14FF0010C0CFA00FCC2F810C0401C60
:100690000828D1D31460B1F800C0BCF1FF0F34DDDD
:1006A000546800202EE000F1080C4FF0010808FA11
:1006B0000CF3B1F800C00CEA03069E4221D183007E
:1006C0004FF00F0C0CFA03F7BC4305FA03FC4CEA9D
:1006D000040491F803C0BCF1280F05D100F1080C07
:1006E00008FA0CF8C2F8148091F803C0BCF1480F66
:1006F00007D100F1080C4FF0010808FA0CF8C2F815
:100700001080401C0828CED35460BDE8F0814FF61D
:10071000FF710180022181700421C170704702467F
:10072000002093680B4201D0012000E000207047B8
:100730000146886880B2704702460020D3680B42A9
:1007400001D0012000E0002070470146C86880B257
:10075000704701617047416170470AB1016100E073
:1007600041617047C16070474FF480320A43826133
:100770008161826182698269704702460020424B32
:1007800018684FF68073184040EA021008433E4B49
:10079000186070473D49C8617047F0B50A460023AC
:1007A00000240021002500F00046B6F1004F02D1E0
:1007B000354EF16901E0344E7168C0F3034583B2F0
:1007C00000F44016B6F5401F08D121F070612E4E9E
:1007D000766826F070662C4F7E6012E000F480167A
:1007E000B6F5801F06D1032606FA05F4A14341F0B1
:1007F000706106E0460D360103FA06F6B14341F09A
:10080000706122B1460D360103FA06F6314300F05D
:100810000046B6F1004F02D11B4EF16101E01A4EC5
:100820007160F0BD30B500228B071C0F0F2303FA57
:1008300004F2154B08338C1053F824309343124CB8
:1008400008348D1044F8253023468C1053F824309A
:100850008C07240F00FA04F423430B4C08348D104A
:1008600044F8253030BD0A4908607047000801404F
:10087000000C01400010014000140140001801402C
:10088000001C014000200140000001400000204207
:10089000DC00204210B50121080700F0F2F9002128
:1008A0004FF0805000F0EDF910BD29490862704703
:1008B00027490861704701460020264A106820F049
:1008C000E00008431060704723490860704710B586
:1008D000024600201F4B186820F0030010431860E8
:1008E0001E4B1B6843F004031C4C2360012901D1FB
:1008F00030BF00E020BF194B1B6823F00403174CE6
:10090000236010BD1348006840F0040011490860DE
:100910000846006840F0020008601048006840F097
:1009200004000E49086000BF00BF30BF7047014699
:100930000020084A52680A4201D0012000E000204D
:1009400070470449096841EA8001024A1160704712
:1009500000000E4200700040A0000E4210ED00E0CA
:10096000DD48006840F00100DB4908600846406847
:10097000DA490840D849486008460068D849084024
:10098000D54908600846006820F4802008600846C1
:10099000406820F4FE0048604FF41F0088607047F4
:1009A000CD49096821F48031CB4A116011460968AC
:1009B00021F480211160B0F5803F03D0B0F5802F85
:1009C0000ED106E0C449096841F48031C24A116081
:1009D00007E0C149096841F4A021BF4A116000E065
:1009E00000BF00BF704710B5014600220023002061
:1009F0004A11012A02D1B84C236806E0022A02D12A
:100A0000B54C236A01E0B44C636A01F01F02012473
:100A100094401C4201D0012000E0002010BD38B5F8
:100A2000002000900024002500BF3120FFF7DBFFED
:100A300005460098401C00900098B0F5A06F01D0CA
:100A4000002DF2D03120FFF7CEFF08B1012400E0E5
:100A50000024204638BD014600209F4A106820F03F
:100A6000F80040EAC100106070479E490860704776
:100A700002460020984B586820F47C1042EA01039B
:100A80001843954B58607047964908667047014671
:100A90000020914A506820F00300084350607047DE
:100AA0008D48406800F00C007047014600208A4ADB
:100AB000506820F0F0000843506070470146002065
:100AC000854A506820F4E060084350607047014652
:100AD0000020814A506820F4605040EAC100506014
:100AE000704729B17C4A527A02437B4B5A7204E028
:100AF000794A527A8243784B5A7270477A49086031
:100B0000704701460020744A506820F44040084372
:100B1000506070470021754A11706F4A82F82010AA
:100B2000012802D0042808D103E001216F4A117086
:100B300004E005216D4A117000E000BF00BF70475E
:100B40006B49086070476449096A0143624A11624F
:100B50007047674944390860704730B5002100226A
:100B6000002400235C4D6D6805F00C0121B10429BF
:100B700005D0082923D105E05E4D056022E05D4DDA
:100B800005601FE0544D6D6805F47012524D6D689C
:100B900005F48034022505EB92421CB9564D5543AD
:100BA00005600BE04C4D6D6815F4003F03D0524DCD
:100BB0005543056002E04F4D5543056002E04D4D41
:100BC000056000BF00BF444D6D6805F0F0010909E4
:100BD0004A4D6B5C0568DD4045603F4D6D6805F42E
:100BE000E061090A454D6B5C4568DD4085603A4D22
:100BF0006D6805F46051C90A404D6B5C4568DD4085
:100C0000C560354D6D6805F44041890B3C4D6B5C0A
:100C1000C568B5FBF3F5056130BD29B12E4A5269AF
:100C200002432D4B5A6104E02B4A526982432A4BFE
:100C30005A61704729B1284A92690243264B9A614A
:100C400004E0254A92698243234B9A61704729B197
:100C5000214AD2690243204BDA6104E01E4AD2697C
:100C600082431D4BDA61704729B11B4AD2680243A7
:100C7000194BDA6004E0184AD2688243164BDA60F6
:100C8000704729B1144A12690243134B1A6104E0F8
:100C9000114A12698243104B1A6170471449403956
:100CA000086070470F49C86470470B49C8717047A6
:100CB0000948406A40F08070074948627047014621
:100CC0000020054A92680A4201D0012000E000207D
:100CD0007047014988727047001002400000FFF819
:100CE000FFFFF6FE00004242D800424220100240C0
:100CF0008004424200127A0000093D0014000020E6
:100D00002400002010B50446FB48844209D101218B
:100D10008803FFF7A9FF00214FF48040FFF7A4FFED
:100D200032E0F648844209D101214804FFF7A9FFC7
:100D300000214FF40030FFF7A4FF25E0F048844283
:100D400009D101218804FFF79CFF00214FF4802086
:100D5000FFF797FF18E0EB48844209D10121C8044E
:100D6000FFF78FFF00214FF40020FFF78AFF0BE011
:100D7000E548844208D101210805FFF782FF0021E0
:100D80004FF48010FFF77DFF10BD2DE9F04786B0CE
:100D900005460E460024A24600BFA1460027B089A2
:100DA00000B100BF2F462C8A4CF6FF700440F0883B
:100DB00004432C82AC894EF6F3100440B08831898C
:100DC0000843718908430443AC81AC8A4FF6FF4065
:100DD0000440B0890443AC8201A8FFF7BEFEC648B8
:100DE000874202D1DDF810A001E0DDF80CA0A8894F
:100DF00010F4004F08D00AEBCA0000EB0A1031686B
:100E00004900B0FBF1F807E00AEBCA0000EB0A105A
:100E100031688900B0FBF1F86420B8FBF0F0040100
:100E20002009642101FB1089A88910F4004F08D023
:100E3000322000EBC900B0FBF1F000F007000443E2
:100E400008E0322000EB09106421B0FBF1F000F063
:100E50000F0004432C8106B0BDE8F0874FF4165113
:100E6000016000218180C18001810C21418100212C
:100E70008181704710B502460020108A4FF2FF03AF
:100E800018400B884C8823438C882343CC88234309
:100E90001843108210BD0021018041808180C180F3
:100EA000704721B1828942F40052828104E0828934
:100EB0004DF6FF731A4082817047F0B50346002457
:100EC000002600250020A1F510676A3F00D100BF71
:100ED0001846C1F3421401F01F06012707FA06F570
:100EE000012C01D10C3004E0022C01D1103000E0C3
:100EF00014301AB107682F43076002E00768AF4358
:100F00000760F0BD1AB1838A0B43838202E0838AB3
:100F10008B4383827047028A4FF6F0731A40028235
:100F2000028A0A430282704782894FF2FF731A4095
:100F3000828182890A438281704721B1828942F08D
:100F40000202828104E082894FF6FD731A40828199
:100F50007047028A4FF6DF731A400282028A0A4300
:100F60000282704721B1028A42F48042028204E088
:100F7000028A4BF6FF731A4002827047C1F30802DF
:100F80008280704701468888C0F3080070478189D5
:100F900041F0010181817047028BD2B20283028B42
:100FA00042EA012202837047028B02F47F420283ED
:100FB000028B0A430283704721B1828A42F02002E9
:100FC000828204E0828A4FF6DF731A408282704781
:100FD00021B1828A42F01002828204E0828A4FF6B6
:100FE000EF731A408282704721B1828A42F0080270
:100FF000828204E0828A4FF6F7731A408282704739
:1010000021B1828942F40042828103E08289C2F3E5
:101010000E028281704721B1828A42F4006282828C
:1010200004E0828A4FF2FF731A4082827047828AFC
:101030004FF6FB731A408282828A0A43828270478B
:1010400021B1828A42F00202828204E0828A4FF653
:10105000FD731A408282704702460020B1F5007F7E
:1010600000D100BF13880B4201D0012000E0002016
:10107000704701F40072B2F5007F00D100BFCA438F
:101080000280704770B5024600240023002500202E
:10109000A1F510666A3E00D100BFC1F3421501F010
:1010A0001F03012606FA03F3012D02D1968933406E
:1010B00006E0022D02D1168A334001E0968A3340C1
:1010C0000C12012606FA04F41688344013B10CB150
:1010D000012000E0002070BD10B500220023A1F522
:1010E00010646A3C00D100BF0A1201249440A3B2EC
:1010F000DC43048010BD0000003801400044004083
:1011000000480040004C00400050004001B502E0A3
:101110000098401E009000980028F9D108BD00F00A
:1011200057F900F0DDF800F083F90120FFF7FFFB2D
:10113000012803D11DA000F0E7F902E028A000F08B
:10114000E3F901210807FFF782FD0120FFF7EFFB1C
:10115000012803D12EA000F0D7F902E034A000F05E
:10116000D3F922E001213948FFF7F5FA3848FFF7B3
:10117000CDFF01213548FFF7ECFA80213548FFF714
:10118000EAFA3348FFF7C2FF80213248FFF7E1FA5D
:101190004FF480712F48FFF7DEFA2D48FFF7B6FFB6
:1011A0004FF480712B48FFF7D4FADBE70D0A20CA11
:1011B000B9C4DCB5E7D4B4B9DCC0EDCAB1D6D3B597
:1011C000A5D4AAC7B0B5C4BCECB2E2A3ACB4FDBB15
:1011D000FABBBDD0D1B8B4CEBB200D0A00000000D0
:1011E0000D0A20CAB9C4DCB5E7D4B4B9DCC0EDCA75
:1011F000B1D6D3B5A5D4AAC7B0B5C4BCECB2E2A3EE
:10120000ACC9CFB5E7B8B4CEBB200D0A00000000D2
:101210000D0A20CAB9C4DCBAF3BCECB2E2A3ACB488
:10122000FDBBFABBBDD0D1B8B4CEBB200D0A0000C7
:101230000D0A20CAB9C4DCBAF3BCECB2E2A3ACC953
:10124000CFB5E7B8B4CEBB200D0A0000000C0140BA
:10125000FFFF0F00001C0140704700BFFEE700BF0A
:10126000FEE700BFFEE700BFFEE77047704770472C
:10127000704710B54FF40050FFF746F970B108A061
:1012800000F042F900F05BF820B10120FFF71CFBF1
:10129000FFF738FB4FF40050FFF747F910BD00008F
:1012A0000D0A20BDF8C8EB455854493133D6D0B6A5
:1012B000CF200D0A0000000008B54FF4C060FFF712
:1012C00041F828208DF8000000208DF80100012051
:1012D0008DF802008DF803006846FFF738F808BD66
:1012E0000EB501211120FFF7A5FCFFF7E5FF4FF434
:1012F0000050ADF8080048208DF80B0002A93148D5
:10130000FFF77CF90D210220FFF78CFA4FF4005013
:10131000009000208DF804000C208DF805000120BD
:101320008DF806006846FFF789F80EBD01B502E0AA
:101330000098401E009000980028F9D108BD70B5B3
:10134000002500243DE04FF6FF70FFF7EFFF4FF45C
:1013500000511C48FFF7E3F900BB01211A48FFF7D1
:10136000FAF980211948FFF7F6F94FF48071174810
:10137000FFF7F1F9681CC5B20024642D21DB0121BF
:101380001148FFF7E6F980211048FFF7E2F94FF422
:1013900080710E48FFF7DDF9012070BD601CC4B2FA
:1013A000052C0EDD01210848FFF7D3F980210748FD
:1013B000FFF7CFF94FF480710448FFF7CAF9002016
:1013C000EBE7C0E700100140000C0140001C0140A9
:1013D00008B501218820FFF72DFC0120ADF80000A1
:1013E00010208DF8030003208DF8020069460E4896
:1013F000FFF704F98020ADF8000069460B48FFF7BD
:10140000FDF84FF48070ADF8000069460748FFF71B
:10141000F5F801210448FFF79CF94FF4C071034827
:10142000FFF797F908BD0000000C0140001C0140C7
:1014300000B585B0012144F20400FFF7FBFB4FF437
:101440000070ADF8100018208DF8130003208DF8FF
:10145000120004A92148FFF7D1F84FF48060ADF8DD
:10146000100004208DF8130004A91C48FFF7C6F8EB
:101470004FF4E13000900020ADF80400ADF8060014
:10148000ADF80800ADF80C000C20ADF80A00694674
:101490001348FFF77AFC01211148FFF702FD05B060
:1014A00000BD70B504460D46E1B20D48FFF766FD7C
:1014B00000BF80210A48FFF7CFFD0028F9D0204661
:1014C00070BD10B5044600BF20210548FFF7C4FDDC
:1014D0000028F9D00248FFF755FD10BD0008014073
:1014E00000380140064C074D06E0E06840F001037B
:1014F00094E8070098471034AC42F6D3FEF71CFE80
:101500005815000878150008014A024900F013B880
:10151000A31400082800002002E008C8121F08C118
:10152000002AFAD170477047002001E001C1121F64
:10153000002AFBD170472DE9F04116460F460446BC
:10154000002503E03946B0476D1C641C2078002854
:10155000F8D12846BDE8F081781500080000002089
:101560002C00000018150008A41500082C0000200D
:10157000040400002815000800A24A04000000002E
:101580000000000001020304060708090000000033
:101590000102030401020304060708090204060805
:0415A0000000000047
:0400000508000131BD
:00000001FF
